{
  "contractName": "AaveAdapter",
  "abi": [
    {
      "constant": false,
      "inputs": [],
      "name": "renounceOwnership",
      "outputs": [],
      "payable": false,
      "stateMutability": "nonpayable",
      "type": "function"
    },
    {
      "constant": true,
      "inputs": [],
      "name": "owner",
      "outputs": [
        {
          "name": "",
          "type": "address"
        }
      ],
      "payable": false,
      "stateMutability": "view",
      "type": "function"
    },
    {
      "constant": true,
      "inputs": [],
      "name": "isOwner",
      "outputs": [
        {
          "name": "",
          "type": "bool"
        }
      ],
      "payable": false,
      "stateMutability": "view",
      "type": "function"
    },
    {
      "constant": true,
      "inputs": [],
      "name": "blocksPerYear",
      "outputs": [
        {
          "name": "",
          "type": "uint256"
        }
      ],
      "payable": false,
      "stateMutability": "view",
      "type": "function"
    },
    {
      "constant": true,
      "inputs": [
        {
          "name": "",
          "type": "address"
        }
      ],
      "name": "tokenToAToken",
      "outputs": [
        {
          "name": "",
          "type": "address"
        }
      ],
      "payable": false,
      "stateMutability": "view",
      "type": "function"
    },
    {
      "constant": false,
      "inputs": [
        {
          "name": "newOwner",
          "type": "address"
        }
      ],
      "name": "transferOwnership",
      "outputs": [],
      "payable": false,
      "stateMutability": "nonpayable",
      "type": "function"
    },
    {
      "inputs": [
        {
          "name": "provider",
          "type": "address"
        }
      ],
      "payable": false,
      "stateMutability": "nonpayable",
      "type": "constructor"
    },
    {
      "anonymous": false,
      "inputs": [
        {
          "indexed": false,
          "name": "tokenAddress",
          "type": "address"
        },
        {
          "indexed": false,
          "name": "aTokenAmount",
          "type": "uint256"
        },
        {
          "indexed": false,
          "name": "tokenAmount",
          "type": "uint256"
        }
      ],
      "name": "LogDeposit",
      "type": "event"
    },
    {
      "anonymous": false,
      "inputs": [
        {
          "indexed": false,
          "name": "tokenAddress",
          "type": "address"
        },
        {
          "indexed": false,
          "name": "aTokenAmount",
          "type": "uint256"
        },
        {
          "indexed": false,
          "name": "tokenPaid",
          "type": "uint256"
        }
      ],
      "name": "LogWithdraw",
      "type": "event"
    },
    {
      "anonymous": false,
      "inputs": [
        {
          "indexed": true,
          "name": "previousOwner",
          "type": "address"
        },
        {
          "indexed": true,
          "name": "newOwner",
          "type": "address"
        }
      ],
      "name": "OwnershipTransferred",
      "type": "event"
    },
    {
      "constant": false,
      "inputs": [
        {
          "name": "tokenAddress",
          "type": "address"
        },
        {
          "name": "aTokenAddress",
          "type": "address"
        }
      ],
      "name": "mapTokenToAToken",
      "outputs": [],
      "payable": false,
      "stateMutability": "nonpayable",
      "type": "function"
    },
    {
      "constant": true,
      "inputs": [
        {
          "name": "tokenAddress",
          "type": "address"
        }
      ],
      "name": "getRate",
      "outputs": [
        {
          "name": "",
          "type": "uint256"
        }
      ],
      "payable": false,
      "stateMutability": "view",
      "type": "function"
    },
    {
      "constant": false,
      "inputs": [
        {
          "name": "tokenAddress",
          "type": "address"
        },
        {
          "name": "tokenAmount",
          "type": "uint256"
        }
      ],
      "name": "deposit",
      "outputs": [],
      "payable": false,
      "stateMutability": "nonpayable",
      "type": "function"
    },
    {
      "constant": false,
      "inputs": [
        {
          "name": "tokenAddress",
          "type": "address"
        },
        {
          "name": "recipient",
          "type": "address"
        },
        {
          "name": "tokenAmount",
          "type": "uint256"
        }
      ],
      "name": "withdraw",
      "outputs": [],
      "payable": false,
      "stateMutability": "nonpayable",
      "type": "function"
    },
    {
      "constant": false,
      "inputs": [
        {
          "name": "tokenAddress",
          "type": "address"
        },
        {
          "name": "recipient",
          "type": "address"
        }
      ],
      "name": "withdrawAll",
      "outputs": [],
      "payable": false,
      "stateMutability": "nonpayable",
      "type": "function"
    },
    {
      "constant": false,
      "inputs": [
        {
          "name": "tokenAddress",
          "type": "address"
        },
        {
          "name": "recipient",
          "type": "address"
        }
      ],
      "name": "claimTokens",
      "outputs": [],
      "payable": false,
      "stateMutability": "nonpayable",
      "type": "function"
    },
    {
      "constant": false,
      "inputs": [
        {
          "name": "tokenAddress",
          "type": "address"
        }
      ],
      "name": "getSupply",
      "outputs": [
        {
          "name": "",
          "type": "uint256"
        }
      ],
      "payable": false,
      "stateMutability": "nonpayable",
      "type": "function"
    },
    {
      "constant": true,
      "inputs": [
        {
          "name": "tokenAddress",
          "type": "address"
        }
      ],
      "name": "getSupplyView",
      "outputs": [
        {
          "name": "",
          "type": "uint256"
        }
      ],
      "payable": false,
      "stateMutability": "view",
      "type": "function"
    },
    {
      "constant": false,
      "inputs": [
        {
          "name": "blocks",
          "type": "uint256"
        }
      ],
      "name": "setBlocksPerYear",
      "outputs": [],
      "payable": false,
      "stateMutability": "nonpayable",
      "type": "function"
    },
    {
      "constant": true,
      "inputs": [
        {
          "name": "tokenAddress",
          "type": "address"
        }
      ],
      "name": "supportsToken",
      "outputs": [
        {
          "name": "",
          "type": "bool"
        }
      ],
      "payable": false,
      "stateMutability": "view",
      "type": "function"
    }
  ],
  "bytecode": "0x60806040526220158a60015534801561001757600080fd5b506040516020806200269d8339810180604052602081101561003857600080fd5b8101908080519060200190929190505050336000806101000a81548173ffffffffffffffffffffffffffffffffffffffff021916908373ffffffffffffffffffffffffffffffffffffffff1602179055506000809054906101000a900473ffffffffffffffffffffffffffffffffffffffff1673ffffffffffffffffffffffffffffffffffffffff16600073ffffffffffffffffffffffffffffffffffffffff167f8be0079c531659141344cd1fd0a4f28419497f9722a3daafe3b4186f6b6457e060405160405180910390a380600260006101000a81548173ffffffffffffffffffffffffffffffffffffffff021916908373ffffffffffffffffffffffffffffffffffffffff160217905550600073ffffffffffffffffffffffffffffffffffffffff16600260009054906101000a900473ffffffffffffffffffffffffffffffffffffffff1673ffffffffffffffffffffffffffffffffffffffff16630261bf8b6040518163ffffffff1660e01b815260040160206040518083038186803b1580156101c657600080fd5b505afa1580156101da573d6000803e3d6000fd5b505050506040513d60208110156101f057600080fd5b810190808051906020019092919050505073ffffffffffffffffffffffffffffffffffffffff16141561028b576040517f08c379a000000000000000000000000000000000000000000000000000000000815260040180806020018281038252601b8152602001807f416176652e4c656e64696e67506f6f6c20697320696e76616c6964000000000081525060200191505060405180910390fd5b50612401806200029c6000396000f3fe608060405234801561001057600080fd5b50600436106101005760003560e01c80638da5cb5b11610097578063d9caed1211610066578063d9caed12146104a3578063e5fa2b7014610511578063ed8a1e541461053f578063f2fde38b1461059757610100565b80638da5cb5b146103955780638f32d59b146103df578063a385fb9614610401578063b9b44d301461041f57610100565b806347e7ef24116100d357806347e7ef241461027557806369ffa08a146102c3578063715018a6146103275780637d9008031461033157610100565b8063061f76501461010557806309cae2c8146101615780631fd433aa146101c557806337cef7911461021d575b600080fd5b6101476004803603602081101561011b57600080fd5b81019080803573ffffffffffffffffffffffffffffffffffffffff1690602001909291905050506105db565b604051808215151515815260200191505060405180910390f35b6101c36004803603604081101561017757600080fd5b81019080803573ffffffffffffffffffffffffffffffffffffffff169060200190929190803573ffffffffffffffffffffffffffffffffffffffff1690602001909291905050506105ed565b005b610207600480360360208110156101db57600080fd5b81019080803573ffffffffffffffffffffffffffffffffffffffff169060200190929190505050610ace565b6040518082815260200191505060405180910390f35b61025f6004803603602081101561023357600080fd5b81019080803573ffffffffffffffffffffffffffffffffffffffff169060200190929190505050610b8f565b6040518082815260200191505060405180910390f35b6102c16004803603604081101561028b57600080fd5b81019080803573ffffffffffffffffffffffffffffffffffffffff16906020019092919080359060200190929190505050610d85565b005b610325600480360360408110156102d957600080fd5b81019080803573ffffffffffffffffffffffffffffffffffffffff169060200190929190803573ffffffffffffffffffffffffffffffffffffffff1690602001909291905050506114fd565b005b61032f61150b565b005b6103936004803603604081101561034757600080fd5b81019080803573ffffffffffffffffffffffffffffffffffffffff169060200190929190803573ffffffffffffffffffffffffffffffffffffffff169060200190929190505050611644565b005b61039d611740565b604051808273ffffffffffffffffffffffffffffffffffffffff1673ffffffffffffffffffffffffffffffffffffffff16815260200191505060405180910390f35b6103e7611769565b604051808215151515815260200191505060405180910390f35b6104096117c0565b6040518082815260200191505060405180910390f35b6104616004803603602081101561043557600080fd5b81019080803573ffffffffffffffffffffffffffffffffffffffff1690602001909291905050506117c6565b604051808273ffffffffffffffffffffffffffffffffffffffff1673ffffffffffffffffffffffffffffffffffffffff16815260200191505060405180910390f35b61050f600480360360608110156104b957600080fd5b81019080803573ffffffffffffffffffffffffffffffffffffffff169060200190929190803573ffffffffffffffffffffffffffffffffffffffff169060200190929190803590602001909291905050506117f9565b005b61053d6004803603602081101561052757600080fd5b8101908080359060200190929190505050611cae565b005b6105816004803603602081101561055557600080fd5b81019080803573ffffffffffffffffffffffffffffffffffffffff169060200190929190505050611d32565b6040518082815260200191505060405180910390f35b6105d9600480360360208110156105ad57600080fd5b81019080803573ffffffffffffffffffffffffffffffffffffffff169060200190929190505050611e5d565b005b60006105e682611ee3565b9050919050565b6105f5611769565b610667576040517f08c379a00000000000000000000000000000000000000000000000000000000081526004018080602001828103825260208152602001807f4f776e61626c653a2063616c6c6572206973206e6f7420746865206f776e657281525060200191505060405180910390fd5b8161067181611ee3565b6106e3576040517f08c379a00000000000000000000000000000000000000000000000000000000081526004018080602001828103825260138152602001807f546f6b656e206e6f7420737570706f727465640000000000000000000000000081525060200191505060405180910390fd5b60008390506000600360008673ffffffffffffffffffffffffffffffffffffffff1673ffffffffffffffffffffffffffffffffffffffff16815260200190815260200160002060009054906101000a900473ffffffffffffffffffffffffffffffffffffffff169050600081905060008173ffffffffffffffffffffffffffffffffffffffff166370a08231306040518263ffffffff1660e01b8152600401808273ffffffffffffffffffffffffffffffffffffffff1673ffffffffffffffffffffffffffffffffffffffff16815260200191505060206040518083038186803b1580156107d057600080fd5b505afa1580156107e4573d6000803e3d6000fd5b505050506040513d60208110156107fa57600080fd5b810190808051906020019092919050505090508173ffffffffffffffffffffffffffffffffffffffff1663db006a75826040518263ffffffff1660e01b815260040180828152602001915050600060405180830381600087803b15801561086057600080fd5b505af1158015610874573d6000803e3d6000fd5b5050505060008473ffffffffffffffffffffffffffffffffffffffff166370a08231306040518263ffffffff1660e01b8152600401808273ffffffffffffffffffffffffffffffffffffffff1673ffffffffffffffffffffffffffffffffffffffff16815260200191505060206040518083038186803b1580156108f757600080fd5b505afa15801561090b573d6000803e3d6000fd5b505050506040513d602081101561092157600080fd5b81019080805190602001909291905050509050600081101561098e576040517f08c379a000000000000000000000000000000000000000000000000000000000815260040180806020018281038252603d815260200180612399603d913960400191505060405180910390fd5b8473ffffffffffffffffffffffffffffffffffffffff1663a9059cbb88836040518363ffffffff1660e01b8152600401808373ffffffffffffffffffffffffffffffffffffffff1673ffffffffffffffffffffffffffffffffffffffff16815260200182815260200192505050602060405180830381600087803b158015610a1557600080fd5b505af1158015610a29573d6000803e3d6000fd5b505050506040513d6020811015610a3f57600080fd5b8101908080519060200190929190505050507fda9a10d7b992511ddadbfc7ff712c1424ce2058bbcdac8c9876d6f8de590d43f888383604051808473ffffffffffffffffffffffffffffffffffffffff1673ffffffffffffffffffffffffffffffffffffffff168152602001838152602001828152602001935050505060405180910390a15050505050505050565b60003073ffffffffffffffffffffffffffffffffffffffff1663ed8a1e54836040518263ffffffff1660e01b8152600401808273ffffffffffffffffffffffffffffffffffffffff1673ffffffffffffffffffffffffffffffffffffffff16815260200191505060206040518083038186803b158015610b4d57600080fd5b505afa158015610b61573d6000803e3d6000fd5b505050506040513d6020811015610b7757600080fd5b81019080805190602001909291905050509050919050565b6000610b99612318565b600260009054906101000a900473ffffffffffffffffffffffffffffffffffffffff1673ffffffffffffffffffffffffffffffffffffffff16630261bf8b6040518163ffffffff1660e01b815260040160206040518083038186803b158015610c0157600080fd5b505afa158015610c15573d6000803e3d6000fd5b505050506040513d6020811015610c2b57600080fd5b810190808051906020019092919050505073ffffffffffffffffffffffffffffffffffffffff166335ea6a75846040518263ffffffff1660e01b8152600401808273ffffffffffffffffffffffffffffffffffffffff1673ffffffffffffffffffffffffffffffffffffffff16815260200191505060a06040518083038186803b158015610cb857600080fd5b505afa158015610ccc573d6000803e3d6000fd5b505050506040513d60a0811015610ce257600080fd5b8101908080519060200190929190805190602001909291908051906020019092919080519060200190929190805190602001909291905050508560000186602001876040018860600189608001858152508581525085815250858152508581525050505050506000610d65633b9aca008360800151611f8190919063ffffffff16565b9050610d7c60015482611f8190919063ffffffff16565b92505050919050565b610d8d611769565b610dff576040517f08c379a00000000000000000000000000000000000000000000000000000000081526004018080602001828103825260208152602001807f4f776e61626c653a2063616c6c6572206973206e6f7420746865206f776e657281525060200191505060405180910390fd5b81610e0981611ee3565b610e7b576040517f08c379a00000000000000000000000000000000000000000000000000000000081526004018080602001828103825260138152602001807f546f6b656e206e6f7420737570706f727465640000000000000000000000000081525060200191505060405180910390fd5b60008390506000600360008673ffffffffffffffffffffffffffffffffffffffff1673ffffffffffffffffffffffffffffffffffffffff16815260200190815260200160002060009054906101000a900473ffffffffffffffffffffffffffffffffffffffff1690506000819050848373ffffffffffffffffffffffffffffffffffffffff1663dd62ed3e33306040518363ffffffff1660e01b8152600401808373ffffffffffffffffffffffffffffffffffffffff1673ffffffffffffffffffffffffffffffffffffffff1681526020018273ffffffffffffffffffffffffffffffffffffffff1673ffffffffffffffffffffffffffffffffffffffff1681526020019250505060206040518083038186803b158015610f9b57600080fd5b505afa158015610faf573d6000803e3d6000fd5b505050506040513d6020811015610fc557600080fd5b8101908080519060200190929190505050101561102d576040517f08c379a000000000000000000000000000000000000000000000000000000000815260040180806020018281038252602b81526020018061236e602b913960400191505060405180910390fd5b8273ffffffffffffffffffffffffffffffffffffffff166323b872dd3330886040518463ffffffff1660e01b8152600401808473ffffffffffffffffffffffffffffffffffffffff1673ffffffffffffffffffffffffffffffffffffffff1681526020018373ffffffffffffffffffffffffffffffffffffffff1673ffffffffffffffffffffffffffffffffffffffff1681526020018281526020019350505050602060405180830381600087803b1580156110e857600080fd5b505af11580156110fc573d6000803e3d6000fd5b505050506040513d602081101561111257600080fd5b8101908080519060200190929190505050508273ffffffffffffffffffffffffffffffffffffffff1663095ea7b3600260009054906101000a900473ffffffffffffffffffffffffffffffffffffffff1673ffffffffffffffffffffffffffffffffffffffff1663ed6ff7606040518163ffffffff1660e01b815260040160206040518083038186803b1580156111a857600080fd5b505afa1580156111bc573d6000803e3d6000fd5b505050506040513d60208110156111d257600080fd5b81019080805190602001909291905050507fffffffffffffffffffffffffffffffffffffffffffffffffffffffffffffffff6040518363ffffffff1660e01b8152600401808373ffffffffffffffffffffffffffffffffffffffff1673ffffffffffffffffffffffffffffffffffffffff16815260200182815260200192505050602060405180830381600087803b15801561126d57600080fd5b505af1158015611281573d6000803e3d6000fd5b505050506040513d602081101561129757600080fd5b810190808051906020019092919050505050600260009054906101000a900473ffffffffffffffffffffffffffffffffffffffff1673ffffffffffffffffffffffffffffffffffffffff16630261bf8b6040518163ffffffff1660e01b815260040160206040518083038186803b15801561131157600080fd5b505afa158015611325573d6000803e3d6000fd5b505050506040513d602081101561133b57600080fd5b810190808051906020019092919050505073ffffffffffffffffffffffffffffffffffffffff1663d2d0e066878760006040518463ffffffff1660e01b8152600401808473ffffffffffffffffffffffffffffffffffffffff1673ffffffffffffffffffffffffffffffffffffffff1681526020018381526020018261ffff1681526020019350505050600060405180830381600087803b1580156113df57600080fd5b505af11580156113f3573d6000803e3d6000fd5b505050507f9dbb0e7dda3e09710ce75b801addc87cf9d9c6c581641b3275fca409ad086c62868273ffffffffffffffffffffffffffffffffffffffff1663b32d4610886040518263ffffffff1660e01b81526004018082815260200191505060206040518083038186803b15801561146a57600080fd5b505afa15801561147e573d6000803e3d6000fd5b505050506040513d602081101561149457600080fd5b810190808051906020019092919050505087604051808473ffffffffffffffffffffffffffffffffffffffff1673ffffffffffffffffffffffffffffffffffffffff168152602001838152602001828152602001935050505060405180910390a1505050505050565b6115078282612010565b5050565b611513611769565b611585576040517f08c379a00000000000000000000000000000000000000000000000000000000081526004018080602001828103825260208152602001807f4f776e61626c653a2063616c6c6572206973206e6f7420746865206f776e657281525060200191505060405180910390fd5b600073ffffffffffffffffffffffffffffffffffffffff166000809054906101000a900473ffffffffffffffffffffffffffffffffffffffff1673ffffffffffffffffffffffffffffffffffffffff167f8be0079c531659141344cd1fd0a4f28419497f9722a3daafe3b4186f6b6457e060405160405180910390a360008060006101000a81548173ffffffffffffffffffffffffffffffffffffffff021916908373ffffffffffffffffffffffffffffffffffffffff160217905550565b61164c611769565b6116be576040517f08c379a00000000000000000000000000000000000000000000000000000000081526004018080602001828103825260208152602001807f4f776e61626c653a2063616c6c6572206973206e6f7420746865206f776e657281525060200191505060405180910390fd5b80600360008473ffffffffffffffffffffffffffffffffffffffff1673ffffffffffffffffffffffffffffffffffffffff16815260200190815260200160002060006101000a81548173ffffffffffffffffffffffffffffffffffffffff021916908373ffffffffffffffffffffffffffffffffffffffff1602179055505050565b60008060009054906101000a900473ffffffffffffffffffffffffffffffffffffffff16905090565b60008060009054906101000a900473ffffffffffffffffffffffffffffffffffffffff1673ffffffffffffffffffffffffffffffffffffffff163373ffffffffffffffffffffffffffffffffffffffff1614905090565b60015481565b60036020528060005260406000206000915054906101000a900473ffffffffffffffffffffffffffffffffffffffff1681565b611801611769565b611873576040517f08c379a00000000000000000000000000000000000000000000000000000000081526004018080602001828103825260208152602001807f4f776e61626c653a2063616c6c6572206973206e6f7420746865206f776e657281525060200191505060405180910390fd5b8261187d81611ee3565b6118ef576040517f08c379a00000000000000000000000000000000000000000000000000000000081526004018080602001828103825260138152602001807f546f6b656e206e6f7420737570706f727465640000000000000000000000000081525060200191505060405180910390fd5b60008490506000600360008773ffffffffffffffffffffffffffffffffffffffff1673ffffffffffffffffffffffffffffffffffffffff16815260200190815260200160002060009054906101000a900473ffffffffffffffffffffffffffffffffffffffff169050600081905060008173ffffffffffffffffffffffffffffffffffffffff1663b32d4610876040518263ffffffff1660e01b81526004018082815260200191505060206040518083038186803b1580156119b057600080fd5b505afa1580156119c4573d6000803e3d6000fd5b505050506040513d60208110156119da57600080fd5b810190808051906020019092919050505090508173ffffffffffffffffffffffffffffffffffffffff1663db006a75826040518263ffffffff1660e01b815260040180828152602001915050600060405180830381600087803b158015611a4057600080fd5b505af1158015611a54573d6000803e3d6000fd5b5050505060008473ffffffffffffffffffffffffffffffffffffffff166370a08231306040518263ffffffff1660e01b8152600401808273ffffffffffffffffffffffffffffffffffffffff1673ffffffffffffffffffffffffffffffffffffffff16815260200191505060206040518083038186803b158015611ad757600080fd5b505afa158015611aeb573d6000803e3d6000fd5b505050506040513d6020811015611b0157600080fd5b8101908080519060200190929190505050905086811115611b6d576040517f08c379a000000000000000000000000000000000000000000000000000000000815260040180806020018281038252603d815260200180612399603d913960400191505060405180910390fd5b8473ffffffffffffffffffffffffffffffffffffffff1663a9059cbb89836040518363ffffffff1660e01b8152600401808373ffffffffffffffffffffffffffffffffffffffff1673ffffffffffffffffffffffffffffffffffffffff16815260200182815260200192505050602060405180830381600087803b158015611bf457600080fd5b505af1158015611c08573d6000803e3d6000fd5b505050506040513d6020811015611c1e57600080fd5b8101908080519060200190929190505050507fda9a10d7b992511ddadbfc7ff712c1424ce2058bbcdac8c9876d6f8de590d43f898383604051808473ffffffffffffffffffffffffffffffffffffffff1673ffffffffffffffffffffffffffffffffffffffff168152602001838152602001828152602001935050505060405180910390a1505050505050505050565b611cb6611769565b611d28576040517f08c379a00000000000000000000000000000000000000000000000000000000081526004018080602001828103825260208152602001807f4f776e61626c653a2063616c6c6572206973206e6f7420746865206f776e657281525060200191505060405180910390fd5b8060018190555050565b600080600360008473ffffffffffffffffffffffffffffffffffffffff1673ffffffffffffffffffffffffffffffffffffffff16815260200190815260200160002060009054906101000a900473ffffffffffffffffffffffffffffffffffffffff16905060008190508073ffffffffffffffffffffffffffffffffffffffff16633af9e669306040518263ffffffff1660e01b8152600401808273ffffffffffffffffffffffffffffffffffffffff1673ffffffffffffffffffffffffffffffffffffffff16815260200191505060206040518083038186803b158015611e1957600080fd5b505afa158015611e2d573d6000803e3d6000fd5b505050506040513d6020811015611e4357600080fd5b810190808051906020019092919050505092505050919050565b611e65611769565b611ed7576040517f08c379a00000000000000000000000000000000000000000000000000000000081526004018080602001828103825260208152602001807f4f776e61626c653a2063616c6c6572206973206e6f7420746865206f776e657281525060200191505060405180910390fd5b611ee0816121d4565b50565b600080600360008473ffffffffffffffffffffffffffffffffffffffff1673ffffffffffffffffffffffffffffffffffffffff16815260200190815260200160002060009054906101000a900473ffffffffffffffffffffffffffffffffffffffff169050600073ffffffffffffffffffffffffffffffffffffffff168173ffffffffffffffffffffffffffffffffffffffff161415915050919050565b6000808211611ff8576040517f08c379a000000000000000000000000000000000000000000000000000000000815260040180806020018281038252601a8152602001807f536166654d6174683a206469766973696f6e206279207a65726f00000000000081525060200191505060405180910390fd5b600082848161200357fe5b0490508091505092915050565b600073ffffffffffffffffffffffffffffffffffffffff168173ffffffffffffffffffffffffffffffffffffffff16141561204a57600080fd5b600082905060008173ffffffffffffffffffffffffffffffffffffffff166370a08231306040518263ffffffff1660e01b8152600401808273ffffffffffffffffffffffffffffffffffffffff1673ffffffffffffffffffffffffffffffffffffffff16815260200191505060206040518083038186803b1580156120ce57600080fd5b505afa1580156120e2573d6000803e3d6000fd5b505050506040513d60208110156120f857600080fd5b810190808051906020019092919050505090508173ffffffffffffffffffffffffffffffffffffffff1663a9059cbb84836040518363ffffffff1660e01b8152600401808373ffffffffffffffffffffffffffffffffffffffff1673ffffffffffffffffffffffffffffffffffffffff16815260200182815260200192505050602060405180830381600087803b15801561219257600080fd5b505af11580156121a6573d6000803e3d6000fd5b505050506040513d60208110156121bc57600080fd5b81019080805190602001909291905050505050505050565b600073ffffffffffffffffffffffffffffffffffffffff168173ffffffffffffffffffffffffffffffffffffffff16141561225a576040517f08c379a00000000000000000000000000000000000000000000000000000000081526004018080602001828103825260268152602001806123486026913960400191505060405180910390fd5b8073ffffffffffffffffffffffffffffffffffffffff166000809054906101000a900473ffffffffffffffffffffffffffffffffffffffff1673ffffffffffffffffffffffffffffffffffffffff167f8be0079c531659141344cd1fd0a4f28419497f9722a3daafe3b4186f6b6457e060405160405180910390a3806000806101000a81548173ffffffffffffffffffffffffffffffffffffffff021916908373ffffffffffffffffffffffffffffffffffffffff16021790555050565b6040518060a001604052806000815260200160008152602001600081526020016000815260200160008152509056fe4f776e61626c653a206e6577206f776e657220697320746865207a65726f206164647265737341617665416461707465722e6465706f7369743a20496e73756666696369656e7420616c6c6f77616e636541617665416461707465722e77697468647261773a2054686572652077617320616e206572726f722072656465656d696e67207468652061546f6b656ea165627a7a723058200123f55cecede8441a792becaf87004567d4c292b2ca256b2f069635081858d90029",
  "source": "pragma solidity 0.5.8;\n\nimport \"openzeppelin-solidity/contracts/math/SafeMath.sol\";\nimport \"openzeppelin-solidity/contracts/ownership/Ownable.sol\";\nimport \"openzeppelin-solidity/contracts/token/ERC20/IERC20.sol\";\n\nimport \"./Claimable.sol\";\nimport \"./IMoneyMarketAdapter.sol\";\n\ncontract LendingPoolAddressProvider {\n  function getLendingPool() public view returns (address);\n  function getLendingPoolCore() public view returns (address payable);\n}\n\ncontract LendingPool {\n  struct ReserveData {\n    uint256 totalLiquidity;\n    uint256 availableLiquidity;\n    uint256 totalBorrowsFixed;\n    uint256 totalBorrowsVariable;\n    uint256 liquidityRate;\n    // uint256 variableBorrowRate;\n    // uint256 fixedBorrowRate;\n    // uint256 averageFixedBorrowRate;\n    // uint256 utilizationRate;\n    // uint256 liquidityIndex;\n    // uint256 variableBorrowIndex;\n    // address aTokenAddress;\n    // uint40 lastUpdateTimestamp;\n  }\n  function deposit(address _reserve, uint256 _amount, uint16 _referralCode) external payable;\n  function getReserveData(address _reserve)\n    external\n    view\n    returns (\n      uint256 totalLiquidity,\n      uint256 availableLiquidity,\n      uint256 totalBorrowsFixed,\n      uint256 totalBorrowsVariable,\n      uint256 liquidityRate\n      // uint256 variableBorrowRate,\n      // uint256 fixedBorrowRate,\n      // uint256 averageFixedBorrowRate,\n      // uint256 utilizationRate,\n      // uint256 liquidityIndex,\n      // uint256 variableBorrowIndex,\n      // address aTokenAddress,\n      // uint40 lastUpdateTimestamp\n    );\n}\n\ncontract AToken is IERC20 {\n  function redeem(uint256 _amount) external;\n  function balanceOfUnderlying(address _user) public view returns (uint256);\n  function underlyingAmountToATokenAmount(uint256 _amount) public view returns (uint256);\n}\n\ncontract AaveAdapter is IMoneyMarketAdapter, Ownable, Claimable {\n  using SafeMath for uint256;\n\n  uint256 public blocksPerYear = 2102666;\n\n  LendingPoolAddressProvider aaveProvider;\n\n  // map a token address to an aToken address\n  mapping(address => address) public tokenToAToken;\n\n  event LogDeposit(\n    address tokenAddress,\n    uint256 aTokenAmount,\n    uint256 tokenAmount\n  );\n  event LogWithdraw(\n    address tokenAddress,\n    uint256 aTokenAmount,\n    uint256 tokenPaid\n  );\n\n  modifier checkTokenSupported(address tokenAddress) {\n    require(_supportsToken(tokenAddress), \"Token not supported\");\n    _;\n  }\n\n  constructor(address provider) public {\n    // Set the aave lending pool address provider\n    aaveProvider = LendingPoolAddressProvider(provider);\n\n    require(\n      aaveProvider.getLendingPool() != address(0),\n      \"Aave.LendingPool is invalid\"\n    );\n  }\n\n  function mapTokenToAToken(address tokenAddress, address aTokenAddress)\n    external\n    onlyOwner\n  {\n    tokenToAToken[tokenAddress] = aTokenAddress;\n  }\n\n  /**\n    * @dev Returns the interest rate per block for the given token.\n    */\n  function getRate(address tokenAddress)\n    external\n    view\n    returns (uint256)\n  {\n    LendingPool.ReserveData memory data;\n    (\n      data.totalLiquidity,\n      data.availableLiquidity,\n      data.totalBorrowsFixed,\n      data.totalBorrowsVariable,\n      data.liquidityRate\n      // data.variableBorrowRate,\n      // data.fixedBorrowRate,\n      // data.averageFixedBorrowRate,\n      // data.utilizationRate,\n      // data.liquidityIndex,\n      // data.variableBorrowIndex,\n      // data.aTokenAddress,\n      // data.lastUpdateTimestamp\n    ) = LendingPool(aaveProvider.getLendingPool()).getReserveData(tokenAddress);\n\n    uint256 iApr = data.liquidityRate.div(1e9);\n\n    // Convert to interest rate per block, assuming 2102666 blocks per year\n    return iApr.div(blocksPerYear);\n  }\n\n  /**\n    * @dev Deposits the given amount of tokens in the underlying money market.\n    */\n  function deposit(address tokenAddress, uint256 tokenAmount)\n    external\n    onlyOwner\n    checkTokenSupported(tokenAddress)\n  {\n    // get aToken\n    IERC20 token = IERC20(tokenAddress);\n    address aTokenAddress = tokenToAToken[tokenAddress];\n    AToken aToken = AToken(aTokenAddress);\n\n    // transfer tokens from MMM\n    require(\n      token.allowance(msg.sender, address(this)) >= tokenAmount,\n      \"AaveAdapter.deposit: Insufficient allowance\"\n    );\n    token.transferFrom(msg.sender, address(this), tokenAmount);\n\n    token.approve(aaveProvider.getLendingPoolCore(), uint256(-1));\n\n    // uint256 previousBalance = aToken.balanceOfUnderlying(address(this));\n\n    LendingPool(aaveProvider.getLendingPool()).deposit(tokenAddress, tokenAmount, 0);\n\n    // uint256 currentBalance = aToken.balanceOfUnderlying(address(this));\n\n    // require(\n    //   currentBalance - previousBalance == tokenAmount,\n    //   \"AaveAdapter.deposit: There was an error minting the aToken\"\n    // );\n\n    emit LogDeposit(tokenAddress, aToken.underlyingAmountToATokenAmount(tokenAmount), tokenAmount);\n  }\n\n  function withdraw(\n    address tokenAddress,\n    address recipient,\n    uint256 tokenAmount\n  ) external onlyOwner checkTokenSupported(tokenAddress) {\n    IERC20 token = IERC20(tokenAddress);\n    address aTokenAddress = tokenToAToken[tokenAddress];\n    AToken aToken = AToken(aTokenAddress);\n\n    uint256 aTokenAmount = aToken.underlyingAmountToATokenAmount(tokenAmount);\n\n    aToken.redeem(aTokenAmount);\n\n    uint256 redeemAmount = token.balanceOf(address(this));\n\n    require(\n      redeemAmount <= tokenAmount,\n      \"AaveAdapter.withdraw: There was an error redeeming the aToken\"\n    );\n    token.transfer(recipient, redeemAmount);\n\n    emit LogWithdraw(tokenAddress, aTokenAmount, redeemAmount);\n  }\n\n  function withdrawAll(address tokenAddress, address recipient)\n    external\n    onlyOwner\n    checkTokenSupported(tokenAddress)\n  {\n    IERC20 token = IERC20(tokenAddress);\n    address aTokenAddress = tokenToAToken[tokenAddress];\n    AToken aToken = AToken(aTokenAddress);\n\n    uint256 aTokenAmount = aToken.balanceOf(address(this));\n    aToken.redeem(aTokenAmount);\n\n    uint256 redeemAmount = token.balanceOf(address(this));\n\n    require(\n      redeemAmount >= 0,\n      \"AaveAdapter.withdraw: There was an error redeeming the aToken\"\n    );\n    token.transfer(recipient, redeemAmount);\n\n    emit LogWithdraw(tokenAddress, aTokenAmount, redeemAmount);\n  }\n\n  function claimTokens(address tokenAddress, address recipient) external {\n    _claimTokens(tokenAddress, recipient);\n  }\n\n  /**\n    * @dev Returns the supply for the given token, including accrued interest. This function can have side effects.\n    */\n  function getSupply(address tokenAddress) external returns (uint256) {\n    return this.getSupplyView(tokenAddress);\n  }\n\n  /**\n    * @dev Returns the supply for the given token; it might not include accrued interest. This function *cannot* have side effects.\n    */\n  function getSupplyView(address tokenAddress) external view returns (uint256) {\n    address aTokenAddress = tokenToAToken[tokenAddress];\n    AToken aToken = AToken(aTokenAddress);\n\n    return aToken.balanceOfUnderlying(address(this));\n  }\n\n  function setBlocksPerYear(uint256 blocks)\n    external\n    onlyOwner\n  {\n    blocksPerYear = blocks;\n  }\n\n  /**\n    * @dev Indicates if the adapter supports the token with the given address.\n    */\n  function supportsToken(address tokenAddress) external view returns (bool) {\n    return _supportsToken(tokenAddress);\n  }\n\n  function _supportsToken(address tokenAddress) internal view returns (bool) {\n    address aTokenAddress = tokenToAToken[tokenAddress];\n\n    return aTokenAddress != address(0);\n  }\n}\n",
  "sourcePath": "/Users/max/Projects/dfos/MetaMoneyMarket/blockchain/contracts/AaveAdapter.sol",
  "compiler": {
    "name": "solc",
    "version": "0.5.8+commit.23d335f2.Emscripten.clang"
  },
  "schemaVersion": "3.0.11",
  "updatedAt": "2019-11-08T20:33:08.954Z",
  "devdoc": {
    "methods": {
      "deposit(address,uint256)": {
        "details": "Deposits the given amount of tokens in the underlying money market."
      },
      "getRate(address)": {
        "details": "Returns the interest rate per block for the given token."
      },
      "getSupply(address)": {
        "details": "Returns the supply for the given token, including accrued interest. This function can have side effects."
      },
      "getSupplyView(address)": {
        "details": "Returns the supply for the given token; it might not include accrued interest. This function *cannot* have side effects."
      },
      "isOwner()": {
        "details": "Returns true if the caller is the current owner."
      },
      "owner()": {
        "details": "Returns the address of the current owner."
      },
      "renounceOwnership()": {
        "details": "Leaves the contract without owner. It will not be possible to call `onlyOwner` functions anymore. Can only be called by the current owner.     * > Note: Renouncing ownership will leave the contract without an owner, thereby removing any functionality that is only available to the owner."
      },
      "supportsToken(address)": {
        "details": "Indicates if the adapter supports the token with the given address."
      },
      "transferOwnership(address)": {
        "details": "Transfers ownership of the contract to a new account (`newOwner`). Can only be called by the current owner."
      }
    }
  },
  "userdoc": {
    "methods": {}
  }
}