{
  "contractName": "CompoundAdapter",
  "abi": [
    {
      "constant": true,
      "inputs": [
        {
          "name": "",
          "type": "address"
        }
      ],
      "name": "tokenToCToken",
      "outputs": [
        {
          "name": "",
          "type": "address"
        }
      ],
      "payable": false,
      "stateMutability": "view",
      "type": "function"
    },
    {
      "constant": false,
      "inputs": [],
      "name": "renounceOwnership",
      "outputs": [],
      "payable": false,
      "stateMutability": "nonpayable",
      "type": "function"
    },
    {
      "constant": true,
      "inputs": [],
      "name": "owner",
      "outputs": [
        {
          "name": "",
          "type": "address"
        }
      ],
      "payable": false,
      "stateMutability": "view",
      "type": "function"
    },
    {
      "constant": true,
      "inputs": [],
      "name": "isOwner",
      "outputs": [
        {
          "name": "",
          "type": "bool"
        }
      ],
      "payable": false,
      "stateMutability": "view",
      "type": "function"
    },
    {
      "constant": false,
      "inputs": [
        {
          "name": "newOwner",
          "type": "address"
        }
      ],
      "name": "transferOwnership",
      "outputs": [],
      "payable": false,
      "stateMutability": "nonpayable",
      "type": "function"
    },
    {
      "anonymous": false,
      "inputs": [
        {
          "indexed": true,
          "name": "previousOwner",
          "type": "address"
        },
        {
          "indexed": true,
          "name": "newOwner",
          "type": "address"
        }
      ],
      "name": "OwnershipTransferred",
      "type": "event"
    },
    {
      "constant": false,
      "inputs": [
        {
          "name": "tokenAddress",
          "type": "address"
        },
        {
          "name": "cTokenAddress",
          "type": "address"
        }
      ],
      "name": "mapTokenToCToken",
      "outputs": [],
      "payable": false,
      "stateMutability": "nonpayable",
      "type": "function"
    },
    {
      "constant": true,
      "inputs": [
        {
          "name": "tokenAddress",
          "type": "address"
        }
      ],
      "name": "getRate",
      "outputs": [
        {
          "name": "",
          "type": "uint256"
        }
      ],
      "payable": false,
      "stateMutability": "view",
      "type": "function"
    },
    {
      "constant": false,
      "inputs": [
        {
          "name": "tokenAddress",
          "type": "address"
        },
        {
          "name": "tokenAmount",
          "type": "uint256"
        }
      ],
      "name": "deposit",
      "outputs": [],
      "payable": false,
      "stateMutability": "nonpayable",
      "type": "function"
    },
    {
      "constant": false,
      "inputs": [
        {
          "name": "tokenAddress",
          "type": "address"
        },
        {
          "name": "recipient",
          "type": "address"
        },
        {
          "name": "tokenAmount",
          "type": "uint256"
        }
      ],
      "name": "withdraw",
      "outputs": [],
      "payable": false,
      "stateMutability": "nonpayable",
      "type": "function"
    },
    {
      "constant": false,
      "inputs": [
        {
          "name": "tokenAddress",
          "type": "address"
        }
      ],
      "name": "getSupply",
      "outputs": [
        {
          "name": "",
          "type": "uint256"
        }
      ],
      "payable": false,
      "stateMutability": "nonpayable",
      "type": "function"
    },
    {
      "constant": true,
      "inputs": [
        {
          "name": "tokenAddress",
          "type": "address"
        }
      ],
      "name": "getSupplyView",
      "outputs": [
        {
          "name": "",
          "type": "uint256"
        }
      ],
      "payable": false,
      "stateMutability": "view",
      "type": "function"
    }
  ],
  "bytecode": "0x6080604052336000806101000a81548173ffffffffffffffffffffffffffffffffffffffff021916908373ffffffffffffffffffffffffffffffffffffffff1602179055506000809054906101000a900473ffffffffffffffffffffffffffffffffffffffff1673ffffffffffffffffffffffffffffffffffffffff16600073ffffffffffffffffffffffffffffffffffffffff167f8be0079c531659141344cd1fd0a4f28419497f9722a3daafe3b4186f6b6457e060405160405180910390a36116c3806100cf6000396000f3fe608060405234801561001057600080fd5b50600436106100a95760003560e01c80638da5cb5b116100715780638da5cb5b1461023a5780638f32d59b14610284578063d9caed12146102a6578063ec7b6fd814610314578063ed8a1e5414610378578063f2fde38b146103d0576100a9565b80631fd433aa146100ae57806325888f0b1461010657806337cef7911461018a57806347e7ef24146101e2578063715018a614610230575b600080fd5b6100f0600480360360208110156100c457600080fd5b81019080803573ffffffffffffffffffffffffffffffffffffffff169060200190929190505050610414565b6040518082815260200191505060405180910390f35b6101486004803603602081101561011c57600080fd5b81019080803573ffffffffffffffffffffffffffffffffffffffff169060200190929190505050610541565b604051808273ffffffffffffffffffffffffffffffffffffffff1673ffffffffffffffffffffffffffffffffffffffff16815260200191505060405180910390f35b6101cc600480360360208110156101a057600080fd5b81019080803573ffffffffffffffffffffffffffffffffffffffff169060200190929190505050610574565b6040518082815260200191505060405180910390f35b61022e600480360360408110156101f857600080fd5b81019080803573ffffffffffffffffffffffffffffffffffffffff16906020019092919080359060200190929190505050610668565b005b610238610be7565b005b610242610d20565b604051808273ffffffffffffffffffffffffffffffffffffffff1673ffffffffffffffffffffffffffffffffffffffff16815260200191505060405180910390f35b61028c610d49565b604051808215151515815260200191505060405180910390f35b610312600480360360608110156102bc57600080fd5b81019080803573ffffffffffffffffffffffffffffffffffffffff169060200190929190803573ffffffffffffffffffffffffffffffffffffffff16906020019092919080359060200190929190505050610da0565b005b6103766004803603604081101561032a57600080fd5b81019080803573ffffffffffffffffffffffffffffffffffffffff169060200190929190803573ffffffffffffffffffffffffffffffffffffffff1690602001909291905050506110c5565b005b6103ba6004803603602081101561038e57600080fd5b81019080803573ffffffffffffffffffffffffffffffffffffffff1690602001909291905050506111c1565b6040518082815260200191505060405180910390f35b610412600480360360208110156103e657600080fd5b81019080803573ffffffffffffffffffffffffffffffffffffffff16906020019092919050505061137a565b005b600080600160008473ffffffffffffffffffffffffffffffffffffffff1673ffffffffffffffffffffffffffffffffffffffff16815260200190815260200160002060009054906101000a900473ffffffffffffffffffffffffffffffffffffffff16905060008190508073ffffffffffffffffffffffffffffffffffffffff16633af9e669306040518263ffffffff1660e01b8152600401808273ffffffffffffffffffffffffffffffffffffffff1673ffffffffffffffffffffffffffffffffffffffff168152602001915050602060405180830381600087803b1580156104fd57600080fd5b505af1158015610511573d6000803e3d6000fd5b505050506040513d602081101561052757600080fd5b810190808051906020019092919050505092505050919050565b60016020528060005260406000206000915054906101000a900473ffffffffffffffffffffffffffffffffffffffff1681565b600080600160008473ffffffffffffffffffffffffffffffffffffffff1673ffffffffffffffffffffffffffffffffffffffff16815260200190815260200160002060009054906101000a900473ffffffffffffffffffffffffffffffffffffffff16905060008190508073ffffffffffffffffffffffffffffffffffffffff1663ae9d70b06040518163ffffffff1660e01b815260040160206040518083038186803b15801561062457600080fd5b505afa158015610638573d6000803e3d6000fd5b505050506040513d602081101561064e57600080fd5b810190808051906020019092919050505092505050919050565b610670610d49565b6106e2576040517f08c379a00000000000000000000000000000000000000000000000000000000081526004018080602001828103825260208152602001807f4f776e61626c653a2063616c6c6572206973206e6f7420746865206f776e657281525060200191505060405180910390fd5b60008290506000600160008573ffffffffffffffffffffffffffffffffffffffff1673ffffffffffffffffffffffffffffffffffffffff16815260200190815260200160002060009054906101000a900473ffffffffffffffffffffffffffffffffffffffff169050600073ffffffffffffffffffffffffffffffffffffffff168173ffffffffffffffffffffffffffffffffffffffff1614156107d1576040517f08c379a000000000000000000000000000000000000000000000000000000000815260040180806020018281038252603f8152602001806115ac603f913960400191505060405180910390fd5b6000819050838373ffffffffffffffffffffffffffffffffffffffff1663dd62ed3e33306040518363ffffffff1660e01b8152600401808373ffffffffffffffffffffffffffffffffffffffff1673ffffffffffffffffffffffffffffffffffffffff1681526020018273ffffffffffffffffffffffffffffffffffffffff1673ffffffffffffffffffffffffffffffffffffffff1681526020019250505060206040518083038186803b15801561088857600080fd5b505afa15801561089c573d6000803e3d6000fd5b505050506040513d60208110156108b257600080fd5b8101908080519060200190929190505050101561091a576040517f08c379a000000000000000000000000000000000000000000000000000000000815260040180806020018281038252602f8152602001806115eb602f913960400191505060405180910390fd5b8273ffffffffffffffffffffffffffffffffffffffff166323b872dd3330876040518463ffffffff1660e01b8152600401808473ffffffffffffffffffffffffffffffffffffffff1673ffffffffffffffffffffffffffffffffffffffff1681526020018373ffffffffffffffffffffffffffffffffffffffff1673ffffffffffffffffffffffffffffffffffffffff1681526020018281526020019350505050602060405180830381600087803b1580156109d557600080fd5b505af11580156109e9573d6000803e3d6000fd5b505050506040513d60208110156109ff57600080fd5b8101908080519060200190929190505050508273ffffffffffffffffffffffffffffffffffffffff1663095ea7b3837fffffffffffffffffffffffffffffffffffffffffffffffffffffffffffffffff6040518363ffffffff1660e01b8152600401808373ffffffffffffffffffffffffffffffffffffffff1673ffffffffffffffffffffffffffffffffffffffff16815260200182815260200192505050602060405180830381600087803b158015610ab857600080fd5b505af1158015610acc573d6000803e3d6000fd5b505050506040513d6020811015610ae257600080fd5b81019080805190602001909291905050505060008173ffffffffffffffffffffffffffffffffffffffff1663a0712d68866040518263ffffffff1660e01b815260040180828152602001915050602060405180830381600087803b158015610b4957600080fd5b505af1158015610b5d573d6000803e3d6000fd5b505050506040513d6020811015610b7357600080fd5b8101908080519060200190929190505050905060008114610bdf576040517f08c379a000000000000000000000000000000000000000000000000000000000815260040180806020018281038252603e81526020018061161a603e913960400191505060405180910390fd5b505050505050565b610bef610d49565b610c61576040517f08c379a00000000000000000000000000000000000000000000000000000000081526004018080602001828103825260208152602001807f4f776e61626c653a2063616c6c6572206973206e6f7420746865206f776e657281525060200191505060405180910390fd5b600073ffffffffffffffffffffffffffffffffffffffff166000809054906101000a900473ffffffffffffffffffffffffffffffffffffffff1673ffffffffffffffffffffffffffffffffffffffff167f8be0079c531659141344cd1fd0a4f28419497f9722a3daafe3b4186f6b6457e060405160405180910390a360008060006101000a81548173ffffffffffffffffffffffffffffffffffffffff021916908373ffffffffffffffffffffffffffffffffffffffff160217905550565b60008060009054906101000a900473ffffffffffffffffffffffffffffffffffffffff16905090565b60008060009054906101000a900473ffffffffffffffffffffffffffffffffffffffff1673ffffffffffffffffffffffffffffffffffffffff163373ffffffffffffffffffffffffffffffffffffffff1614905090565b610da8610d49565b610e1a576040517f08c379a00000000000000000000000000000000000000000000000000000000081526004018080602001828103825260208152602001807f4f776e61626c653a2063616c6c6572206973206e6f7420746865206f776e657281525060200191505060405180910390fd5b60008390506000600160008673ffffffffffffffffffffffffffffffffffffffff1673ffffffffffffffffffffffffffffffffffffffff16815260200190815260200160002060009054906101000a900473ffffffffffffffffffffffffffffffffffffffff169050600073ffffffffffffffffffffffffffffffffffffffff168173ffffffffffffffffffffffffffffffffffffffff161415610f09576040517f08c379a00000000000000000000000000000000000000000000000000000000081526004018080602001828103825260408152602001806116586040913960400191505060405180910390fd5b600081905060008173ffffffffffffffffffffffffffffffffffffffff1663852a12e3866040518263ffffffff1660e01b815260040180828152602001915050602060405180830381600087803b158015610f6357600080fd5b505af1158015610f77573d6000803e3d6000fd5b505050506040513d6020811015610f8d57600080fd5b8101908080519060200190929190505050905060008114610ff9576040517f08c379a000000000000000000000000000000000000000000000000000000000815260040180806020018281038252604181526020018061156b6041913960600191505060405180910390fd5b8373ffffffffffffffffffffffffffffffffffffffff1663a9059cbb87876040518363ffffffff1660e01b8152600401808373ffffffffffffffffffffffffffffffffffffffff1673ffffffffffffffffffffffffffffffffffffffff16815260200182815260200192505050602060405180830381600087803b15801561108057600080fd5b505af1158015611094573d6000803e3d6000fd5b505050506040513d60208110156110aa57600080fd5b81019080805190602001909291905050505050505050505050565b6110cd610d49565b61113f576040517f08c379a00000000000000000000000000000000000000000000000000000000081526004018080602001828103825260208152602001807f4f776e61626c653a2063616c6c6572206973206e6f7420746865206f776e657281525060200191505060405180910390fd5b80600160008473ffffffffffffffffffffffffffffffffffffffff1673ffffffffffffffffffffffffffffffffffffffff16815260200190815260200160002060006101000a81548173ffffffffffffffffffffffffffffffffffffffff021916908373ffffffffffffffffffffffffffffffffffffffff1602179055505050565b600080600160008473ffffffffffffffffffffffffffffffffffffffff1673ffffffffffffffffffffffffffffffffffffffff16815260200190815260200160002060009054906101000a900473ffffffffffffffffffffffffffffffffffffffff169050600081905060008173ffffffffffffffffffffffffffffffffffffffff1663182df0f56040518163ffffffff1660e01b815260040160206040518083038186803b15801561127357600080fd5b505afa158015611287573d6000803e3d6000fd5b505050506040513d602081101561129d57600080fd5b8101908080519060200190929190505050905060008273ffffffffffffffffffffffffffffffffffffffff166370a08231306040518263ffffffff1660e01b8152600401808273ffffffffffffffffffffffffffffffffffffffff1673ffffffffffffffffffffffffffffffffffffffff16815260200191505060206040518083038186803b15801561132f57600080fd5b505afa158015611343573d6000803e3d6000fd5b505050506040513d602081101561135957600080fd5b81019080805190602001909291905050509050818102945050505050919050565b611382610d49565b6113f4576040517f08c379a00000000000000000000000000000000000000000000000000000000081526004018080602001828103825260208152602001807f4f776e61626c653a2063616c6c6572206973206e6f7420746865206f776e657281525060200191505060405180910390fd5b6113fd81611400565b50565b600073ffffffffffffffffffffffffffffffffffffffff168173ffffffffffffffffffffffffffffffffffffffff161415611486576040517f08c379a00000000000000000000000000000000000000000000000000000000081526004018080602001828103825260268152602001806115456026913960400191505060405180910390fd5b8073ffffffffffffffffffffffffffffffffffffffff166000809054906101000a900473ffffffffffffffffffffffffffffffffffffffff1673ffffffffffffffffffffffffffffffffffffffff167f8be0079c531659141344cd1fd0a4f28419497f9722a3daafe3b4186f6b6457e060405160405180910390a3806000806101000a81548173ffffffffffffffffffffffffffffffffffffffff021916908373ffffffffffffffffffffffffffffffffffffffff1602179055505056fe4f776e61626c653a206e6577206f776e657220697320746865207a65726f2061646472657373436f6d706f756e64416461707465722e77697468647261773a2054686572652077617320616e206572726f722072656465656d696e67207468652063546f6b656e436f6d706f756e64416461707465722e6465706f7369743a20556e6b6e6f776e2063546f6b656e20666f7220676976656e20746f6b656e2061646472657373436f6d706f756e64416461707465722e6465706f7369743a20496e73756666696369656e7420616c6c6f77616e6365436f6d706f756e64416461707465722e6465706f7369743a2054686572652077617320616e206572726f72206d696e74696e67207468652063546f6b656e436f6d706f756e64416461707465722e77697468647261773a20556e6b6e6f776e2063546f6b656e20666f7220676976656e20746f6b656e2061646472657373a165627a7a723058205a8b469fd161119bd692ed9fe18f16b8dce8acd9955028908016bb317bfe27030029",
  "source": "pragma solidity 0.5.8;\n\nimport \"openzeppelin-solidity/contracts/ownership/Ownable.sol\";\nimport \"openzeppelin-solidity/contracts/token/ERC20/IERC20.sol\";\n\nimport \"./IMoneyMarketAdapter.sol\";\n\ncontract CToken is IERC20 {\n  function supplyRatePerBlock() external view returns (uint);\n  function mint(uint mintAmount) external returns (uint);\n  function redeemUnderlying(uint redeemAmount) external returns (uint);\n  function balanceOfUnderlying(address owner) external returns (uint);\n  function exchangeRateStored() public view returns (uint);\n}\n\ncontract CompoundAdapter is IMoneyMarketAdapter, Ownable {\n  // map a token address to a cToken address\n  mapping(address => address) public tokenToCToken;\n\n  function mapTokenToCToken(address tokenAddress, address cTokenAddress)\n    external\n    onlyOwner\n  {\n    tokenToCToken[tokenAddress] = cTokenAddress;\n  }\n\n  function getRate(address tokenAddress) external view returns (uint256) {\n    address cTokenAddress = tokenToCToken[tokenAddress];\n    CToken cToken = CToken(cTokenAddress);\n\n    return cToken.supplyRatePerBlock();\n  }\n\n  function deposit(address tokenAddress, uint256 tokenAmount) external onlyOwner {\n    // get cToken\n    IERC20 token = IERC20(tokenAddress);\n    address cTokenAddress = tokenToCToken[tokenAddress];\n    require(\n      cTokenAddress != address(0),\n      \"CompoundAdapter.deposit: Unknown cToken for given token address\"\n    );\n    CToken cToken = CToken(cTokenAddress);\n\n    // transfer tokens from MMM\n    require(\n      token.allowance(msg.sender, address(this)) >= tokenAmount,\n      \"CompoundAdapter.deposit: Insufficient allowance\"\n    );\n    token.transferFrom(msg.sender, address(this), tokenAmount);\n\n    // mint cTokens\n    token.approve(cTokenAddress, uint256(-1));\n    uint256 result = cToken.mint(tokenAmount);\n    require(\n      result == 0,\n      \"CompoundAdapter.deposit: There was an error minting the cToken\"\n    );\n  }\n\n  function withdraw(address tokenAddress, address recipient, uint256 tokenAmount)\n    external\n    onlyOwner\n  {\n    IERC20 token = IERC20(tokenAddress);\n    address cTokenAddress = tokenToCToken[tokenAddress];\n    require(\n      cTokenAddress != address(0),\n      \"CompoundAdapter.withdraw: Unknown cToken for given token address\"\n    );\n    CToken cToken = CToken(cTokenAddress);\n\n    uint256 result = cToken.redeemUnderlying(tokenAmount);\n    require(\n      result == 0,\n      \"CompoundAdapter.withdraw: There was an error redeeming the cToken\"\n    );\n    token.transfer(recipient, tokenAmount);\n  }\n\n  function getSupply(address tokenAddress) external returns (uint256) {\n    address cTokenAddress = tokenToCToken[tokenAddress];\n    CToken cToken = CToken(cTokenAddress);\n\n    return cToken.balanceOfUnderlying(address(this));\n  }\n\n  function getSupplyView(address tokenAddress) external view returns (uint256) {\n    address cTokenAddress = tokenToCToken[tokenAddress];\n    CToken cToken = CToken(cTokenAddress);\n\n    uint256 exchangeRate = cToken.exchangeRateStored();\n    uint256 balance = cToken.balanceOf(address(this));\n    return balance * exchangeRate;\n  }\n}\n",
  "sourcePath": "/home/fvictorio/repos/sovereign/blockchain/contracts/CompoundAdapter.sol",
  "compiler": {
    "name": "solc",
    "version": "0.5.8+commit.23d335f2.Emscripten.clang"
  },
  "schemaVersion": "3.0.11",
  "updatedAt": "2019-07-05T19:11:20.201Z",
  "devdoc": {
    "methods": {
      "isOwner()": {
        "details": "Returns true if the caller is the current owner."
      },
      "owner()": {
        "details": "Returns the address of the current owner."
      },
      "renounceOwnership()": {
        "details": "Leaves the contract without owner. It will not be possible to call `onlyOwner` functions anymore. Can only be called by the current owner.     * > Note: Renouncing ownership will leave the contract without an owner, thereby removing any functionality that is only available to the owner."
      },
      "transferOwnership(address)": {
        "details": "Transfers ownership of the contract to a new account (`newOwner`). Can only be called by the current owner."
      }
    }
  },
  "userdoc": {
    "methods": {}
  }
}