{
  "contractName": "CompoundAdapter",
  "abi": [
    {
      "constant": true,
      "inputs": [
        {
          "name": "",
          "type": "address"
        }
      ],
      "name": "tokenToCToken",
      "outputs": [
        {
          "name": "",
          "type": "address"
        }
      ],
      "payable": false,
      "stateMutability": "view",
      "type": "function"
    },
    {
      "constant": false,
      "inputs": [],
      "name": "renounceOwnership",
      "outputs": [],
      "payable": false,
      "stateMutability": "nonpayable",
      "type": "function"
    },
    {
      "constant": true,
      "inputs": [],
      "name": "owner",
      "outputs": [
        {
          "name": "",
          "type": "address"
        }
      ],
      "payable": false,
      "stateMutability": "view",
      "type": "function"
    },
    {
      "constant": true,
      "inputs": [],
      "name": "isOwner",
      "outputs": [
        {
          "name": "",
          "type": "bool"
        }
      ],
      "payable": false,
      "stateMutability": "view",
      "type": "function"
    },
    {
      "constant": false,
      "inputs": [
        {
          "name": "newOwner",
          "type": "address"
        }
      ],
      "name": "transferOwnership",
      "outputs": [],
      "payable": false,
      "stateMutability": "nonpayable",
      "type": "function"
    },
    {
      "anonymous": false,
      "inputs": [
        {
          "indexed": true,
          "name": "previousOwner",
          "type": "address"
        },
        {
          "indexed": true,
          "name": "newOwner",
          "type": "address"
        }
      ],
      "name": "OwnershipTransferred",
      "type": "event"
    },
    {
      "constant": false,
      "inputs": [
        {
          "name": "tokenAddress",
          "type": "address"
        },
        {
          "name": "cTokenAddress",
          "type": "address"
        }
      ],
      "name": "mapTokenToCToken",
      "outputs": [],
      "payable": false,
      "stateMutability": "nonpayable",
      "type": "function"
    },
    {
      "constant": true,
      "inputs": [
        {
          "name": "tokenAddress",
          "type": "address"
        }
      ],
      "name": "getRate",
      "outputs": [
        {
          "name": "",
          "type": "uint256"
        }
      ],
      "payable": false,
      "stateMutability": "view",
      "type": "function"
    },
    {
      "constant": false,
      "inputs": [
        {
          "name": "tokenAddress",
          "type": "address"
        },
        {
          "name": "tokenAmount",
          "type": "uint256"
        }
      ],
      "name": "deposit",
      "outputs": [],
      "payable": false,
      "stateMutability": "nonpayable",
      "type": "function"
    },
    {
      "constant": false,
      "inputs": [
        {
          "name": "tokenAddress",
          "type": "address"
        },
        {
          "name": "recipient",
          "type": "address"
        },
        {
          "name": "tokenAmount",
          "type": "uint256"
        }
      ],
      "name": "withdraw",
      "outputs": [],
      "payable": false,
      "stateMutability": "nonpayable",
      "type": "function"
    },
    {
      "constant": false,
      "inputs": [
        {
          "name": "tokenAddress",
          "type": "address"
        },
        {
          "name": "recipient",
          "type": "address"
        }
      ],
      "name": "withdrawAll",
      "outputs": [],
      "payable": false,
      "stateMutability": "nonpayable",
      "type": "function"
    },
    {
      "constant": false,
      "inputs": [
        {
          "name": "tokenAddress",
          "type": "address"
        },
        {
          "name": "recipient",
          "type": "address"
        }
      ],
      "name": "claimTokens",
      "outputs": [],
      "payable": false,
      "stateMutability": "nonpayable",
      "type": "function"
    },
    {
      "constant": false,
      "inputs": [
        {
          "name": "tokenAddress",
          "type": "address"
        }
      ],
      "name": "getSupply",
      "outputs": [
        {
          "name": "",
          "type": "uint256"
        }
      ],
      "payable": false,
      "stateMutability": "nonpayable",
      "type": "function"
    },
    {
      "constant": true,
      "inputs": [
        {
          "name": "tokenAddress",
          "type": "address"
        }
      ],
      "name": "getSupplyView",
      "outputs": [
        {
          "name": "",
          "type": "uint256"
        }
      ],
      "payable": false,
      "stateMutability": "view",
      "type": "function"
    }
  ],
  "bytecode": "0x6080604052336000806101000a81548173ffffffffffffffffffffffffffffffffffffffff021916908373ffffffffffffffffffffffffffffffffffffffff1602179055506000809054906101000a900473ffffffffffffffffffffffffffffffffffffffff1673ffffffffffffffffffffffffffffffffffffffff16600073ffffffffffffffffffffffffffffffffffffffff167f8be0079c531659141344cd1fd0a4f28419497f9722a3daafe3b4186f6b6457e060405160405180910390a3611ea2806100cf6000396000f3fe608060405234801561001057600080fd5b50600436106100cf5760003560e01c8063715018a61161008c578063d9caed1211610066578063d9caed1214610394578063ec7b6fd814610402578063ed8a1e5414610466578063f2fde38b146104be576100cf565b8063715018a61461031e5780638da5cb5b146103285780638f32d59b14610372576100cf565b806309cae2c8146100d45780631fd433aa1461013857806325888f0b1461019057806337cef7911461021457806347e7ef241461026c57806369ffa08a146102ba575b600080fd5b610136600480360360408110156100ea57600080fd5b81019080803573ffffffffffffffffffffffffffffffffffffffff169060200190929190803573ffffffffffffffffffffffffffffffffffffffff169060200190929190505050610502565b005b61017a6004803603602081101561014e57600080fd5b81019080803573ffffffffffffffffffffffffffffffffffffffff169060200190929190505050610996565b6040518082815260200191505060405180910390f35b6101d2600480360360208110156101a657600080fd5b81019080803573ffffffffffffffffffffffffffffffffffffffff169060200190929190505050610ac3565b604051808273ffffffffffffffffffffffffffffffffffffffff1673ffffffffffffffffffffffffffffffffffffffff16815260200191505060405180910390f35b6102566004803603602081101561022a57600080fd5b81019080803573ffffffffffffffffffffffffffffffffffffffff169060200190929190505050610af6565b6040518082815260200191505060405180910390f35b6102b86004803603604081101561028257600080fd5b81019080803573ffffffffffffffffffffffffffffffffffffffff16906020019092919080359060200190929190505050610bea565b005b61031c600480360360408110156102d057600080fd5b81019080803573ffffffffffffffffffffffffffffffffffffffff169060200190929190803573ffffffffffffffffffffffffffffffffffffffff169060200190929190505050611169565b005b6103266111f1565b005b61033061132a565b604051808273ffffffffffffffffffffffffffffffffffffffff1673ffffffffffffffffffffffffffffffffffffffff16815260200191505060405180910390f35b61037a611353565b604051808215151515815260200191505060405180910390f35b610400600480360360608110156103aa57600080fd5b81019080803573ffffffffffffffffffffffffffffffffffffffff169060200190929190803573ffffffffffffffffffffffffffffffffffffffff169060200190929190803590602001909291905050506113aa565b005b6104646004803603604081101561041857600080fd5b81019080803573ffffffffffffffffffffffffffffffffffffffff169060200190929190803573ffffffffffffffffffffffffffffffffffffffff1690602001909291905050506116cf565b005b6104a86004803603602081101561047c57600080fd5b81019080803573ffffffffffffffffffffffffffffffffffffffff1690602001909291905050506117cb565b6040518082815260200191505060405180910390f35b610500600480360360208110156104d457600080fd5b81019080803573ffffffffffffffffffffffffffffffffffffffff169060200190929190505050611995565b005b61050a611353565b61057c576040517f08c379a00000000000000000000000000000000000000000000000000000000081526004018080602001828103825260208152602001807f4f776e61626c653a2063616c6c6572206973206e6f7420746865206f776e657281525060200191505060405180910390fd5b60008290506000600160008573ffffffffffffffffffffffffffffffffffffffff1673ffffffffffffffffffffffffffffffffffffffff16815260200190815260200160002060009054906101000a900473ffffffffffffffffffffffffffffffffffffffff169050600073ffffffffffffffffffffffffffffffffffffffff168173ffffffffffffffffffffffffffffffffffffffff16141561066b576040517f08c379a0000000000000000000000000000000000000000000000000000000008152600401808060200182810382526040815260200180611e376040913960400191505060405180910390fd5b600081905060008173ffffffffffffffffffffffffffffffffffffffff1663852a12e38373ffffffffffffffffffffffffffffffffffffffff16633af9e669306040518263ffffffff1660e01b8152600401808273ffffffffffffffffffffffffffffffffffffffff1673ffffffffffffffffffffffffffffffffffffffff168152602001915050602060405180830381600087803b15801561070d57600080fd5b505af1158015610721573d6000803e3d6000fd5b505050506040513d602081101561073757600080fd5b81019080805190602001909291905050506040518263ffffffff1660e01b815260040180828152602001915050602060405180830381600087803b15801561077e57600080fd5b505af1158015610792573d6000803e3d6000fd5b505050506040513d60208110156107a857600080fd5b8101908080519060200190929190505050905060008114610814576040517f08c379a0000000000000000000000000000000000000000000000000000000008152600401808060200182810382526041815260200180611d4a6041913960600191505060405180910390fd5b8373ffffffffffffffffffffffffffffffffffffffff1663a9059cbb868673ffffffffffffffffffffffffffffffffffffffff166370a08231306040518263ffffffff1660e01b8152600401808273ffffffffffffffffffffffffffffffffffffffff1673ffffffffffffffffffffffffffffffffffffffff16815260200191505060206040518083038186803b1580156108ae57600080fd5b505afa1580156108c2573d6000803e3d6000fd5b505050506040513d60208110156108d857600080fd5b81019080805190602001909291905050506040518363ffffffff1660e01b8152600401808373ffffffffffffffffffffffffffffffffffffffff1673ffffffffffffffffffffffffffffffffffffffff16815260200182815260200192505050602060405180830381600087803b15801561095257600080fd5b505af1158015610966573d6000803e3d6000fd5b505050506040513d602081101561097c57600080fd5b810190808051906020019092919050505050505050505050565b600080600160008473ffffffffffffffffffffffffffffffffffffffff1673ffffffffffffffffffffffffffffffffffffffff16815260200190815260200160002060009054906101000a900473ffffffffffffffffffffffffffffffffffffffff16905060008190508073ffffffffffffffffffffffffffffffffffffffff16633af9e669306040518263ffffffff1660e01b8152600401808273ffffffffffffffffffffffffffffffffffffffff1673ffffffffffffffffffffffffffffffffffffffff168152602001915050602060405180830381600087803b158015610a7f57600080fd5b505af1158015610a93573d6000803e3d6000fd5b505050506040513d6020811015610aa957600080fd5b810190808051906020019092919050505092505050919050565b60016020528060005260406000206000915054906101000a900473ffffffffffffffffffffffffffffffffffffffff1681565b600080600160008473ffffffffffffffffffffffffffffffffffffffff1673ffffffffffffffffffffffffffffffffffffffff16815260200190815260200160002060009054906101000a900473ffffffffffffffffffffffffffffffffffffffff16905060008190508073ffffffffffffffffffffffffffffffffffffffff1663ae9d70b06040518163ffffffff1660e01b815260040160206040518083038186803b158015610ba657600080fd5b505afa158015610bba573d6000803e3d6000fd5b505050506040513d6020811015610bd057600080fd5b810190808051906020019092919050505092505050919050565b610bf2611353565b610c64576040517f08c379a00000000000000000000000000000000000000000000000000000000081526004018080602001828103825260208152602001807f4f776e61626c653a2063616c6c6572206973206e6f7420746865206f776e657281525060200191505060405180910390fd5b60008290506000600160008573ffffffffffffffffffffffffffffffffffffffff1673ffffffffffffffffffffffffffffffffffffffff16815260200190815260200160002060009054906101000a900473ffffffffffffffffffffffffffffffffffffffff169050600073ffffffffffffffffffffffffffffffffffffffff168173ffffffffffffffffffffffffffffffffffffffff161415610d53576040517f08c379a000000000000000000000000000000000000000000000000000000000815260040180806020018281038252603f815260200180611d8b603f913960400191505060405180910390fd5b6000819050838373ffffffffffffffffffffffffffffffffffffffff1663dd62ed3e33306040518363ffffffff1660e01b8152600401808373ffffffffffffffffffffffffffffffffffffffff1673ffffffffffffffffffffffffffffffffffffffff1681526020018273ffffffffffffffffffffffffffffffffffffffff1673ffffffffffffffffffffffffffffffffffffffff1681526020019250505060206040518083038186803b158015610e0a57600080fd5b505afa158015610e1e573d6000803e3d6000fd5b505050506040513d6020811015610e3457600080fd5b81019080805190602001909291905050501015610e9c576040517f08c379a000000000000000000000000000000000000000000000000000000000815260040180806020018281038252602f815260200180611dca602f913960400191505060405180910390fd5b8273ffffffffffffffffffffffffffffffffffffffff166323b872dd3330876040518463ffffffff1660e01b8152600401808473ffffffffffffffffffffffffffffffffffffffff1673ffffffffffffffffffffffffffffffffffffffff1681526020018373ffffffffffffffffffffffffffffffffffffffff1673ffffffffffffffffffffffffffffffffffffffff1681526020018281526020019350505050602060405180830381600087803b158015610f5757600080fd5b505af1158015610f6b573d6000803e3d6000fd5b505050506040513d6020811015610f8157600080fd5b8101908080519060200190929190505050508273ffffffffffffffffffffffffffffffffffffffff1663095ea7b3837fffffffffffffffffffffffffffffffffffffffffffffffffffffffffffffffff6040518363ffffffff1660e01b8152600401808373ffffffffffffffffffffffffffffffffffffffff1673ffffffffffffffffffffffffffffffffffffffff16815260200182815260200192505050602060405180830381600087803b15801561103a57600080fd5b505af115801561104e573d6000803e3d6000fd5b505050506040513d602081101561106457600080fd5b81019080805190602001909291905050505060008173ffffffffffffffffffffffffffffffffffffffff1663a0712d68866040518263ffffffff1660e01b815260040180828152602001915050602060405180830381600087803b1580156110cb57600080fd5b505af11580156110df573d6000803e3d6000fd5b505050506040513d60208110156110f557600080fd5b8101908080519060200190929190505050905060008114611161576040517f08c379a000000000000000000000000000000000000000000000000000000000815260040180806020018281038252603e815260200180611df9603e913960400191505060405180910390fd5b505050505050565b611171611353565b6111e3576040517f08c379a00000000000000000000000000000000000000000000000000000000081526004018080602001828103825260208152602001807f4f776e61626c653a2063616c6c6572206973206e6f7420746865206f776e657281525060200191505060405180910390fd5b6111ed8282611a1b565b5050565b6111f9611353565b61126b576040517f08c379a00000000000000000000000000000000000000000000000000000000081526004018080602001828103825260208152602001807f4f776e61626c653a2063616c6c6572206973206e6f7420746865206f776e657281525060200191505060405180910390fd5b600073ffffffffffffffffffffffffffffffffffffffff166000809054906101000a900473ffffffffffffffffffffffffffffffffffffffff1673ffffffffffffffffffffffffffffffffffffffff167f8be0079c531659141344cd1fd0a4f28419497f9722a3daafe3b4186f6b6457e060405160405180910390a360008060006101000a81548173ffffffffffffffffffffffffffffffffffffffff021916908373ffffffffffffffffffffffffffffffffffffffff160217905550565b60008060009054906101000a900473ffffffffffffffffffffffffffffffffffffffff16905090565b60008060009054906101000a900473ffffffffffffffffffffffffffffffffffffffff1673ffffffffffffffffffffffffffffffffffffffff163373ffffffffffffffffffffffffffffffffffffffff1614905090565b6113b2611353565b611424576040517f08c379a00000000000000000000000000000000000000000000000000000000081526004018080602001828103825260208152602001807f4f776e61626c653a2063616c6c6572206973206e6f7420746865206f776e657281525060200191505060405180910390fd5b60008390506000600160008673ffffffffffffffffffffffffffffffffffffffff1673ffffffffffffffffffffffffffffffffffffffff16815260200190815260200160002060009054906101000a900473ffffffffffffffffffffffffffffffffffffffff169050600073ffffffffffffffffffffffffffffffffffffffff168173ffffffffffffffffffffffffffffffffffffffff161415611513576040517f08c379a0000000000000000000000000000000000000000000000000000000008152600401808060200182810382526040815260200180611e376040913960400191505060405180910390fd5b600081905060008173ffffffffffffffffffffffffffffffffffffffff1663852a12e3866040518263ffffffff1660e01b815260040180828152602001915050602060405180830381600087803b15801561156d57600080fd5b505af1158015611581573d6000803e3d6000fd5b505050506040513d602081101561159757600080fd5b8101908080519060200190929190505050905060008114611603576040517f08c379a0000000000000000000000000000000000000000000000000000000008152600401808060200182810382526041815260200180611d4a6041913960600191505060405180910390fd5b8373ffffffffffffffffffffffffffffffffffffffff1663a9059cbb87876040518363ffffffff1660e01b8152600401808373ffffffffffffffffffffffffffffffffffffffff1673ffffffffffffffffffffffffffffffffffffffff16815260200182815260200192505050602060405180830381600087803b15801561168a57600080fd5b505af115801561169e573d6000803e3d6000fd5b505050506040513d60208110156116b457600080fd5b81019080805190602001909291905050505050505050505050565b6116d7611353565b611749576040517f08c379a00000000000000000000000000000000000000000000000000000000081526004018080602001828103825260208152602001807f4f776e61626c653a2063616c6c6572206973206e6f7420746865206f776e657281525060200191505060405180910390fd5b80600160008473ffffffffffffffffffffffffffffffffffffffff1673ffffffffffffffffffffffffffffffffffffffff16815260200190815260200160002060006101000a81548173ffffffffffffffffffffffffffffffffffffffff021916908373ffffffffffffffffffffffffffffffffffffffff1602179055505050565b600080600160008473ffffffffffffffffffffffffffffffffffffffff1673ffffffffffffffffffffffffffffffffffffffff16815260200190815260200160002060009054906101000a900473ffffffffffffffffffffffffffffffffffffffff169050600081905060008173ffffffffffffffffffffffffffffffffffffffff1663182df0f56040518163ffffffff1660e01b815260040160206040518083038186803b15801561187d57600080fd5b505afa158015611891573d6000803e3d6000fd5b505050506040513d60208110156118a757600080fd5b8101908080519060200190929190505050905060008273ffffffffffffffffffffffffffffffffffffffff166370a08231306040518263ffffffff1660e01b8152600401808273ffffffffffffffffffffffffffffffffffffffff1673ffffffffffffffffffffffffffffffffffffffff16815260200191505060206040518083038186803b15801561193957600080fd5b505afa15801561194d573d6000803e3d6000fd5b505050506040513d602081101561196357600080fd5b81019080805190602001909291905050509050670de0b6b3a76400008282028161198957fe5b04945050505050919050565b61199d611353565b611a0f576040517f08c379a00000000000000000000000000000000000000000000000000000000081526004018080602001828103825260208152602001807f4f776e61626c653a2063616c6c6572206973206e6f7420746865206f776e657281525060200191505060405180910390fd5b611a1881611bdf565b50565b600073ffffffffffffffffffffffffffffffffffffffff168173ffffffffffffffffffffffffffffffffffffffff161415611a5557600080fd5b600082905060008173ffffffffffffffffffffffffffffffffffffffff166370a08231306040518263ffffffff1660e01b8152600401808273ffffffffffffffffffffffffffffffffffffffff1673ffffffffffffffffffffffffffffffffffffffff16815260200191505060206040518083038186803b158015611ad957600080fd5b505afa158015611aed573d6000803e3d6000fd5b505050506040513d6020811015611b0357600080fd5b810190808051906020019092919050505090508173ffffffffffffffffffffffffffffffffffffffff1663a9059cbb84836040518363ffffffff1660e01b8152600401808373ffffffffffffffffffffffffffffffffffffffff1673ffffffffffffffffffffffffffffffffffffffff16815260200182815260200192505050602060405180830381600087803b158015611b9d57600080fd5b505af1158015611bb1573d6000803e3d6000fd5b505050506040513d6020811015611bc757600080fd5b81019080805190602001909291905050505050505050565b600073ffffffffffffffffffffffffffffffffffffffff168173ffffffffffffffffffffffffffffffffffffffff161415611c65576040517f08c379a0000000000000000000000000000000000000000000000000000000008152600401808060200182810382526026815260200180611d246026913960400191505060405180910390fd5b8073ffffffffffffffffffffffffffffffffffffffff166000809054906101000a900473ffffffffffffffffffffffffffffffffffffffff1673ffffffffffffffffffffffffffffffffffffffff167f8be0079c531659141344cd1fd0a4f28419497f9722a3daafe3b4186f6b6457e060405160405180910390a3806000806101000a81548173ffffffffffffffffffffffffffffffffffffffff021916908373ffffffffffffffffffffffffffffffffffffffff1602179055505056fe4f776e61626c653a206e6577206f776e657220697320746865207a65726f2061646472657373436f6d706f756e64416461707465722e77697468647261773a2054686572652077617320616e206572726f722072656465656d696e67207468652063546f6b656e436f6d706f756e64416461707465722e6465706f7369743a20556e6b6e6f776e2063546f6b656e20666f7220676976656e20746f6b656e2061646472657373436f6d706f756e64416461707465722e6465706f7369743a20496e73756666696369656e7420616c6c6f77616e6365436f6d706f756e64416461707465722e6465706f7369743a2054686572652077617320616e206572726f72206d696e74696e67207468652063546f6b656e436f6d706f756e64416461707465722e77697468647261773a20556e6b6e6f776e2063546f6b656e20666f7220676976656e20746f6b656e2061646472657373a165627a7a72305820c65c2aa78b387bc9dbbb106a96e2d354c9d75a505e8e0f6551267e2f7425c6b10029",
  "source": "pragma solidity 0.5.8;\n\nimport \"openzeppelin-solidity/contracts/ownership/Ownable.sol\";\nimport \"openzeppelin-solidity/contracts/token/ERC20/IERC20.sol\";\n\nimport \"./Claimable.sol\";\nimport \"./IMoneyMarketAdapter.sol\";\n\ncontract CToken is IERC20 {\n  function supplyRatePerBlock() external view returns (uint);\n  function mint(uint mintAmount) external returns (uint);\n  function redeemUnderlying(uint redeemAmount) external returns (uint);\n  function balanceOfUnderlying(address owner) external returns (uint);\n  function exchangeRateStored() public view returns (uint);\n}\n\ncontract CompoundAdapter is IMoneyMarketAdapter, Ownable, Claimable {\n  // map a token address to a cToken address\n  mapping(address => address) public tokenToCToken;\n\n  function mapTokenToCToken(address tokenAddress, address cTokenAddress)\n    external\n    onlyOwner\n  {\n    tokenToCToken[tokenAddress] = cTokenAddress;\n  }\n\n  function getRate(address tokenAddress) external view returns (uint256) {\n    address cTokenAddress = tokenToCToken[tokenAddress];\n    CToken cToken = CToken(cTokenAddress);\n\n    return cToken.supplyRatePerBlock();\n  }\n\n  function deposit(address tokenAddress, uint256 tokenAmount)\n    external\n    onlyOwner\n  {\n    // get cToken\n    IERC20 token = IERC20(tokenAddress);\n    address cTokenAddress = tokenToCToken[tokenAddress];\n    require(\n      cTokenAddress != address(0),\n      \"CompoundAdapter.deposit: Unknown cToken for given token address\"\n    );\n    CToken cToken = CToken(cTokenAddress);\n\n    // transfer tokens from MMM\n    require(\n      token.allowance(msg.sender, address(this)) >= tokenAmount,\n      \"CompoundAdapter.deposit: Insufficient allowance\"\n    );\n    token.transferFrom(msg.sender, address(this), tokenAmount);\n\n    // mint cTokens\n    token.approve(cTokenAddress, uint256(-1));\n    uint256 result = cToken.mint(tokenAmount);\n    require(\n      result == 0,\n      \"CompoundAdapter.deposit: There was an error minting the cToken\"\n    );\n  }\n\n  function withdraw(\n    address tokenAddress,\n    address recipient,\n    uint256 tokenAmount\n  ) external onlyOwner {\n    IERC20 token = IERC20(tokenAddress);\n    address cTokenAddress = tokenToCToken[tokenAddress];\n    require(\n      cTokenAddress != address(0),\n      \"CompoundAdapter.withdraw: Unknown cToken for given token address\"\n    );\n    CToken cToken = CToken(cTokenAddress);\n\n    uint256 result = cToken.redeemUnderlying(tokenAmount);\n    require(\n      result == 0,\n      \"CompoundAdapter.withdraw: There was an error redeeming the cToken\"\n    );\n    token.transfer(recipient, tokenAmount);\n  }\n\n  function withdrawAll(address tokenAddress, address recipient)\n    external\n    onlyOwner\n  {\n    IERC20 token = IERC20(tokenAddress);\n    address cTokenAddress = tokenToCToken[tokenAddress];\n    require(\n      cTokenAddress != address(0),\n      \"CompoundAdapter.withdraw: Unknown cToken for given token address\"\n    );\n    CToken cToken = CToken(cTokenAddress);\n\n    uint256 result = cToken.redeemUnderlying(\n      cToken.balanceOfUnderlying(address(this))\n    );\n    require(\n      result == 0,\n      \"CompoundAdapter.withdraw: There was an error redeeming the cToken\"\n    );\n    token.transfer(recipient, token.balanceOf(address(this)));\n  }\n\n  function claimTokens(address tokenAddress, address recipient)\n    external\n    onlyOwner\n  {\n    _claimTokens(tokenAddress, recipient);\n  }\n\n  function getSupply(address tokenAddress) external returns (uint256) {\n    address cTokenAddress = tokenToCToken[tokenAddress];\n    CToken cToken = CToken(cTokenAddress);\n\n    return cToken.balanceOfUnderlying(address(this));\n  }\n\n  function getSupplyView(address tokenAddress) external view returns (uint256) {\n    address cTokenAddress = tokenToCToken[tokenAddress];\n    CToken cToken = CToken(cTokenAddress);\n\n    uint256 exchangeRate = cToken.exchangeRateStored();\n    uint256 balance = cToken.balanceOf(address(this));\n    return balance * exchangeRate / 10 ** 18;\n  }\n}\n",
  "sourcePath": "/home/fvictorio/repos/sovereign/blockchain/contracts/CompoundAdapter.sol",
  "compiler": {
    "name": "solc",
    "version": "0.5.8+commit.23d335f2.Emscripten.clang"
  },
  "schemaVersion": "3.0.11",
  "updatedAt": "2019-07-25T11:12:48.220Z",
  "devdoc": {
    "methods": {
      "isOwner()": {
        "details": "Returns true if the caller is the current owner."
      },
      "owner()": {
        "details": "Returns the address of the current owner."
      },
      "renounceOwnership()": {
        "details": "Leaves the contract without owner. It will not be possible to call `onlyOwner` functions anymore. Can only be called by the current owner.     * > Note: Renouncing ownership will leave the contract without an owner, thereby removing any functionality that is only available to the owner."
      },
      "transferOwnership(address)": {
        "details": "Transfers ownership of the contract to a new account (`newOwner`). Can only be called by the current owner."
      }
    }
  },
  "userdoc": {
    "methods": {}
  }
}