{
  "contractName": "DYDXAdapter",
  "abi": [
    {
      "constant": false,
      "inputs": [],
      "name": "renounceOwnership",
      "outputs": [],
      "payable": false,
      "stateMutability": "nonpayable",
      "type": "function"
    },
    {
      "constant": true,
      "inputs": [],
      "name": "owner",
      "outputs": [
        {
          "name": "",
          "type": "address"
        }
      ],
      "payable": false,
      "stateMutability": "view",
      "type": "function"
    },
    {
      "constant": true,
      "inputs": [],
      "name": "isOwner",
      "outputs": [
        {
          "name": "",
          "type": "bool"
        }
      ],
      "payable": false,
      "stateMutability": "view",
      "type": "function"
    },
    {
      "constant": true,
      "inputs": [
        {
          "name": "",
          "type": "address"
        }
      ],
      "name": "tokenToMarketId",
      "outputs": [
        {
          "name": "id",
          "type": "uint256"
        },
        {
          "name": "exists",
          "type": "bool"
        }
      ],
      "payable": false,
      "stateMutability": "view",
      "type": "function"
    },
    {
      "constant": false,
      "inputs": [
        {
          "name": "newOwner",
          "type": "address"
        }
      ],
      "name": "transferOwnership",
      "outputs": [],
      "payable": false,
      "stateMutability": "nonpayable",
      "type": "function"
    },
    {
      "inputs": [
        {
          "name": "soloMarginAddress",
          "type": "address"
        }
      ],
      "payable": false,
      "stateMutability": "nonpayable",
      "type": "constructor"
    },
    {
      "anonymous": false,
      "inputs": [
        {
          "indexed": true,
          "name": "previousOwner",
          "type": "address"
        },
        {
          "indexed": true,
          "name": "newOwner",
          "type": "address"
        }
      ],
      "name": "OwnershipTransferred",
      "type": "event"
    },
    {
      "constant": true,
      "inputs": [
        {
          "name": "tokenAddress",
          "type": "address"
        }
      ],
      "name": "isMarketSupported",
      "outputs": [
        {
          "name": "",
          "type": "bool"
        }
      ],
      "payable": false,
      "stateMutability": "view",
      "type": "function"
    },
    {
      "constant": false,
      "inputs": [
        {
          "name": "tokenAddress",
          "type": "address"
        },
        {
          "name": "marketId",
          "type": "uint256"
        }
      ],
      "name": "mapTokenToMarketId",
      "outputs": [],
      "payable": false,
      "stateMutability": "nonpayable",
      "type": "function"
    },
    {
      "constant": true,
      "inputs": [
        {
          "name": "tokenAddress",
          "type": "address"
        }
      ],
      "name": "getRate",
      "outputs": [
        {
          "name": "",
          "type": "uint256"
        }
      ],
      "payable": false,
      "stateMutability": "view",
      "type": "function"
    },
    {
      "constant": false,
      "inputs": [
        {
          "name": "tokenAddress",
          "type": "address"
        },
        {
          "name": "tokenAmount",
          "type": "uint256"
        }
      ],
      "name": "deposit",
      "outputs": [],
      "payable": false,
      "stateMutability": "nonpayable",
      "type": "function"
    },
    {
      "constant": false,
      "inputs": [
        {
          "name": "tokenAddress",
          "type": "address"
        },
        {
          "name": "recipient",
          "type": "address"
        },
        {
          "name": "tokenAmount",
          "type": "uint256"
        }
      ],
      "name": "withdraw",
      "outputs": [],
      "payable": false,
      "stateMutability": "nonpayable",
      "type": "function"
    },
    {
      "constant": false,
      "inputs": [
        {
          "name": "tokenAddress",
          "type": "address"
        }
      ],
      "name": "getSupply",
      "outputs": [
        {
          "name": "",
          "type": "uint256"
        }
      ],
      "payable": false,
      "stateMutability": "nonpayable",
      "type": "function"
    },
    {
      "constant": true,
      "inputs": [
        {
          "name": "tokenAddress",
          "type": "address"
        }
      ],
      "name": "getSupplyView",
      "outputs": [
        {
          "name": "",
          "type": "uint256"
        }
      ],
      "payable": false,
      "stateMutability": "view",
      "type": "function"
    }
  ],
  "bytecode": "0x60806040523480156200001157600080fd5b50604051602080620020e183398101806040526200003391908101906200014e565b336000806101000a81548173ffffffffffffffffffffffffffffffffffffffff021916908373ffffffffffffffffffffffffffffffffffffffff1602179055506000809054906101000a900473ffffffffffffffffffffffffffffffffffffffff1673ffffffffffffffffffffffffffffffffffffffff16600073ffffffffffffffffffffffffffffffffffffffff167f8be0079c531659141344cd1fd0a4f28419497f9722a3daafe3b4186f6b6457e060405160405180910390a380600160006101000a81548173ffffffffffffffffffffffffffffffffffffffff021916908373ffffffffffffffffffffffffffffffffffffffff16021790555050620001c8565b6000815190506200014881620001ae565b92915050565b6000602082840312156200016157600080fd5b6000620001718482850162000137565b91505092915050565b600062000187826200018e565b9050919050565b600073ffffffffffffffffffffffffffffffffffffffff82169050919050565b620001b9816200017a565b8114620001c557600080fd5b50565b611f0980620001d86000396000f3fe608060405234801561001057600080fd5b50600436106100b45760003560e01c8063b826878811610071578063b82687881461017b578063cbfe49af146101ac578063d9caed12146101dc578063ed8a1e54146101f8578063f2fde38b14610228578063fff4124614610244576100b4565b80631fd433aa146100b957806337cef791146100e957806347e7ef2414610119578063715018a6146101355780638da5cb5b1461013f5780638f32d59b1461015d575b600080fd5b6100d360048036036100ce919081019061148b565b610260565b6040516100e09190611c28565b60405180910390f35b61010360048036036100fe919081019061148b565b6102f2565b6040516101109190611c28565b60405180910390f35b610133600480360361012e9190810190611503565b610445565b005b61013d61096b565b005b610147610a71565b6040516101549190611a89565b60405180910390f35b610165610a9a565b6040516101729190611b64565b60405180910390f35b6101956004803603610190919081019061148b565b610af1565b6040516101a3929190611c43565b60405180910390f35b6101c660048036036101c1919081019061148b565b610b22565b6040516101d39190611b64565b60405180910390f35b6101f660048036036101f191908101906114b4565b610b7b565b005b610212600480360361020d919081019061148b565b610f02565b60405161021f9190611c28565b60405180910390f35b610242600480360361023d919081019061148b565b611039565b005b61025e60048036036102599190810190611503565b61108c565b005b60003073ffffffffffffffffffffffffffffffffffffffff1663ed8a1e54836040518263ffffffff1660e01b815260040161029b9190611a89565b60206040518083038186803b1580156102b357600080fd5b505afa1580156102c7573d6000803e3d6000fd5b505050506040513d601f19601f820116820180604052506102eb91908101906115ba565b9050919050565b6000816102fe81610b22565b61033d576040517f08c379a000000000000000000000000000000000000000000000000000000000815260040161033490611bbf565b60405180910390fd5b6000600260008573ffffffffffffffffffffffffffffffffffffffff1673ffffffffffffffffffffffffffffffffffffffff1681526020019081526020016000206000015490506000600160009054906101000a900473ffffffffffffffffffffffffffffffffffffffff1673ffffffffffffffffffffffffffffffffffffffff1663fd47eda6836040518263ffffffff1660e01b81526004016103e19190611c28565b60206040518083038186803b1580156103f957600080fd5b505afa15801561040d573d6000803e3d6000fd5b505050506040513d601f19601f820116820180604052506104319190810190611568565b600001519050600f81029350505050919050565b61044d610a9a565b61048c576040517f08c379a000000000000000000000000000000000000000000000000000000000815260040161048390611bdf565b60405180910390fd5b8161049681610b22565b6104d5576040517f08c379a00000000000000000000000000000000000000000000000000000000081526004016104cc90611bbf565b60405180910390fd5b6000839050828173ffffffffffffffffffffffffffffffffffffffff1663dd62ed3e33306040518363ffffffff1660e01b8152600401610516929190611aa4565b60206040518083038186803b15801561052e57600080fd5b505afa158015610542573d6000803e3d6000fd5b505050506040513d601f19601f8201168201806040525061056691908101906115ba565b10156105a7576040517f08c379a000000000000000000000000000000000000000000000000000000000815260040161059e90611b9f565b60405180910390fd5b8073ffffffffffffffffffffffffffffffffffffffff166323b872dd3330866040518463ffffffff1660e01b81526004016105e493929190611acd565b602060405180830381600087803b1580156105fe57600080fd5b505af1158015610612573d6000803e3d6000fd5b505050506040513d601f19601f82011682018060405250610636919081019061153f565b508073ffffffffffffffffffffffffffffffffffffffff1663095ea7b3600160009054906101000a900473ffffffffffffffffffffffffffffffffffffffff167fffffffffffffffffffffffffffffffffffffffffffffffffffffffffffffffff6040518363ffffffff1660e01b81526004016106b4929190611b04565b602060405180830381600087803b1580156106ce57600080fd5b505af11580156106e2573d6000803e3d6000fd5b505050506040513d601f19601f82011682018060405250610706919081019061153f565b506000600260008673ffffffffffffffffffffffffffffffffffffffff1673ffffffffffffffffffffffffffffffffffffffff1681526020019081526020016000206000015490506060600160405190808252806020026020018201604052801561078b57816020015b6107786112a7565b8152602001906001900390816107705790505b50905060405180604001604052803073ffffffffffffffffffffffffffffffffffffffff1681526020016000815250816000815181106107c757fe5b60200260200101819052506060600160405190808252806020026020018201604052801561080f57816020015b6107fc6112d7565b8152602001906001900390816107f45790505b5090506040518061010001604052806000600181111561082b57fe5b81526020016000815260200160405180608001604052806001151581526020016000600181111561085857fe5b81526020016000600181111561086a57fe5b8152602001898152508152602001848152602001600081526020013073ffffffffffffffffffffffffffffffffffffffff1681526020016000815260200160405180602001604052806000815250815250816000815181106108c857fe5b6020026020010181905250600160009054906101000a900473ffffffffffffffffffffffffffffffffffffffff1673ffffffffffffffffffffffffffffffffffffffff1663a67a6a4583836040518363ffffffff1660e01b8152600401610930929190611b2d565b600060405180830381600087803b15801561094a57600080fd5b505af115801561095e573d6000803e3d6000fd5b5050505050505050505050565b610973610a9a565b6109b2576040517f08c379a00000000000000000000000000000000000000000000000000000000081526004016109a990611bdf565b60405180910390fd5b600073ffffffffffffffffffffffffffffffffffffffff166000809054906101000a900473ffffffffffffffffffffffffffffffffffffffff1673ffffffffffffffffffffffffffffffffffffffff167f8be0079c531659141344cd1fd0a4f28419497f9722a3daafe3b4186f6b6457e060405160405180910390a360008060006101000a81548173ffffffffffffffffffffffffffffffffffffffff021916908373ffffffffffffffffffffffffffffffffffffffff160217905550565b60008060009054906101000a900473ffffffffffffffffffffffffffffffffffffffff16905090565b60008060009054906101000a900473ffffffffffffffffffffffffffffffffffffffff1673ffffffffffffffffffffffffffffffffffffffff163373ffffffffffffffffffffffffffffffffffffffff1614905090565b60026020528060005260406000206000915090508060000154908060010160009054906101000a900460ff16905082565b6000600260008373ffffffffffffffffffffffffffffffffffffffff1673ffffffffffffffffffffffffffffffffffffffff16815260200190815260200160002060010160009054906101000a900460ff169050919050565b610b83610a9a565b610bc2576040517f08c379a0000000000000000000000000000000000000000000000000000000008152600401610bb990611bdf565b60405180910390fd5b82610bcc81610b22565b610c0b576040517f08c379a0000000000000000000000000000000000000000000000000000000008152600401610c0290611bbf565b60405180910390fd5b60008490506000600260008773ffffffffffffffffffffffffffffffffffffffff1673ffffffffffffffffffffffffffffffffffffffff16815260200190815260200160002060000154905060606001604051908082528060200260200182016040528015610c9457816020015b610c816112a7565b815260200190600190039081610c795790505b50905060405180604001604052803073ffffffffffffffffffffffffffffffffffffffff168152602001600081525081600081518110610cd057fe5b602002602001018190525060606001604051908082528060200260200182016040528015610d1857816020015b610d056112d7565b815260200190600190039081610cfd5790505b509050604051806101000160405280600180811115610d3357fe5b815260200160008152602001604051806080016040528060001515815260200160006001811115610d6057fe5b815260200160006001811115610d7257fe5b8152602001898152508152602001848152602001600081526020013073ffffffffffffffffffffffffffffffffffffffff168152602001600081526020016040518060200160405280600081525081525081600081518110610dd057fe5b6020026020010181905250600160009054906101000a900473ffffffffffffffffffffffffffffffffffffffff1673ffffffffffffffffffffffffffffffffffffffff1663a67a6a4583836040518363ffffffff1660e01b8152600401610e38929190611b2d565b600060405180830381600087803b158015610e5257600080fd5b505af1158015610e66573d6000803e3d6000fd5b505050508373ffffffffffffffffffffffffffffffffffffffff1663a9059cbb88886040518363ffffffff1660e01b8152600401610ea5929190611b04565b602060405180830381600087803b158015610ebf57600080fd5b505af1158015610ed3573d6000803e3d6000fd5b505050506040513d601f19601f82011682018060405250610ef7919081019061153f565b505050505050505050565b600080600260008473ffffffffffffffffffffffffffffffffffffffff1673ffffffffffffffffffffffffffffffffffffffff168152602001908152602001600020600001549050610f52611343565b60405180604001604052803073ffffffffffffffffffffffffffffffffffffffff16815260200160008152509050600160009054906101000a900473ffffffffffffffffffffffffffffffffffffffff1673ffffffffffffffffffffffffffffffffffffffff1663c190c2ec82846040518363ffffffff1660e01b8152600401610fdd929190611bff565b604080518083038186803b158015610ff457600080fd5b505afa158015611008573d6000803e3d6000fd5b505050506040513d601f19601f8201168201806040525061102c9190810190611591565b6020015192505050919050565b611041610a9a565b611080576040517f08c379a000000000000000000000000000000000000000000000000000000000815260040161107790611bdf565b60405180910390fd5b61108981611179565b50565b611094610a9a565b6110d3576040517f08c379a00000000000000000000000000000000000000000000000000000000081526004016110ca90611bdf565b60405180910390fd5b80600260008473ffffffffffffffffffffffffffffffffffffffff1673ffffffffffffffffffffffffffffffffffffffff168152602001908152602001600020600001819055506001600260008473ffffffffffffffffffffffffffffffffffffffff1673ffffffffffffffffffffffffffffffffffffffff16815260200190815260200160002060010160006101000a81548160ff0219169083151502179055505050565b600073ffffffffffffffffffffffffffffffffffffffff168173ffffffffffffffffffffffffffffffffffffffff1614156111e9576040517f08c379a00000000000000000000000000000000000000000000000000000000081526004016111e090611b7f565b60405180910390fd5b8073ffffffffffffffffffffffffffffffffffffffff166000809054906101000a900473ffffffffffffffffffffffffffffffffffffffff1673ffffffffffffffffffffffffffffffffffffffff167f8be0079c531659141344cd1fd0a4f28419497f9722a3daafe3b4186f6b6457e060405160405180910390a3806000806101000a81548173ffffffffffffffffffffffffffffffffffffffff021916908373ffffffffffffffffffffffffffffffffffffffff16021790555050565b6040518060400160405280600073ffffffffffffffffffffffffffffffffffffffff168152602001600081525090565b604051806101600160405280600060018111156112f057fe5b815260200160008152602001611304611373565b81526020016000815260200160008152602001600073ffffffffffffffffffffffffffffffffffffffff16815260200160008152602001606081525090565b6040518060400160405280600073ffffffffffffffffffffffffffffffffffffffff168152602001600081525090565b60405180608001604052806000151581526020016000600181111561139457fe5b8152602001600060018111156113a657fe5b8152602001600081525090565b6000813590506113c281611e8a565b92915050565b6000815190506113d781611ea1565b92915050565b6000602082840312156113ef57600080fd5b6113f96020611c6c565b9050600061140984828501611476565b60008301525092915050565b60006040828403121561142757600080fd5b6114316040611c6c565b90506000611441848285016113c8565b600083015250602061145584828501611476565b60208301525092915050565b60008135905061147081611eb8565b92915050565b60008151905061148581611eb8565b92915050565b60006020828403121561149d57600080fd5b60006114ab848285016113b3565b91505092915050565b6000806000606084860312156114c957600080fd5b60006114d7868287016113b3565b93505060206114e8868287016113b3565b92505060406114f986828701611461565b9150509250925092565b6000806040838503121561151657600080fd5b6000611524858286016113b3565b925050602061153585828601611461565b9150509250929050565b60006020828403121561155157600080fd5b600061155f848285016113c8565b91505092915050565b60006020828403121561157a57600080fd5b6000611588848285016113dd565b91505092915050565b6000604082840312156115a357600080fd5b60006115b184828501611415565b91505092915050565b6000602082840312156115cc57600080fd5b60006115da84828501611476565b91505092915050565b60006115ef8383611934565b60408301905092915050565b60006116078383611963565b905092915050565b61161881611db3565b82525050565b61162781611d32565b82525050565b61163681611d32565b82525050565b600061164782611cb3565b6116518185611cee565b935061165c83611c99565b8060005b8381101561168d57815161167488826115e3565b975061167f83611cd4565b925050600181019050611660565b5085935050505092915050565b60006116a582611cbe565b6116af8185611cff565b9350836020820285016116c185611ca6565b8060005b858110156116fd57848403895281516116de85826115fb565b94506116e983611ce1565b925060208a019950506001810190506116c5565b50829750879550505050505092915050565b61171881611d44565b82525050565b61172781611d44565b82525050565b600061173882611cc9565b6117428185611d10565b9350611752818560208601611e1f565b61175b81611e52565b840191505092915050565b61176f81611dc5565b82525050565b61177e81611dd7565b82525050565b61178d81611de9565b82525050565b60006117a0602683611d21565b91507f4f776e61626c653a206e6577206f776e657220697320746865207a65726f206160008301527f64647265737300000000000000000000000000000000000000000000000000006020830152604082019050919050565b6000611806602f83611d21565b91507f436f6d706f756e64416461707465722e6465706f7369743a20496e737566666960008301527f6369656e7420616c6c6f77616e636500000000000000000000000000000000006020830152604082019050919050565b600061186c602d83611d21565b91507f556e6b6e6f776e206d61726b657420696420666f722074686520676976656e2060008301527f746f6b656e2061646472657373000000000000000000000000000000000000006020830152604082019050919050565b60006118d2602083611d21565b91507f4f776e61626c653a2063616c6c6572206973206e6f7420746865206f776e65726000830152602082019050919050565b60408201600082015161191b600085018261161e565b50602082015161192e6020850182611a6b565b50505050565b60408201600082015161194a600085018261161e565b50602082015161195d6020850182611a6b565b50505050565b60006101608301600083015161197c6000860182611766565b50602083015161198f6020860182611a6b565b5060408301516119a26040860182611a16565b5060608301516119b560c0860182611a6b565b5060808301516119c860e0860182611a6b565b5060a08301516119dc61010086018261161e565b5060c08301516119f0610120860182611a6b565b5060e0830151848203610140860152611a09828261172d565b9150508091505092915050565b608082016000820151611a2c600085018261170f565b506020820151611a3f6020850182611775565b506040820151611a526040850182611784565b506060820151611a656060850182611a6b565b50505050565b611a7481611da9565b82525050565b611a8381611da9565b82525050565b6000602082019050611a9e600083018461162d565b92915050565b6000604082019050611ab9600083018561160f565b611ac6602083018461162d565b9392505050565b6000606082019050611ae2600083018661160f565b611aef602083018561162d565b611afc6040830184611a7a565b949350505050565b6000604082019050611b19600083018561162d565b611b266020830184611a7a565b9392505050565b60006040820190508181036000830152611b47818561163c565b90508181036020830152611b5b818461169a565b90509392505050565b6000602082019050611b79600083018461171e565b92915050565b60006020820190508181036000830152611b9881611793565b9050919050565b60006020820190508181036000830152611bb8816117f9565b9050919050565b60006020820190508181036000830152611bd88161185f565b9050919050565b60006020820190508181036000830152611bf8816118c5565b9050919050565b6000606082019050611c146000830185611905565b611c216040830184611a7a565b9392505050565b6000602082019050611c3d6000830184611a7a565b92915050565b6000604082019050611c586000830185611a7a565b611c65602083018461171e565b9392505050565b6000604051905081810181811067ffffffffffffffff82111715611c8f57600080fd5b8060405250919050565b6000602082019050919050565b6000602082019050919050565b600081519050919050565b600081519050919050565b600081519050919050565b6000602082019050919050565b6000602082019050919050565b600082825260208201905092915050565b600082825260208201905092915050565b600082825260208201905092915050565b600082825260208201905092915050565b6000611d3d82611d89565b9050919050565b60008115159050919050565b6000819050611d5e82611e63565b919050565b6000819050611d7182611e70565b919050565b6000819050611d8482611e7d565b919050565b600073ffffffffffffffffffffffffffffffffffffffff82169050919050565b6000819050919050565b6000611dbe82611dfb565b9050919050565b6000611dd082611d50565b9050919050565b6000611de282611d63565b9050919050565b6000611df482611d76565b9050919050565b6000611e0682611e0d565b9050919050565b6000611e1882611d89565b9050919050565b60005b83811015611e3d578082015181840152602081019050611e22565b83811115611e4c576000848401525b50505050565b6000601f19601f8301169050919050565b60028110611e6d57fe5b50565b60028110611e7a57fe5b50565b60028110611e8757fe5b50565b611e9381611d32565b8114611e9e57600080fd5b50565b611eaa81611d44565b8114611eb557600080fd5b50565b611ec181611da9565b8114611ecc57600080fd5b5056fea265627a7a7230582091da608a002205cafea77d2c770623a722d8e3297d7971b1217656af2dc9bb276c6578706572696d656e74616cf50037",
  "source": "pragma solidity 0.5.8;\npragma experimental ABIEncoderV2;\n\nimport \"openzeppelin-solidity/contracts/ownership/Ownable.sol\";\nimport \"openzeppelin-solidity/contracts/token/ERC20/IERC20.sol\";\n\nimport \"./IMoneyMarketAdapter.sol\";\n\ncontract SoloMargin {\n  enum ActionType {Deposit, Withdraw}\n  enum AssetDenomination {Wei, Par}\n\n  enum AssetReference {Delta, Target}\n\n  struct AccountInfo {\n    address owner;\n    uint256 number;\n  }\n  struct ActionArgs {\n    ActionType actionType;\n    uint256 accountId;\n    AssetAmount amount;\n    uint256 primaryMarketId;\n    uint256 secondaryMarketId;\n    address otherAddress;\n    uint256 otherAccountId;\n    bytes data;\n  }\n  struct AssetAmount {\n    bool sign; // true if positive\n    AssetDenomination denomination;\n    AssetReference ref;\n    uint256 value;\n  }\n  struct Rate {\n    uint256 value;\n  }\n  struct Wei {\n    bool sign; // true if positive\n    uint256 value;\n  }\n\n  function getMarketInterestRate(uint256 marketId)\n    public\n    view\n    returns (Rate memory);\n\n  function getAccountWei(AccountInfo memory account, uint256 marketId)\n    public\n    view\n    returns (Wei memory);\n\n  function operate(AccountInfo[] memory accounts, ActionArgs[] memory actions)\n    public;\n}\n\ncontract DYDXAdapter is IMoneyMarketAdapter, Ownable {\n  // dyDx SoloMargin contract\n  SoloMargin soloMargin;\n\n  // map a token address to a dYdX market id\n  mapping(address => MarketId) public tokenToMarketId;\n\n  // this struct is necessary because 0 is a valid market id, and we want to distinguish it from unknown tokens.\n  struct MarketId {\n    uint256 id;\n    bool exists;\n  }\n\n  modifier checkMarketSupported(address tokenAddress) {\n    require(\n      isMarketSupported(tokenAddress),\n      \"Unknown market id for the given token address\"\n    );\n    _;\n  }\n\n  function isMarketSupported(address tokenAddress) public view returns (bool) {\n    return tokenToMarketId[tokenAddress].exists;\n  }\n\n  constructor(address soloMarginAddress) public {\n    soloMargin = SoloMargin(soloMarginAddress);\n  }\n\n  function mapTokenToMarketId(address tokenAddress, uint256 marketId)\n    external\n    onlyOwner\n  {\n    tokenToMarketId[tokenAddress].id = marketId;\n    tokenToMarketId[tokenAddress].exists = true;\n  }\n\n  function getRate(address tokenAddress)\n    external\n    view\n    checkMarketSupported(tokenAddress)\n    returns (uint256)\n  {\n    uint256 marketId = tokenToMarketId[tokenAddress].id;\n\n    uint256 ratePerSecond = soloMargin.getMarketInterestRate(marketId).value;\n\n    return ratePerSecond * 15;\n  }\n\n  function deposit(address tokenAddress, uint256 tokenAmount)\n    external\n    onlyOwner\n    checkMarketSupported(tokenAddress)\n  {\n    IERC20 token = IERC20(tokenAddress);\n    require(\n      token.allowance(msg.sender, address(this)) >= tokenAmount,\n      \"CompoundAdapter.deposit: Insufficient allowance\"\n    );\n    token.transferFrom(msg.sender, address(this), tokenAmount);\n    token.approve(address(soloMargin), uint256(-1));\n\n    uint256 marketId = tokenToMarketId[tokenAddress].id;\n\n    SoloMargin.AccountInfo[] memory accounts = new SoloMargin.AccountInfo[](1);\n    accounts[0] = SoloMargin.AccountInfo(address(this), 0);\n    SoloMargin.ActionArgs[] memory actions = new SoloMargin.ActionArgs[](1);\n    actions[0] = SoloMargin.ActionArgs(\n      SoloMargin.ActionType.Deposit,\n      0,\n      SoloMargin.AssetAmount(\n        true,\n        SoloMargin.AssetDenomination.Wei,\n        SoloMargin.AssetReference.Delta,\n        tokenAmount\n      ),\n      marketId,\n      0,\n      address(this),\n      0,\n      \"\"\n    );\n\n    soloMargin.operate(accounts, actions);\n  }\n\n  function withdraw(\n    address tokenAddress,\n    address recipient,\n    uint256 tokenAmount\n  ) external onlyOwner checkMarketSupported(tokenAddress) {\n    IERC20 token = IERC20(tokenAddress);\n\n    uint256 marketId = tokenToMarketId[tokenAddress].id;\n\n    SoloMargin.AccountInfo[] memory accounts = new SoloMargin.AccountInfo[](1);\n    accounts[0] = SoloMargin.AccountInfo(address(this), 0);\n    SoloMargin.ActionArgs[] memory actions = new SoloMargin.ActionArgs[](1);\n    actions[0] = SoloMargin.ActionArgs(\n      SoloMargin.ActionType.Withdraw,\n      0,\n      SoloMargin.AssetAmount(\n        false,\n        SoloMargin.AssetDenomination.Wei,\n        SoloMargin.AssetReference.Delta,\n        tokenAmount\n      ),\n      marketId,\n      0,\n      address(this),\n      0,\n      \"\"\n    );\n    soloMargin.operate(accounts, actions);\n\n    token.transfer(recipient, tokenAmount);\n  }\n\n  function getSupply(address tokenAddress) external returns (uint256) {\n    return this.getSupplyView(tokenAddress);\n  }\n\n  function getSupplyView(address tokenAddress) external view returns (uint256) {\n    uint256 marketId = tokenToMarketId[tokenAddress].id;\n    SoloMargin.AccountInfo memory account = SoloMargin.AccountInfo(\n      address(this),\n      0\n    );\n\n    return soloMargin.getAccountWei(account, marketId).value;\n  }\n}\n",
  "sourcePath": "/home/fvictorio/repos/sovereign/blockchain/contracts/DYDXAdapter.sol",
  "compiler": {
    "name": "solc",
    "version": "0.5.8+commit.23d335f2.Emscripten.clang"
  },
  "schemaVersion": "3.0.11",
  "updatedAt": "2019-07-18T20:27:57.175Z",
  "devdoc": {
    "methods": {
      "isOwner()": {
        "details": "Returns true if the caller is the current owner."
      },
      "owner()": {
        "details": "Returns the address of the current owner."
      },
      "renounceOwnership()": {
        "details": "Leaves the contract without owner. It will not be possible to call `onlyOwner` functions anymore. Can only be called by the current owner.     * > Note: Renouncing ownership will leave the contract without an owner, thereby removing any functionality that is only available to the owner."
      },
      "transferOwnership(address)": {
        "details": "Transfers ownership of the contract to a new account (`newOwner`). Can only be called by the current owner."
      }
    }
  },
  "userdoc": {
    "methods": {}
  }
}