{
  "contractName": "DYDXAdapter",
  "abi": [
    {
      "constant": false,
      "inputs": [],
      "name": "renounceOwnership",
      "outputs": [],
      "payable": false,
      "stateMutability": "nonpayable",
      "type": "function"
    },
    {
      "constant": true,
      "inputs": [],
      "name": "owner",
      "outputs": [
        {
          "name": "",
          "type": "address"
        }
      ],
      "payable": false,
      "stateMutability": "view",
      "type": "function"
    },
    {
      "constant": true,
      "inputs": [],
      "name": "isOwner",
      "outputs": [
        {
          "name": "",
          "type": "bool"
        }
      ],
      "payable": false,
      "stateMutability": "view",
      "type": "function"
    },
    {
      "constant": true,
      "inputs": [
        {
          "name": "",
          "type": "address"
        }
      ],
      "name": "tokenToMarketId",
      "outputs": [
        {
          "name": "id",
          "type": "uint256"
        },
        {
          "name": "exists",
          "type": "bool"
        }
      ],
      "payable": false,
      "stateMutability": "view",
      "type": "function"
    },
    {
      "constant": false,
      "inputs": [
        {
          "name": "newOwner",
          "type": "address"
        }
      ],
      "name": "transferOwnership",
      "outputs": [],
      "payable": false,
      "stateMutability": "nonpayable",
      "type": "function"
    },
    {
      "inputs": [
        {
          "name": "soloMarginAddress",
          "type": "address"
        }
      ],
      "payable": false,
      "stateMutability": "nonpayable",
      "type": "constructor"
    },
    {
      "anonymous": false,
      "inputs": [
        {
          "indexed": true,
          "name": "previousOwner",
          "type": "address"
        },
        {
          "indexed": true,
          "name": "newOwner",
          "type": "address"
        }
      ],
      "name": "OwnershipTransferred",
      "type": "event"
    },
    {
      "constant": true,
      "inputs": [
        {
          "name": "tokenAddress",
          "type": "address"
        }
      ],
      "name": "isMarketSupported",
      "outputs": [
        {
          "name": "",
          "type": "bool"
        }
      ],
      "payable": false,
      "stateMutability": "view",
      "type": "function"
    },
    {
      "constant": false,
      "inputs": [
        {
          "name": "tokenAddress",
          "type": "address"
        },
        {
          "name": "marketId",
          "type": "uint256"
        }
      ],
      "name": "mapTokenToMarketId",
      "outputs": [],
      "payable": false,
      "stateMutability": "nonpayable",
      "type": "function"
    },
    {
      "constant": true,
      "inputs": [
        {
          "name": "tokenAddress",
          "type": "address"
        }
      ],
      "name": "getRate",
      "outputs": [
        {
          "name": "",
          "type": "uint256"
        }
      ],
      "payable": false,
      "stateMutability": "view",
      "type": "function"
    },
    {
      "constant": false,
      "inputs": [
        {
          "name": "tokenAddress",
          "type": "address"
        },
        {
          "name": "tokenAmount",
          "type": "uint256"
        }
      ],
      "name": "deposit",
      "outputs": [],
      "payable": false,
      "stateMutability": "nonpayable",
      "type": "function"
    },
    {
      "constant": false,
      "inputs": [
        {
          "name": "tokenAddress",
          "type": "address"
        },
        {
          "name": "recipient",
          "type": "address"
        },
        {
          "name": "tokenAmount",
          "type": "uint256"
        }
      ],
      "name": "withdraw",
      "outputs": [],
      "payable": false,
      "stateMutability": "nonpayable",
      "type": "function"
    },
    {
      "constant": false,
      "inputs": [
        {
          "name": "tokenAddress",
          "type": "address"
        },
        {
          "name": "recipient",
          "type": "address"
        }
      ],
      "name": "withdrawAll",
      "outputs": [],
      "payable": false,
      "stateMutability": "nonpayable",
      "type": "function"
    },
    {
      "constant": false,
      "inputs": [
        {
          "name": "tokenAddress",
          "type": "address"
        },
        {
          "name": "recipient",
          "type": "address"
        }
      ],
      "name": "claimTokens",
      "outputs": [],
      "payable": false,
      "stateMutability": "nonpayable",
      "type": "function"
    },
    {
      "constant": false,
      "inputs": [
        {
          "name": "tokenAddress",
          "type": "address"
        }
      ],
      "name": "getSupply",
      "outputs": [
        {
          "name": "",
          "type": "uint256"
        }
      ],
      "payable": false,
      "stateMutability": "nonpayable",
      "type": "function"
    },
    {
      "constant": true,
      "inputs": [
        {
          "name": "tokenAddress",
          "type": "address"
        }
      ],
      "name": "getSupplyView",
      "outputs": [
        {
          "name": "",
          "type": "uint256"
        }
      ],
      "payable": false,
      "stateMutability": "view",
      "type": "function"
    }
  ],
  "bytecode": "0x60806040523480156200001157600080fd5b506040516020806200286f83398101806040526200003391908101906200014e565b336000806101000a81548173ffffffffffffffffffffffffffffffffffffffff021916908373ffffffffffffffffffffffffffffffffffffffff1602179055506000809054906101000a900473ffffffffffffffffffffffffffffffffffffffff1673ffffffffffffffffffffffffffffffffffffffff16600073ffffffffffffffffffffffffffffffffffffffff167f8be0079c531659141344cd1fd0a4f28419497f9722a3daafe3b4186f6b6457e060405160405180910390a380600160006101000a81548173ffffffffffffffffffffffffffffffffffffffff021916908373ffffffffffffffffffffffffffffffffffffffff16021790555050620001c8565b6000815190506200014881620001ae565b92915050565b6000602082840312156200016157600080fd5b6000620001718482850162000137565b91505092915050565b600062000187826200018e565b9050919050565b600073ffffffffffffffffffffffffffffffffffffffff82169050919050565b620001b9816200017a565b8114620001c557600080fd5b50565b61269780620001d86000396000f3fe608060405234801561001057600080fd5b50600436106100ea5760003560e01c80638f32d59b1161008c578063d9caed1211610066578063d9caed121461024a578063ed8a1e5414610266578063f2fde38b14610296578063fff41246146102b2576100ea565b80638f32d59b146101cb578063b8268788146101e9578063cbfe49af1461021a576100ea565b806347e7ef24116100c857806347e7ef241461016b57806369ffa08a14610187578063715018a6146101a35780638da5cb5b146101ad576100ea565b806309cae2c8146100ef5780631fd433aa1461010b57806337cef7911461013b575b600080fd5b61010960048036036101049190810190611bae565b6102ce565b005b61012560048036036101209190810190611b85565b6107a5565b60405161013291906123b6565b60405180910390f35b61015560048036036101509190810190611b85565b610837565b60405161016291906123b6565b60405180910390f35b61018560048036036101809190810190611c39565b61098a565b005b6101a1600480360361019c9190810190611bae565b610eb0565b005b6101ab610f05565b005b6101b561100b565b6040516101c291906121ee565b60405180910390f35b6101d3611034565b6040516101e091906122c9565b60405180910390f35b61020360048036036101fe9190810190611b85565b61108b565b6040516102119291906123d1565b60405180910390f35b610234600480360361022f9190810190611b85565b6110bc565b60405161024191906122c9565b60405180910390f35b610264600480360361025f9190810190611bea565b611115565b005b610280600480360361027b9190810190611b85565b61149c565b60405161028d91906123b6565b60405180910390f35b6102b060048036036102ab9190810190611b85565b6115d3565b005b6102cc60048036036102c79190810190611c39565b611626565b005b6102d6611034565b610315576040517f08c379a000000000000000000000000000000000000000000000000000000000815260040161030c90612344565b60405180910390fd5b8161031f816110bc565b61035e576040517f08c379a000000000000000000000000000000000000000000000000000000000815260040161035590612324565b60405180910390fd5b60008390506000600260008673ffffffffffffffffffffffffffffffffffffffff1673ffffffffffffffffffffffffffffffffffffffff168152602001908152602001600020600001549050606060016040519080825280602002602001820160405280156103e757816020015b6103d46119a1565b8152602001906001900390816103cc5790505b50905060405180604001604052803073ffffffffffffffffffffffffffffffffffffffff16815260200160008152508160008151811061042357fe5b60200260200101819052506000600160009054906101000a900473ffffffffffffffffffffffffffffffffffffffff1673ffffffffffffffffffffffffffffffffffffffff1663c190c2ec8360008151811061047b57fe5b6020026020010151856040518363ffffffff1660e01b81526004016104a192919061238d565b604080518083038186803b1580156104b857600080fd5b505afa1580156104cc573d6000803e3d6000fd5b505050506040513d601f19601f820116820180604052506104f09190810190611cc7565b6020015190506060600160405190808252806020026020018201604052801561053357816020015b6105206119d1565b8152602001906001900390816105185790505b50905060405180610100016040528060018081111561054e57fe5b81526020016000815260200160405180608001604052806000151581526020016000600181111561057b57fe5b81526020016000600181111561058d57fe5b8152602001858152508152602001858152602001600081526020013073ffffffffffffffffffffffffffffffffffffffff1681526020016000815260200160405180602001604052806000815250815250816000815181106105eb57fe5b6020026020010181905250600160009054906101000a900473ffffffffffffffffffffffffffffffffffffffff1673ffffffffffffffffffffffffffffffffffffffff1663a67a6a4584836040518363ffffffff1660e01b8152600401610653929190612292565b600060405180830381600087803b15801561066d57600080fd5b505af1158015610681573d6000803e3d6000fd5b505050508473ffffffffffffffffffffffffffffffffffffffff1663a9059cbb888773ffffffffffffffffffffffffffffffffffffffff166370a08231306040518263ffffffff1660e01b81526004016106db91906121ee565b60206040518083038186803b1580156106f357600080fd5b505afa158015610707573d6000803e3d6000fd5b505050506040513d601f19601f8201168201806040525061072b9190810190611cf0565b6040518363ffffffff1660e01b8152600401610748929190612269565b602060405180830381600087803b15801561076257600080fd5b505af1158015610776573d6000803e3d6000fd5b505050506040513d601f19601f8201168201806040525061079a9190810190611c75565b505050505050505050565b60003073ffffffffffffffffffffffffffffffffffffffff1663ed8a1e54836040518263ffffffff1660e01b81526004016107e091906121ee565b60206040518083038186803b1580156107f857600080fd5b505afa15801561080c573d6000803e3d6000fd5b505050506040513d601f19601f820116820180604052506108309190810190611cf0565b9050919050565b600081610843816110bc565b610882576040517f08c379a000000000000000000000000000000000000000000000000000000000815260040161087990612324565b60405180910390fd5b6000600260008573ffffffffffffffffffffffffffffffffffffffff1673ffffffffffffffffffffffffffffffffffffffff1681526020019081526020016000206000015490506000600160009054906101000a900473ffffffffffffffffffffffffffffffffffffffff1673ffffffffffffffffffffffffffffffffffffffff1663fd47eda6836040518263ffffffff1660e01b815260040161092691906123b6565b60206040518083038186803b15801561093e57600080fd5b505afa158015610952573d6000803e3d6000fd5b505050506040513d601f19601f820116820180604052506109769190810190611c9e565b600001519050600f81029350505050919050565b610992611034565b6109d1576040517f08c379a00000000000000000000000000000000000000000000000000000000081526004016109c890612344565b60405180910390fd5b816109db816110bc565b610a1a576040517f08c379a0000000000000000000000000000000000000000000000000000000008152600401610a1190612324565b60405180910390fd5b6000839050828173ffffffffffffffffffffffffffffffffffffffff1663dd62ed3e33306040518363ffffffff1660e01b8152600401610a5b929190612209565b60206040518083038186803b158015610a7357600080fd5b505afa158015610a87573d6000803e3d6000fd5b505050506040513d601f19601f82011682018060405250610aab9190810190611cf0565b1015610aec576040517f08c379a0000000000000000000000000000000000000000000000000000000008152600401610ae390612304565b60405180910390fd5b8073ffffffffffffffffffffffffffffffffffffffff166323b872dd3330866040518463ffffffff1660e01b8152600401610b2993929190612232565b602060405180830381600087803b158015610b4357600080fd5b505af1158015610b57573d6000803e3d6000fd5b505050506040513d601f19601f82011682018060405250610b7b9190810190611c75565b508073ffffffffffffffffffffffffffffffffffffffff1663095ea7b3600160009054906101000a900473ffffffffffffffffffffffffffffffffffffffff167fffffffffffffffffffffffffffffffffffffffffffffffffffffffffffffffff6040518363ffffffff1660e01b8152600401610bf9929190612269565b602060405180830381600087803b158015610c1357600080fd5b505af1158015610c27573d6000803e3d6000fd5b505050506040513d601f19601f82011682018060405250610c4b9190810190611c75565b506000600260008673ffffffffffffffffffffffffffffffffffffffff1673ffffffffffffffffffffffffffffffffffffffff16815260200190815260200160002060000154905060606001604051908082528060200260200182016040528015610cd057816020015b610cbd6119a1565b815260200190600190039081610cb55790505b50905060405180604001604052803073ffffffffffffffffffffffffffffffffffffffff168152602001600081525081600081518110610d0c57fe5b602002602001018190525060606001604051908082528060200260200182016040528015610d5457816020015b610d416119d1565b815260200190600190039081610d395790505b50905060405180610100016040528060006001811115610d7057fe5b815260200160008152602001604051806080016040528060011515815260200160006001811115610d9d57fe5b815260200160006001811115610daf57fe5b8152602001898152508152602001848152602001600081526020013073ffffffffffffffffffffffffffffffffffffffff168152602001600081526020016040518060200160405280600081525081525081600081518110610e0d57fe5b6020026020010181905250600160009054906101000a900473ffffffffffffffffffffffffffffffffffffffff1673ffffffffffffffffffffffffffffffffffffffff1663a67a6a4583836040518363ffffffff1660e01b8152600401610e75929190612292565b600060405180830381600087803b158015610e8f57600080fd5b505af1158015610ea3573d6000803e3d6000fd5b5050505050505050505050565b610eb8611034565b610ef7576040517f08c379a0000000000000000000000000000000000000000000000000000000008152600401610eee90612344565b60405180910390fd5b610f018282611713565b5050565b610f0d611034565b610f4c576040517f08c379a0000000000000000000000000000000000000000000000000000000008152600401610f4390612344565b60405180910390fd5b600073ffffffffffffffffffffffffffffffffffffffff166000809054906101000a900473ffffffffffffffffffffffffffffffffffffffff1673ffffffffffffffffffffffffffffffffffffffff167f8be0079c531659141344cd1fd0a4f28419497f9722a3daafe3b4186f6b6457e060405160405180910390a360008060006101000a81548173ffffffffffffffffffffffffffffffffffffffff021916908373ffffffffffffffffffffffffffffffffffffffff160217905550565b60008060009054906101000a900473ffffffffffffffffffffffffffffffffffffffff16905090565b60008060009054906101000a900473ffffffffffffffffffffffffffffffffffffffff1673ffffffffffffffffffffffffffffffffffffffff163373ffffffffffffffffffffffffffffffffffffffff1614905090565b60026020528060005260406000206000915090508060000154908060010160009054906101000a900460ff16905082565b6000600260008373ffffffffffffffffffffffffffffffffffffffff1673ffffffffffffffffffffffffffffffffffffffff16815260200190815260200160002060010160009054906101000a900460ff169050919050565b61111d611034565b61115c576040517f08c379a000000000000000000000000000000000000000000000000000000000815260040161115390612344565b60405180910390fd5b82611166816110bc565b6111a5576040517f08c379a000000000000000000000000000000000000000000000000000000000815260040161119c90612324565b60405180910390fd5b60008490506000600260008773ffffffffffffffffffffffffffffffffffffffff1673ffffffffffffffffffffffffffffffffffffffff1681526020019081526020016000206000015490506060600160405190808252806020026020018201604052801561122e57816020015b61121b6119a1565b8152602001906001900390816112135790505b50905060405180604001604052803073ffffffffffffffffffffffffffffffffffffffff16815260200160008152508160008151811061126a57fe5b6020026020010181905250606060016040519080825280602002602001820160405280156112b257816020015b61129f6119d1565b8152602001906001900390816112975790505b5090506040518061010001604052806001808111156112cd57fe5b8152602001600081526020016040518060800160405280600015158152602001600060018111156112fa57fe5b81526020016000600181111561130c57fe5b8152602001898152508152602001848152602001600081526020013073ffffffffffffffffffffffffffffffffffffffff16815260200160008152602001604051806020016040528060008152508152508160008151811061136a57fe5b6020026020010181905250600160009054906101000a900473ffffffffffffffffffffffffffffffffffffffff1673ffffffffffffffffffffffffffffffffffffffff1663a67a6a4583836040518363ffffffff1660e01b81526004016113d2929190612292565b600060405180830381600087803b1580156113ec57600080fd5b505af1158015611400573d6000803e3d6000fd5b505050508373ffffffffffffffffffffffffffffffffffffffff1663a9059cbb88886040518363ffffffff1660e01b815260040161143f929190612269565b602060405180830381600087803b15801561145957600080fd5b505af115801561146d573d6000803e3d6000fd5b505050506040513d601f19601f820116820180604052506114919190810190611c75565b505050505050505050565b600080600260008473ffffffffffffffffffffffffffffffffffffffff1673ffffffffffffffffffffffffffffffffffffffff1681526020019081526020016000206000015490506114ec611a3d565b60405180604001604052803073ffffffffffffffffffffffffffffffffffffffff16815260200160008152509050600160009054906101000a900473ffffffffffffffffffffffffffffffffffffffff1673ffffffffffffffffffffffffffffffffffffffff1663c190c2ec82846040518363ffffffff1660e01b8152600401611577929190612364565b604080518083038186803b15801561158e57600080fd5b505afa1580156115a2573d6000803e3d6000fd5b505050506040513d601f19601f820116820180604052506115c69190810190611cc7565b6020015192505050919050565b6115db611034565b61161a576040517f08c379a000000000000000000000000000000000000000000000000000000000815260040161161190612344565b60405180910390fd5b61162381611873565b50565b61162e611034565b61166d576040517f08c379a000000000000000000000000000000000000000000000000000000000815260040161166490612344565b60405180910390fd5b80600260008473ffffffffffffffffffffffffffffffffffffffff1673ffffffffffffffffffffffffffffffffffffffff168152602001908152602001600020600001819055506001600260008473ffffffffffffffffffffffffffffffffffffffff1673ffffffffffffffffffffffffffffffffffffffff16815260200190815260200160002060010160006101000a81548160ff0219169083151502179055505050565b600073ffffffffffffffffffffffffffffffffffffffff168173ffffffffffffffffffffffffffffffffffffffff16141561174d57600080fd5b600082905060008173ffffffffffffffffffffffffffffffffffffffff166370a08231306040518263ffffffff1660e01b815260040161178d91906121ee565b60206040518083038186803b1580156117a557600080fd5b505afa1580156117b9573d6000803e3d6000fd5b505050506040513d601f19601f820116820180604052506117dd9190810190611cf0565b90508173ffffffffffffffffffffffffffffffffffffffff1663a9059cbb84836040518363ffffffff1660e01b815260040161181a929190612269565b602060405180830381600087803b15801561183457600080fd5b505af1158015611848573d6000803e3d6000fd5b505050506040513d601f19601f8201168201806040525061186c9190810190611c75565b5050505050565b600073ffffffffffffffffffffffffffffffffffffffff168173ffffffffffffffffffffffffffffffffffffffff1614156118e3576040517f08c379a00000000000000000000000000000000000000000000000000000000081526004016118da906122e4565b60405180910390fd5b8073ffffffffffffffffffffffffffffffffffffffff166000809054906101000a900473ffffffffffffffffffffffffffffffffffffffff1673ffffffffffffffffffffffffffffffffffffffff167f8be0079c531659141344cd1fd0a4f28419497f9722a3daafe3b4186f6b6457e060405160405180910390a3806000806101000a81548173ffffffffffffffffffffffffffffffffffffffff021916908373ffffffffffffffffffffffffffffffffffffffff16021790555050565b6040518060400160405280600073ffffffffffffffffffffffffffffffffffffffff168152602001600081525090565b604051806101600160405280600060018111156119ea57fe5b8152602001600081526020016119fe611a6d565b81526020016000815260200160008152602001600073ffffffffffffffffffffffffffffffffffffffff16815260200160008152602001606081525090565b6040518060400160405280600073ffffffffffffffffffffffffffffffffffffffff168152602001600081525090565b604051806080016040528060001515815260200160006001811115611a8e57fe5b815260200160006001811115611aa057fe5b8152602001600081525090565b600081359050611abc81612618565b92915050565b600081519050611ad18161262f565b92915050565b600060208284031215611ae957600080fd5b611af360206123fa565b90506000611b0384828501611b70565b60008301525092915050565b600060408284031215611b2157600080fd5b611b2b60406123fa565b90506000611b3b84828501611ac2565b6000830152506020611b4f84828501611b70565b60208301525092915050565b600081359050611b6a81612646565b92915050565b600081519050611b7f81612646565b92915050565b600060208284031215611b9757600080fd5b6000611ba584828501611aad565b91505092915050565b60008060408385031215611bc157600080fd5b6000611bcf85828601611aad565b9250506020611be085828601611aad565b9150509250929050565b600080600060608486031215611bff57600080fd5b6000611c0d86828701611aad565b9350506020611c1e86828701611aad565b9250506040611c2f86828701611b5b565b9150509250925092565b60008060408385031215611c4c57600080fd5b6000611c5a85828601611aad565b9250506020611c6b85828601611b5b565b9150509250929050565b600060208284031215611c8757600080fd5b6000611c9584828501611ac2565b91505092915050565b600060208284031215611cb057600080fd5b6000611cbe84828501611ad7565b91505092915050565b600060408284031215611cd957600080fd5b6000611ce784828501611b0f565b91505092915050565b600060208284031215611d0257600080fd5b6000611d1084828501611b70565b91505092915050565b6000611d25838361206a565b60408301905092915050565b6000611d3d83836120c8565b905092915050565b611d4e81612541565b82525050565b611d5d816124c0565b82525050565b611d6c816124c0565b82525050565b6000611d7d82612441565b611d87818561247c565b9350611d9283612427565b8060005b83811015611dc3578151611daa8882611d19565b9750611db583612462565b925050600181019050611d96565b5085935050505092915050565b6000611ddb8261244c565b611de5818561248d565b935083602082028501611df785612434565b8060005b85811015611e335784840389528151611e148582611d31565b9450611e1f8361246f565b925060208a01995050600181019050611dfb565b50829750879550505050505092915050565b611e4e816124d2565b82525050565b611e5d816124d2565b82525050565b6000611e6e82612457565b611e78818561249e565b9350611e888185602086016125ad565b611e91816125e0565b840191505092915050565b611ea581612553565b82525050565b611eb481612565565b82525050565b611ec381612577565b82525050565b6000611ed66026836124af565b91507f4f776e61626c653a206e6577206f776e657220697320746865207a65726f206160008301527f64647265737300000000000000000000000000000000000000000000000000006020830152604082019050919050565b6000611f3c602f836124af565b91507f436f6d706f756e64416461707465722e6465706f7369743a20496e737566666960008301527f6369656e7420616c6c6f77616e636500000000000000000000000000000000006020830152604082019050919050565b6000611fa2602d836124af565b91507f556e6b6e6f776e206d61726b657420696420666f722074686520676976656e2060008301527f746f6b656e2061646472657373000000000000000000000000000000000000006020830152604082019050919050565b60006120086020836124af565b91507f4f776e61626c653a2063616c6c6572206973206e6f7420746865206f776e65726000830152602082019050919050565b6040820160008201516120516000850182611d54565b50602082015161206460208501826121d0565b50505050565b6040820160008201516120806000850182611d54565b50602082015161209360208501826121d0565b50505050565b6040820160008201516120af6000850182611d54565b5060208201516120c260208501826121d0565b50505050565b6000610160830160008301516120e16000860182611e9c565b5060208301516120f460208601826121d0565b506040830151612107604086018261217b565b50606083015161211a60c08601826121d0565b50608083015161212d60e08601826121d0565b5060a0830151612141610100860182611d54565b5060c08301516121556101208601826121d0565b5060e083015184820361014086015261216e8282611e63565b9150508091505092915050565b6080820160008201516121916000850182611e45565b5060208201516121a46020850182611eab565b5060408201516121b76040850182611eba565b5060608201516121ca60608501826121d0565b50505050565b6121d981612537565b82525050565b6121e881612537565b82525050565b60006020820190506122036000830184611d63565b92915050565b600060408201905061221e6000830185611d45565b61222b6020830184611d63565b9392505050565b60006060820190506122476000830186611d45565b6122546020830185611d63565b61226160408301846121df565b949350505050565b600060408201905061227e6000830185611d63565b61228b60208301846121df565b9392505050565b600060408201905081810360008301526122ac8185611d72565b905081810360208301526122c08184611dd0565b90509392505050565b60006020820190506122de6000830184611e54565b92915050565b600060208201905081810360008301526122fd81611ec9565b9050919050565b6000602082019050818103600083015261231d81611f2f565b9050919050565b6000602082019050818103600083015261233d81611f95565b9050919050565b6000602082019050818103600083015261235d81611ffb565b9050919050565b6000606082019050612379600083018561203b565b61238660408301846121df565b9392505050565b60006060820190506123a26000830185612099565b6123af60408301846121df565b9392505050565b60006020820190506123cb60008301846121df565b92915050565b60006040820190506123e660008301856121df565b6123f36020830184611e54565b9392505050565b6000604051905081810181811067ffffffffffffffff8211171561241d57600080fd5b8060405250919050565b6000602082019050919050565b6000602082019050919050565b600081519050919050565b600081519050919050565b600081519050919050565b6000602082019050919050565b6000602082019050919050565b600082825260208201905092915050565b600082825260208201905092915050565b600082825260208201905092915050565b600082825260208201905092915050565b60006124cb82612517565b9050919050565b60008115159050919050565b60008190506124ec826125f1565b919050565b60008190506124ff826125fe565b919050565b60008190506125128261260b565b919050565b600073ffffffffffffffffffffffffffffffffffffffff82169050919050565b6000819050919050565b600061254c82612589565b9050919050565b600061255e826124de565b9050919050565b6000612570826124f1565b9050919050565b600061258282612504565b9050919050565b60006125948261259b565b9050919050565b60006125a682612517565b9050919050565b60005b838110156125cb5780820151818401526020810190506125b0565b838111156125da576000848401525b50505050565b6000601f19601f8301169050919050565b600281106125fb57fe5b50565b6002811061260857fe5b50565b6002811061261557fe5b50565b612621816124c0565b811461262c57600080fd5b50565b612638816124d2565b811461264357600080fd5b50565b61264f81612537565b811461265a57600080fd5b5056fea265627a7a72305820d19c6565e3f406ad31422d22f7dc93fb87b7c90e023f9eee7ba555ae2209047a6c6578706572696d656e74616cf50037",
  "source": "pragma solidity 0.5.8;\npragma experimental ABIEncoderV2;\n\nimport \"openzeppelin-solidity/contracts/ownership/Ownable.sol\";\nimport \"openzeppelin-solidity/contracts/token/ERC20/IERC20.sol\";\n\nimport \"./Claimable.sol\";\nimport \"./IMoneyMarketAdapter.sol\";\n\ncontract SoloMargin {\n  enum ActionType {Deposit, Withdraw}\n  enum AssetDenomination {Wei, Par}\n\n  enum AssetReference {Delta, Target}\n\n  struct AccountInfo {\n    address owner;\n    uint256 number;\n  }\n  struct ActionArgs {\n    ActionType actionType;\n    uint256 accountId;\n    AssetAmount amount;\n    uint256 primaryMarketId;\n    uint256 secondaryMarketId;\n    address otherAddress;\n    uint256 otherAccountId;\n    bytes data;\n  }\n  struct AssetAmount {\n    bool sign; // true if positive\n    AssetDenomination denomination;\n    AssetReference ref;\n    uint256 value;\n  }\n  struct Rate {\n    uint256 value;\n  }\n  struct Wei {\n    bool sign; // true if positive\n    uint256 value;\n  }\n\n  function getMarketInterestRate(uint256 marketId)\n    public\n    view\n    returns (Rate memory);\n\n  function getAccountWei(AccountInfo memory account, uint256 marketId)\n    public\n    view\n    returns (Wei memory);\n\n  function operate(AccountInfo[] memory accounts, ActionArgs[] memory actions)\n    public;\n}\n\ncontract DYDXAdapter is IMoneyMarketAdapter, Ownable, Claimable {\n  // dyDx SoloMargin contract\n  SoloMargin soloMargin;\n\n  // map a token address to a dYdX market id\n  mapping(address => MarketId) public tokenToMarketId;\n\n  // this struct is necessary because 0 is a valid market id, and we want to distinguish it from unknown tokens.\n  struct MarketId {\n    uint256 id;\n    bool exists;\n  }\n\n  modifier checkMarketSupported(address tokenAddress) {\n    require(\n      isMarketSupported(tokenAddress),\n      \"Unknown market id for the given token address\"\n    );\n    _;\n  }\n\n  function isMarketSupported(address tokenAddress) public view returns (bool) {\n    return tokenToMarketId[tokenAddress].exists;\n  }\n\n  constructor(address soloMarginAddress) public {\n    soloMargin = SoloMargin(soloMarginAddress);\n  }\n\n  function mapTokenToMarketId(address tokenAddress, uint256 marketId)\n    external\n    onlyOwner\n  {\n    tokenToMarketId[tokenAddress].id = marketId;\n    tokenToMarketId[tokenAddress].exists = true;\n  }\n\n  function getRate(address tokenAddress)\n    external\n    view\n    checkMarketSupported(tokenAddress)\n    returns (uint256)\n  {\n    uint256 marketId = tokenToMarketId[tokenAddress].id;\n\n    uint256 ratePerSecond = soloMargin.getMarketInterestRate(marketId).value;\n\n    return ratePerSecond * 15;\n  }\n\n  function deposit(address tokenAddress, uint256 tokenAmount)\n    external\n    onlyOwner\n    checkMarketSupported(tokenAddress)\n  {\n    IERC20 token = IERC20(tokenAddress);\n    require(\n      token.allowance(msg.sender, address(this)) >= tokenAmount,\n      \"CompoundAdapter.deposit: Insufficient allowance\"\n    );\n    token.transferFrom(msg.sender, address(this), tokenAmount);\n    token.approve(address(soloMargin), uint256(-1));\n\n    uint256 marketId = tokenToMarketId[tokenAddress].id;\n\n    SoloMargin.AccountInfo[] memory accounts = new SoloMargin.AccountInfo[](1);\n    accounts[0] = SoloMargin.AccountInfo(address(this), 0);\n    SoloMargin.ActionArgs[] memory actions = new SoloMargin.ActionArgs[](1);\n    actions[0] = SoloMargin.ActionArgs(\n      SoloMargin.ActionType.Deposit,\n      0,\n      SoloMargin.AssetAmount(\n        true,\n        SoloMargin.AssetDenomination.Wei,\n        SoloMargin.AssetReference.Delta,\n        tokenAmount\n      ),\n      marketId,\n      0,\n      address(this),\n      0,\n      \"\"\n    );\n\n    soloMargin.operate(accounts, actions);\n  }\n\n  function withdraw(\n    address tokenAddress,\n    address recipient,\n    uint256 tokenAmount\n  ) external onlyOwner checkMarketSupported(tokenAddress) {\n    IERC20 token = IERC20(tokenAddress);\n\n    uint256 marketId = tokenToMarketId[tokenAddress].id;\n\n    SoloMargin.AccountInfo[] memory accounts = new SoloMargin.AccountInfo[](1);\n    accounts[0] = SoloMargin.AccountInfo(address(this), 0);\n    SoloMargin.ActionArgs[] memory actions = new SoloMargin.ActionArgs[](1);\n    actions[0] = SoloMargin.ActionArgs(\n      SoloMargin.ActionType.Withdraw,\n      0,\n      SoloMargin.AssetAmount(\n        false,\n        SoloMargin.AssetDenomination.Wei,\n        SoloMargin.AssetReference.Delta,\n        tokenAmount\n      ),\n      marketId,\n      0,\n      address(this),\n      0,\n      \"\"\n    );\n    soloMargin.operate(accounts, actions);\n\n    token.transfer(recipient, tokenAmount);\n  }\n\n  function withdrawAll(address tokenAddress, address recipient)\n    external\n    onlyOwner\n    checkMarketSupported(tokenAddress)\n  {\n    IERC20 token = IERC20(tokenAddress);\n\n    uint256 marketId = tokenToMarketId[tokenAddress].id;\n\n    SoloMargin.AccountInfo[] memory accounts = new SoloMargin.AccountInfo[](1);\n    accounts[0] = SoloMargin.AccountInfo(address(this), 0);\n\n    uint256 balance = soloMargin.getAccountWei(accounts[0], marketId).value;\n\n    SoloMargin.ActionArgs[] memory actions = new SoloMargin.ActionArgs[](1);\n    actions[0] = SoloMargin.ActionArgs(\n      SoloMargin.ActionType.Withdraw,\n      0,\n      SoloMargin.AssetAmount(\n        false,\n        SoloMargin.AssetDenomination.Wei,\n        SoloMargin.AssetReference.Delta,\n        balance\n      ),\n      marketId,\n      0,\n      address(this),\n      0,\n      \"\"\n    );\n    soloMargin.operate(accounts, actions);\n\n    token.transfer(recipient, token.balanceOf(address(this)));\n  }\n\n  function claimTokens(address tokenAddress, address recipient)\n    external\n    onlyOwner\n  {\n    _claimTokens(tokenAddress, recipient);\n  }\n\n  function getSupply(address tokenAddress) external returns (uint256) {\n    return this.getSupplyView(tokenAddress);\n  }\n\n  function getSupplyView(address tokenAddress) external view returns (uint256) {\n    uint256 marketId = tokenToMarketId[tokenAddress].id;\n    SoloMargin.AccountInfo memory account = SoloMargin.AccountInfo(\n      address(this),\n      0\n    );\n\n    return soloMargin.getAccountWei(account, marketId).value;\n  }\n}\n",
  "sourcePath": "/home/fvictorio/repos/sovereign/blockchain/contracts/DYDXAdapter.sol",
  "compiler": {
    "name": "solc",
    "version": "0.5.8+commit.23d335f2.Emscripten.clang"
  },
  "schemaVersion": "3.0.11",
  "updatedAt": "2019-07-25T11:12:48.234Z",
  "devdoc": {
    "methods": {
      "isOwner()": {
        "details": "Returns true if the caller is the current owner."
      },
      "owner()": {
        "details": "Returns the address of the current owner."
      },
      "renounceOwnership()": {
        "details": "Leaves the contract without owner. It will not be possible to call `onlyOwner` functions anymore. Can only be called by the current owner.     * > Note: Renouncing ownership will leave the contract without an owner, thereby removing any functionality that is only available to the owner."
      },
      "transferOwnership(address)": {
        "details": "Transfers ownership of the contract to a new account (`newOwner`). Can only be called by the current owner."
      }
    }
  },
  "userdoc": {
    "methods": {}
  }
}