{
  "contractName": "DYDXAdapter",
  "abi": [
    {
      "constant": false,
      "inputs": [],
      "name": "renounceOwnership",
      "outputs": [],
      "payable": false,
      "stateMutability": "nonpayable",
      "type": "function"
    },
    {
      "constant": true,
      "inputs": [],
      "name": "owner",
      "outputs": [
        {
          "name": "",
          "type": "address"
        }
      ],
      "payable": false,
      "stateMutability": "view",
      "type": "function"
    },
    {
      "constant": true,
      "inputs": [],
      "name": "isOwner",
      "outputs": [
        {
          "name": "",
          "type": "bool"
        }
      ],
      "payable": false,
      "stateMutability": "view",
      "type": "function"
    },
    {
      "constant": true,
      "inputs": [
        {
          "name": "",
          "type": "address"
        }
      ],
      "name": "tokenToMarketId",
      "outputs": [
        {
          "name": "id",
          "type": "uint256"
        },
        {
          "name": "exists",
          "type": "bool"
        }
      ],
      "payable": false,
      "stateMutability": "view",
      "type": "function"
    },
    {
      "constant": false,
      "inputs": [
        {
          "name": "newOwner",
          "type": "address"
        }
      ],
      "name": "transferOwnership",
      "outputs": [],
      "payable": false,
      "stateMutability": "nonpayable",
      "type": "function"
    },
    {
      "inputs": [
        {
          "name": "soloMarginAddress",
          "type": "address"
        }
      ],
      "payable": false,
      "stateMutability": "nonpayable",
      "type": "constructor"
    },
    {
      "anonymous": false,
      "inputs": [
        {
          "indexed": true,
          "name": "previousOwner",
          "type": "address"
        },
        {
          "indexed": true,
          "name": "newOwner",
          "type": "address"
        }
      ],
      "name": "OwnershipTransferred",
      "type": "event"
    },
    {
      "constant": true,
      "inputs": [
        {
          "name": "tokenAddress",
          "type": "address"
        }
      ],
      "name": "supportsToken",
      "outputs": [
        {
          "name": "",
          "type": "bool"
        }
      ],
      "payable": false,
      "stateMutability": "view",
      "type": "function"
    },
    {
      "constant": false,
      "inputs": [
        {
          "name": "tokenAddress",
          "type": "address"
        },
        {
          "name": "marketId",
          "type": "uint256"
        }
      ],
      "name": "mapTokenToMarketId",
      "outputs": [],
      "payable": false,
      "stateMutability": "nonpayable",
      "type": "function"
    },
    {
      "constant": true,
      "inputs": [
        {
          "name": "tokenAddress",
          "type": "address"
        }
      ],
      "name": "getRate",
      "outputs": [
        {
          "name": "",
          "type": "uint256"
        }
      ],
      "payable": false,
      "stateMutability": "view",
      "type": "function"
    },
    {
      "constant": false,
      "inputs": [
        {
          "name": "tokenAddress",
          "type": "address"
        },
        {
          "name": "tokenAmount",
          "type": "uint256"
        }
      ],
      "name": "deposit",
      "outputs": [],
      "payable": false,
      "stateMutability": "nonpayable",
      "type": "function"
    },
    {
      "constant": false,
      "inputs": [
        {
          "name": "tokenAddress",
          "type": "address"
        },
        {
          "name": "recipient",
          "type": "address"
        },
        {
          "name": "tokenAmount",
          "type": "uint256"
        }
      ],
      "name": "withdraw",
      "outputs": [],
      "payable": false,
      "stateMutability": "nonpayable",
      "type": "function"
    },
    {
      "constant": false,
      "inputs": [
        {
          "name": "tokenAddress",
          "type": "address"
        },
        {
          "name": "recipient",
          "type": "address"
        }
      ],
      "name": "withdrawAll",
      "outputs": [],
      "payable": false,
      "stateMutability": "nonpayable",
      "type": "function"
    },
    {
      "constant": false,
      "inputs": [
        {
          "name": "tokenAddress",
          "type": "address"
        },
        {
          "name": "recipient",
          "type": "address"
        }
      ],
      "name": "claimTokens",
      "outputs": [],
      "payable": false,
      "stateMutability": "nonpayable",
      "type": "function"
    },
    {
      "constant": false,
      "inputs": [
        {
          "name": "tokenAddress",
          "type": "address"
        }
      ],
      "name": "getSupply",
      "outputs": [
        {
          "name": "",
          "type": "uint256"
        }
      ],
      "payable": false,
      "stateMutability": "nonpayable",
      "type": "function"
    },
    {
      "constant": true,
      "inputs": [
        {
          "name": "tokenAddress",
          "type": "address"
        }
      ],
      "name": "getSupplyView",
      "outputs": [
        {
          "name": "",
          "type": "uint256"
        }
      ],
      "payable": false,
      "stateMutability": "view",
      "type": "function"
    }
  ],
  "bytecode": "0x60806040523480156200001157600080fd5b5060405160208062002ca283398101806040526200003391908101906200014e565b336000806101000a81548173ffffffffffffffffffffffffffffffffffffffff021916908373ffffffffffffffffffffffffffffffffffffffff1602179055506000809054906101000a900473ffffffffffffffffffffffffffffffffffffffff1673ffffffffffffffffffffffffffffffffffffffff16600073ffffffffffffffffffffffffffffffffffffffff167f8be0079c531659141344cd1fd0a4f28419497f9722a3daafe3b4186f6b6457e060405160405180910390a380600160006101000a81548173ffffffffffffffffffffffffffffffffffffffff021916908373ffffffffffffffffffffffffffffffffffffffff16021790555050620001c8565b6000815190506200014881620001ae565b92915050565b6000602082840312156200016157600080fd5b6000620001718482850162000137565b91505092915050565b600062000187826200018e565b9050919050565b600073ffffffffffffffffffffffffffffffffffffffff82169050919050565b620001b9816200017a565b8114620001c557600080fd5b50565b612aca80620001d86000396000f3fe608060405234801561001057600080fd5b50600436106100ea5760003560e01c80638da5cb5b1161008c578063d9caed1211610066578063d9caed121461024a578063ed8a1e5414610266578063f2fde38b14610296578063fff41246146102b2576100ea565b80638da5cb5b146101dd5780638f32d59b146101fb578063b826878814610219576100ea565b806337cef791116100c857806337cef7911461016b57806347e7ef241461019b57806369ffa08a146101b7578063715018a6146101d3576100ea565b8063061f7650146100ef57806309cae2c81461011f5780631fd433aa1461013b575b600080fd5b61010960048036036101049190810190611edd565b6102ce565b6040516101169190612673565b60405180910390f35b61013960048036036101349190810190611f06565b6102e0565b005b61015560048036036101509190810190611edd565b6107b7565b6040516101629190612760565b60405180910390f35b61018560048036036101809190810190611edd565b610849565b6040516101929190612760565b60405180910390f35b6101b560048036036101b09190810190611f91565b610b76565b005b6101d160048036036101cc9190810190611f06565b61109c565b005b6101db6110f1565b005b6101e56111f7565b6040516101f29190612598565b60405180910390f35b610203611220565b6040516102109190612673565b60405180910390f35b610233600480360361022e9190810190611edd565b611277565b60405161024192919061277b565b60405180910390f35b610264600480360361025f9190810190611f42565b6112a8565b005b610280600480360361027b9190810190611edd565b61162f565b60405161028d9190612760565b60405180910390f35b6102b060048036036102ab9190810190611edd565b611766565b005b6102cc60048036036102c79190810190611f91565b6117b9565b005b60006102d9826118a6565b9050919050565b6102e8611220565b610327576040517f08c379a000000000000000000000000000000000000000000000000000000000815260040161031e906126ee565b60405180910390fd5b81610331816118a6565b610370576040517f08c379a0000000000000000000000000000000000000000000000000000000008152600401610367906126ce565b60405180910390fd5b60008390506000600260008673ffffffffffffffffffffffffffffffffffffffff1673ffffffffffffffffffffffffffffffffffffffff168152602001908152602001600020600001549050606060016040519080825280602002602001820160405280156103f957816020015b6103e6611b8d565b8152602001906001900390816103de5790505b50905060405180604001604052803073ffffffffffffffffffffffffffffffffffffffff16815260200160008152508160008151811061043557fe5b60200260200101819052506000600160009054906101000a900473ffffffffffffffffffffffffffffffffffffffff1673ffffffffffffffffffffffffffffffffffffffff1663c190c2ec8360008151811061048d57fe5b6020026020010151856040518363ffffffff1660e01b81526004016104b3929190612737565b604080518083038186803b1580156104ca57600080fd5b505afa1580156104de573d6000803e3d6000fd5b505050506040513d601f19601f820116820180604052506105029190810190612071565b6020015190506060600160405190808252806020026020018201604052801561054557816020015b610532611bbd565b81526020019060019003908161052a5790505b50905060405180610100016040528060018081111561056057fe5b81526020016000815260200160405180608001604052806000151581526020016000600181111561058d57fe5b81526020016000600181111561059f57fe5b8152602001858152508152602001858152602001600081526020013073ffffffffffffffffffffffffffffffffffffffff1681526020016000815260200160405180602001604052806000815250815250816000815181106105fd57fe5b6020026020010181905250600160009054906101000a900473ffffffffffffffffffffffffffffffffffffffff1673ffffffffffffffffffffffffffffffffffffffff1663a67a6a4584836040518363ffffffff1660e01b815260040161066592919061263c565b600060405180830381600087803b15801561067f57600080fd5b505af1158015610693573d6000803e3d6000fd5b505050508473ffffffffffffffffffffffffffffffffffffffff1663a9059cbb888773ffffffffffffffffffffffffffffffffffffffff166370a08231306040518263ffffffff1660e01b81526004016106ed9190612598565b60206040518083038186803b15801561070557600080fd5b505afa158015610719573d6000803e3d6000fd5b505050506040513d601f19601f8201168201806040525061073d919081019061209a565b6040518363ffffffff1660e01b815260040161075a929190612613565b602060405180830381600087803b15801561077457600080fd5b505af1158015610788573d6000803e3d6000fd5b505050506040513d601f19601f820116820180604052506107ac9190810190611fcd565b505050505050505050565b60003073ffffffffffffffffffffffffffffffffffffffff1663ed8a1e54836040518263ffffffff1660e01b81526004016107f29190612598565b60206040518083038186803b15801561080a57600080fd5b505afa15801561081e573d6000803e3d6000fd5b505050506040513d601f19601f82011682018060405250610842919081019061209a565b9050919050565b600081610855816118a6565b610894576040517f08c379a000000000000000000000000000000000000000000000000000000000815260040161088b906126ce565b60405180910390fd5b6000600260008573ffffffffffffffffffffffffffffffffffffffff1673ffffffffffffffffffffffffffffffffffffffff1681526020019081526020016000206000015490506108e3611c29565b600160009054906101000a900473ffffffffffffffffffffffffffffffffffffffff1673ffffffffffffffffffffffffffffffffffffffff1663cb04a34c836040518263ffffffff1660e01b815260040161093e9190612760565b604080518083038186803b15801561095557600080fd5b505afa158015610969573d6000803e3d6000fd5b505050506040513d601f19601f8201168201806040525061098d9190810190612048565b9050610997611c67565b600160009054906101000a900473ffffffffffffffffffffffffffffffffffffffff1673ffffffffffffffffffffffffffffffffffffffff166356ea84b2846040518263ffffffff1660e01b81526004016109f29190612760565b60606040518083038186803b158015610a0a57600080fd5b505afa158015610a1e573d6000803e3d6000fd5b505050506040513d601f19601f82011682018060405250610a429190810190611ff6565b90506000600160009054906101000a900473ffffffffffffffffffffffffffffffffffffffff1673ffffffffffffffffffffffffffffffffffffffff1663fd47eda6856040518263ffffffff1660e01b8152600401610aa19190612760565b60206040518083038186803b158015610ab957600080fd5b505afa158015610acd573d6000803e3d6000fd5b505050506040513d601f19601f82011682018060405250610af1919081019061201f565b600001519050600082602001516bffffffffffffffffffffffff1684602001516fffffffffffffffffffffffffffffffff16620186a002028284600001516bffffffffffffffffffffffff1686600001516fffffffffffffffffffffffffffffffff1662015f9002020281610b6257fe5b049050600f81029650505050505050919050565b610b7e611220565b610bbd576040517f08c379a0000000000000000000000000000000000000000000000000000000008152600401610bb4906126ee565b60405180910390fd5b81610bc7816118a6565b610c06576040517f08c379a0000000000000000000000000000000000000000000000000000000008152600401610bfd906126ce565b60405180910390fd5b6000839050828173ffffffffffffffffffffffffffffffffffffffff1663dd62ed3e33306040518363ffffffff1660e01b8152600401610c479291906125b3565b60206040518083038186803b158015610c5f57600080fd5b505afa158015610c73573d6000803e3d6000fd5b505050506040513d601f19601f82011682018060405250610c97919081019061209a565b1015610cd8576040517f08c379a0000000000000000000000000000000000000000000000000000000008152600401610ccf906126ae565b60405180910390fd5b8073ffffffffffffffffffffffffffffffffffffffff166323b872dd3330866040518463ffffffff1660e01b8152600401610d15939291906125dc565b602060405180830381600087803b158015610d2f57600080fd5b505af1158015610d43573d6000803e3d6000fd5b505050506040513d601f19601f82011682018060405250610d679190810190611fcd565b508073ffffffffffffffffffffffffffffffffffffffff1663095ea7b3600160009054906101000a900473ffffffffffffffffffffffffffffffffffffffff167fffffffffffffffffffffffffffffffffffffffffffffffffffffffffffffffff6040518363ffffffff1660e01b8152600401610de5929190612613565b602060405180830381600087803b158015610dff57600080fd5b505af1158015610e13573d6000803e3d6000fd5b505050506040513d601f19601f82011682018060405250610e379190810190611fcd565b506000600260008673ffffffffffffffffffffffffffffffffffffffff1673ffffffffffffffffffffffffffffffffffffffff16815260200190815260200160002060000154905060606001604051908082528060200260200182016040528015610ebc57816020015b610ea9611b8d565b815260200190600190039081610ea15790505b50905060405180604001604052803073ffffffffffffffffffffffffffffffffffffffff168152602001600081525081600081518110610ef857fe5b602002602001018190525060606001604051908082528060200260200182016040528015610f4057816020015b610f2d611bbd565b815260200190600190039081610f255790505b50905060405180610100016040528060006001811115610f5c57fe5b815260200160008152602001604051806080016040528060011515815260200160006001811115610f8957fe5b815260200160006001811115610f9b57fe5b8152602001898152508152602001848152602001600081526020013073ffffffffffffffffffffffffffffffffffffffff168152602001600081526020016040518060200160405280600081525081525081600081518110610ff957fe5b6020026020010181905250600160009054906101000a900473ffffffffffffffffffffffffffffffffffffffff1673ffffffffffffffffffffffffffffffffffffffff1663a67a6a4583836040518363ffffffff1660e01b815260040161106192919061263c565b600060405180830381600087803b15801561107b57600080fd5b505af115801561108f573d6000803e3d6000fd5b5050505050505050505050565b6110a4611220565b6110e3576040517f08c379a00000000000000000000000000000000000000000000000000000000081526004016110da906126ee565b60405180910390fd5b6110ed82826118ff565b5050565b6110f9611220565b611138576040517f08c379a000000000000000000000000000000000000000000000000000000000815260040161112f906126ee565b60405180910390fd5b600073ffffffffffffffffffffffffffffffffffffffff166000809054906101000a900473ffffffffffffffffffffffffffffffffffffffff1673ffffffffffffffffffffffffffffffffffffffff167f8be0079c531659141344cd1fd0a4f28419497f9722a3daafe3b4186f6b6457e060405160405180910390a360008060006101000a81548173ffffffffffffffffffffffffffffffffffffffff021916908373ffffffffffffffffffffffffffffffffffffffff160217905550565b60008060009054906101000a900473ffffffffffffffffffffffffffffffffffffffff16905090565b60008060009054906101000a900473ffffffffffffffffffffffffffffffffffffffff1673ffffffffffffffffffffffffffffffffffffffff163373ffffffffffffffffffffffffffffffffffffffff1614905090565b60026020528060005260406000206000915090508060000154908060010160009054906101000a900460ff16905082565b6112b0611220565b6112ef576040517f08c379a00000000000000000000000000000000000000000000000000000000081526004016112e6906126ee565b60405180910390fd5b826112f9816118a6565b611338576040517f08c379a000000000000000000000000000000000000000000000000000000000815260040161132f906126ce565b60405180910390fd5b60008490506000600260008773ffffffffffffffffffffffffffffffffffffffff1673ffffffffffffffffffffffffffffffffffffffff168152602001908152602001600020600001549050606060016040519080825280602002602001820160405280156113c157816020015b6113ae611b8d565b8152602001906001900390816113a65790505b50905060405180604001604052803073ffffffffffffffffffffffffffffffffffffffff1681526020016000815250816000815181106113fd57fe5b60200260200101819052506060600160405190808252806020026020018201604052801561144557816020015b611432611bbd565b81526020019060019003908161142a5790505b50905060405180610100016040528060018081111561146057fe5b81526020016000815260200160405180608001604052806000151581526020016000600181111561148d57fe5b81526020016000600181111561149f57fe5b8152602001898152508152602001848152602001600081526020013073ffffffffffffffffffffffffffffffffffffffff1681526020016000815260200160405180602001604052806000815250815250816000815181106114fd57fe5b6020026020010181905250600160009054906101000a900473ffffffffffffffffffffffffffffffffffffffff1673ffffffffffffffffffffffffffffffffffffffff1663a67a6a4583836040518363ffffffff1660e01b815260040161156592919061263c565b600060405180830381600087803b15801561157f57600080fd5b505af1158015611593573d6000803e3d6000fd5b505050508373ffffffffffffffffffffffffffffffffffffffff1663a9059cbb88886040518363ffffffff1660e01b81526004016115d2929190612613565b602060405180830381600087803b1580156115ec57600080fd5b505af1158015611600573d6000803e3d6000fd5b505050506040513d601f19601f820116820180604052506116249190810190611fcd565b505050505050505050565b600080600260008473ffffffffffffffffffffffffffffffffffffffff1673ffffffffffffffffffffffffffffffffffffffff16815260200190815260200160002060000154905061167f611caa565b60405180604001604052803073ffffffffffffffffffffffffffffffffffffffff16815260200160008152509050600160009054906101000a900473ffffffffffffffffffffffffffffffffffffffff1673ffffffffffffffffffffffffffffffffffffffff1663c190c2ec82846040518363ffffffff1660e01b815260040161170a92919061270e565b604080518083038186803b15801561172157600080fd5b505afa158015611735573d6000803e3d6000fd5b505050506040513d601f19601f820116820180604052506117599190810190612071565b6020015192505050919050565b61176e611220565b6117ad576040517f08c379a00000000000000000000000000000000000000000000000000000000081526004016117a4906126ee565b60405180910390fd5b6117b681611a5f565b50565b6117c1611220565b611800576040517f08c379a00000000000000000000000000000000000000000000000000000000081526004016117f7906126ee565b60405180910390fd5b80600260008473ffffffffffffffffffffffffffffffffffffffff1673ffffffffffffffffffffffffffffffffffffffff168152602001908152602001600020600001819055506001600260008473ffffffffffffffffffffffffffffffffffffffff1673ffffffffffffffffffffffffffffffffffffffff16815260200190815260200160002060010160006101000a81548160ff0219169083151502179055505050565b6000600260008373ffffffffffffffffffffffffffffffffffffffff1673ffffffffffffffffffffffffffffffffffffffff16815260200190815260200160002060010160009054906101000a900460ff169050919050565b600073ffffffffffffffffffffffffffffffffffffffff168173ffffffffffffffffffffffffffffffffffffffff16141561193957600080fd5b600082905060008173ffffffffffffffffffffffffffffffffffffffff166370a08231306040518263ffffffff1660e01b81526004016119799190612598565b60206040518083038186803b15801561199157600080fd5b505afa1580156119a5573d6000803e3d6000fd5b505050506040513d601f19601f820116820180604052506119c9919081019061209a565b90508173ffffffffffffffffffffffffffffffffffffffff1663a9059cbb84836040518363ffffffff1660e01b8152600401611a06929190612613565b602060405180830381600087803b158015611a2057600080fd5b505af1158015611a34573d6000803e3d6000fd5b505050506040513d601f19601f82011682018060405250611a589190810190611fcd565b5050505050565b600073ffffffffffffffffffffffffffffffffffffffff168173ffffffffffffffffffffffffffffffffffffffff161415611acf576040517f08c379a0000000000000000000000000000000000000000000000000000000008152600401611ac69061268e565b60405180910390fd5b8073ffffffffffffffffffffffffffffffffffffffff166000809054906101000a900473ffffffffffffffffffffffffffffffffffffffff1673ffffffffffffffffffffffffffffffffffffffff167f8be0079c531659141344cd1fd0a4f28419497f9722a3daafe3b4186f6b6457e060405160405180910390a3806000806101000a81548173ffffffffffffffffffffffffffffffffffffffff021916908373ffffffffffffffffffffffffffffffffffffffff16021790555050565b6040518060400160405280600073ffffffffffffffffffffffffffffffffffffffff168152602001600081525090565b60405180610160016040528060006001811115611bd657fe5b815260200160008152602001611bea611cda565b81526020016000815260200160008152602001600073ffffffffffffffffffffffffffffffffffffffff16815260200160008152602001606081525090565b604051806040016040528060006fffffffffffffffffffffffffffffffff16815260200160006fffffffffffffffffffffffffffffffff1681525090565b604051806060016040528060006bffffffffffffffffffffffff16815260200160006bffffffffffffffffffffffff168152602001600063ffffffff1681525090565b6040518060400160405280600073ffffffffffffffffffffffffffffffffffffffff168152602001600081525090565b604051806080016040528060001515815260200160006001811115611cfb57fe5b815260200160006001811115611d0d57fe5b8152602001600081525090565b600081359050611d2981612a06565b92915050565b600081519050611d3e81612a1d565b92915050565b600060608284031215611d5657600080fd5b611d6060606127a4565b90506000611d7084828501611ec8565b6000830152506020611d8484828501611ec8565b6020830152506040611d9884828501611eb3565b60408301525092915050565b600060208284031215611db657600080fd5b611dc060206127a4565b90506000611dd084828501611e9e565b60008301525092915050565b600060408284031215611dee57600080fd5b611df860406127a4565b90506000611e0884828501611e74565b6000830152506020611e1c84828501611e74565b60208301525092915050565b600060408284031215611e3a57600080fd5b611e4460406127a4565b90506000611e5484828501611d2f565b6000830152506020611e6884828501611e9e565b60208301525092915050565b600081519050611e8381612a34565b92915050565b600081359050611e9881612a4b565b92915050565b600081519050611ead81612a4b565b92915050565b600081519050611ec281612a62565b92915050565b600081519050611ed781612a79565b92915050565b600060208284031215611eef57600080fd5b6000611efd84828501611d1a565b91505092915050565b60008060408385031215611f1957600080fd5b6000611f2785828601611d1a565b9250506020611f3885828601611d1a565b9150509250929050565b600080600060608486031215611f5757600080fd5b6000611f6586828701611d1a565b9350506020611f7686828701611d1a565b9250506040611f8786828701611e89565b9150509250925092565b60008060408385031215611fa457600080fd5b6000611fb285828601611d1a565b9250506020611fc385828601611e89565b9150509250929050565b600060208284031215611fdf57600080fd5b6000611fed84828501611d2f565b91505092915050565b60006060828403121561200857600080fd5b600061201684828501611d44565b91505092915050565b60006020828403121561203157600080fd5b600061203f84828501611da4565b91505092915050565b60006040828403121561205a57600080fd5b600061206884828501611ddc565b91505092915050565b60006040828403121561208357600080fd5b600061209184828501611e28565b91505092915050565b6000602082840312156120ac57600080fd5b60006120ba84828501611e9e565b91505092915050565b60006120cf8383612414565b60408301905092915050565b60006120e78383612472565b905092915050565b6120f88161292f565b82525050565b6121078161286a565b82525050565b6121168161286a565b82525050565b6000612127826127eb565b6121318185612826565b935061213c836127d1565b8060005b8381101561216d57815161215488826120c3565b975061215f8361280c565b925050600181019050612140565b5085935050505092915050565b6000612185826127f6565b61218f8185612837565b9350836020820285016121a1856127de565b8060005b858110156121dd57848403895281516121be85826120db565b94506121c983612819565b925060208a019950506001810190506121a5565b50829750879550505050505092915050565b6121f88161287c565b82525050565b6122078161287c565b82525050565b600061221882612801565b6122228185612848565b935061223281856020860161299b565b61223b816129ce565b840191505092915050565b61224f81612941565b82525050565b61225e81612953565b82525050565b61226d81612965565b82525050565b6000612280602683612859565b91507f4f776e61626c653a206e6577206f776e657220697320746865207a65726f206160008301527f64647265737300000000000000000000000000000000000000000000000000006020830152604082019050919050565b60006122e6602f83612859565b91507f436f6d706f756e64416461707465722e6465706f7369743a20496e737566666960008301527f6369656e7420616c6c6f77616e636500000000000000000000000000000000006020830152604082019050919050565b600061234c602d83612859565b91507f556e6b6e6f776e206d61726b657420696420666f722074686520676976656e2060008301527f746f6b656e2061646472657373000000000000000000000000000000000000006020830152604082019050919050565b60006123b2602083612859565b91507f4f776e61626c653a2063616c6c6572206973206e6f7420746865206f776e65726000830152602082019050919050565b6040820160008201516123fb60008501826120fe565b50602082015161240e602085018261257a565b50505050565b60408201600082015161242a60008501826120fe565b50602082015161243d602085018261257a565b50505050565b60408201600082015161245960008501826120fe565b50602082015161246c602085018261257a565b50505050565b60006101608301600083015161248b6000860182612246565b50602083015161249e602086018261257a565b5060408301516124b16040860182612525565b5060608301516124c460c086018261257a565b5060808301516124d760e086018261257a565b5060a08301516124eb6101008601826120fe565b5060c08301516124ff61012086018261257a565b5060e0830151848203610140860152612518828261220d565b9150508091505092915050565b60808201600082015161253b60008501826121ef565b50602082015161254e6020850182612255565b5060408201516125616040850182612264565b506060820151612574606085018261257a565b50505050565b612583816128fd565b82525050565b612592816128fd565b82525050565b60006020820190506125ad600083018461210d565b92915050565b60006040820190506125c860008301856120ef565b6125d5602083018461210d565b9392505050565b60006060820190506125f160008301866120ef565b6125fe602083018561210d565b61260b6040830184612589565b949350505050565b6000604082019050612628600083018561210d565b6126356020830184612589565b9392505050565b60006040820190508181036000830152612656818561211c565b9050818103602083015261266a818461217a565b90509392505050565b600060208201905061268860008301846121fe565b92915050565b600060208201905081810360008301526126a781612273565b9050919050565b600060208201905081810360008301526126c7816122d9565b9050919050565b600060208201905081810360008301526126e78161233f565b9050919050565b60006020820190508181036000830152612707816123a5565b9050919050565b600060608201905061272360008301856123e5565b6127306040830184612589565b9392505050565b600060608201905061274c6000830185612443565b6127596040830184612589565b9392505050565b60006020820190506127756000830184612589565b92915050565b60006040820190506127906000830185612589565b61279d60208301846121fe565b9392505050565b6000604051905081810181811067ffffffffffffffff821117156127c757600080fd5b8060405250919050565b6000602082019050919050565b6000602082019050919050565b600081519050919050565b600081519050919050565b600081519050919050565b6000602082019050919050565b6000602082019050919050565b600082825260208201905092915050565b600082825260208201905092915050565b600082825260208201905092915050565b600082825260208201905092915050565b6000612875826128dd565b9050919050565b60008115159050919050565b6000819050612896826129df565b919050565b60008190506128a9826129ec565b919050565b60008190506128bc826129f9565b919050565b60006fffffffffffffffffffffffffffffffff82169050919050565b600073ffffffffffffffffffffffffffffffffffffffff82169050919050565b6000819050919050565b600063ffffffff82169050919050565b60006bffffffffffffffffffffffff82169050919050565b600061293a82612977565b9050919050565b600061294c82612888565b9050919050565b600061295e8261289b565b9050919050565b6000612970826128ae565b9050919050565b600061298282612989565b9050919050565b6000612994826128dd565b9050919050565b60005b838110156129b957808201518184015260208101905061299e565b838111156129c8576000848401525b50505050565b6000601f19601f8301169050919050565b600281106129e957fe5b50565b600281106129f657fe5b50565b60028110612a0357fe5b50565b612a0f8161286a565b8114612a1a57600080fd5b50565b612a268161287c565b8114612a3157600080fd5b50565b612a3d816128c1565b8114612a4857600080fd5b50565b612a54816128fd565b8114612a5f57600080fd5b50565b612a6b81612907565b8114612a7657600080fd5b50565b612a8281612917565b8114612a8d57600080fd5b5056fea265627a7a723058201b6db30b1a5f441d472ed2571127ba4511cd2e3d996793b799b54bb1d682622c6c6578706572696d656e74616cf50037",
  "source": "pragma solidity 0.5.8;\npragma experimental ABIEncoderV2;\n\nimport \"openzeppelin-solidity/contracts/math/SafeMath.sol\";\nimport \"openzeppelin-solidity/contracts/ownership/Ownable.sol\";\nimport \"openzeppelin-solidity/contracts/token/ERC20/IERC20.sol\";\n\nimport \"./Claimable.sol\";\nimport \"./IMoneyMarketAdapter.sol\";\n\ncontract SoloMargin {\n  using SafeMath for uint96;\n  using SafeMath for uint128;\n  using SafeMath for uint256;\n\n  enum ActionType {Deposit, Withdraw}\n  enum AssetDenomination {Wei, Par}\n\n  enum AssetReference {Delta, Target}\n\n  struct AccountInfo {\n    address owner;\n    uint256 number;\n  }\n  struct ActionArgs {\n    ActionType actionType;\n    uint256 accountId;\n    AssetAmount amount;\n    uint256 primaryMarketId;\n    uint256 secondaryMarketId;\n    address otherAddress;\n    uint256 otherAccountId;\n    bytes data;\n  }\n  struct AssetAmount {\n    bool sign; // true if positive\n    AssetDenomination denomination;\n    AssetReference ref;\n    uint256 value;\n  }\n  struct Index {\n    uint96 borrow;\n    uint96 supply;\n    uint32 lastUpdate;\n  }\n  struct Rate {\n    uint256 value;\n  }\n  struct TotalPar {\n    uint128 borrow;\n    uint128 supply;\n  }\n  struct Wei {\n    bool sign; // true if positive\n    uint256 value;\n  }\n\n  function getMarketInterestRate(uint256 marketId)\n    public\n    view\n    returns (Rate memory);\n\n  function getMarketTotalPar(uint256 marketId)\n    public\n    view\n    returns (TotalPar memory);\n  function getMarketCurrentIndex(uint256 marketId)\n    public\n    view\n    returns (Index memory);\n\n  function getAccountWei(AccountInfo memory account, uint256 marketId)\n    public\n    view\n    returns (Wei memory);\n\n  function operate(AccountInfo[] memory accounts, ActionArgs[] memory actions)\n    public;\n}\n\ncontract DYDXAdapter is IMoneyMarketAdapter, Ownable, Claimable {\n  // dyDx SoloMargin contract\n  SoloMargin soloMargin;\n\n  // map a token address to a dYdX market id\n  mapping(address => MarketId) public tokenToMarketId;\n\n  // this struct is necessary because 0 is a valid market id, and we want to distinguish it from unknown tokens.\n  struct MarketId {\n    uint256 id;\n    bool exists;\n  }\n\n  modifier checkMarketSupported(address tokenAddress) {\n    require(\n      _supportsToken(tokenAddress),\n      \"Unknown market id for the given token address\"\n    );\n    _;\n  }\n\n  function supportsToken(address tokenAddress) external view returns (bool) {\n    return _supportsToken(tokenAddress);\n  }\n\n  function _supportsToken(address tokenAddress) internal view returns (bool) {\n    return tokenToMarketId[tokenAddress].exists;\n  }\n\n  constructor(address soloMarginAddress) public {\n    soloMargin = SoloMargin(soloMarginAddress);\n  }\n\n  function mapTokenToMarketId(address tokenAddress, uint256 marketId)\n    external\n    onlyOwner\n  {\n    tokenToMarketId[tokenAddress].id = marketId;\n    tokenToMarketId[tokenAddress].exists = true;\n  }\n\n  function getRate(address tokenAddress)\n    external\n    view\n    checkMarketSupported(tokenAddress)\n    returns (uint256)\n  {\n    uint256 marketId = tokenToMarketId[tokenAddress].id;\n\n    SoloMargin.TotalPar memory totalPar = soloMargin.getMarketTotalPar(\n      marketId\n    );\n    SoloMargin.Index memory index = soloMargin.getMarketCurrentIndex(marketId);\n    uint256 borrowRatePerSecond = soloMargin\n      .getMarketInterestRate(marketId)\n      .value;\n\n    uint256 supplyRatePerSecond = (\n      90000 * uint256(totalPar.borrow) * uint256(\n        index.borrow\n      ) * borrowRatePerSecond\n    ) / (100000 * uint256(totalPar.supply) * uint256(index.supply));\n\n    return supplyRatePerSecond * 15;\n  }\n\n  function deposit(address tokenAddress, uint256 tokenAmount)\n    external\n    onlyOwner\n    checkMarketSupported(tokenAddress)\n  {\n    IERC20 token = IERC20(tokenAddress);\n    require(\n      token.allowance(msg.sender, address(this)) >= tokenAmount,\n      \"CompoundAdapter.deposit: Insufficient allowance\"\n    );\n    token.transferFrom(msg.sender, address(this), tokenAmount);\n    token.approve(address(soloMargin), uint256(-1));\n\n    uint256 marketId = tokenToMarketId[tokenAddress].id;\n\n    SoloMargin.AccountInfo[] memory accounts = new SoloMargin.AccountInfo[](1);\n    accounts[0] = SoloMargin.AccountInfo(address(this), 0);\n    SoloMargin.ActionArgs[] memory actions = new SoloMargin.ActionArgs[](1);\n    actions[0] = SoloMargin.ActionArgs(\n      SoloMargin.ActionType.Deposit,\n      0,\n      SoloMargin.AssetAmount(\n        true,\n        SoloMargin.AssetDenomination.Wei,\n        SoloMargin.AssetReference.Delta,\n        tokenAmount\n      ),\n      marketId,\n      0,\n      address(this),\n      0,\n      \"\"\n    );\n\n    soloMargin.operate(accounts, actions);\n  }\n\n  function withdraw(\n    address tokenAddress,\n    address recipient,\n    uint256 tokenAmount\n  ) external onlyOwner checkMarketSupported(tokenAddress) {\n    IERC20 token = IERC20(tokenAddress);\n\n    uint256 marketId = tokenToMarketId[tokenAddress].id;\n\n    SoloMargin.AccountInfo[] memory accounts = new SoloMargin.AccountInfo[](1);\n    accounts[0] = SoloMargin.AccountInfo(address(this), 0);\n    SoloMargin.ActionArgs[] memory actions = new SoloMargin.ActionArgs[](1);\n    actions[0] = SoloMargin.ActionArgs(\n      SoloMargin.ActionType.Withdraw,\n      0,\n      SoloMargin.AssetAmount(\n        false,\n        SoloMargin.AssetDenomination.Wei,\n        SoloMargin.AssetReference.Delta,\n        tokenAmount\n      ),\n      marketId,\n      0,\n      address(this),\n      0,\n      \"\"\n    );\n    soloMargin.operate(accounts, actions);\n\n    token.transfer(recipient, tokenAmount);\n  }\n\n  function withdrawAll(address tokenAddress, address recipient)\n    external\n    onlyOwner\n    checkMarketSupported(tokenAddress)\n  {\n    IERC20 token = IERC20(tokenAddress);\n\n    uint256 marketId = tokenToMarketId[tokenAddress].id;\n\n    SoloMargin.AccountInfo[] memory accounts = new SoloMargin.AccountInfo[](1);\n    accounts[0] = SoloMargin.AccountInfo(address(this), 0);\n\n    uint256 balance = soloMargin.getAccountWei(accounts[0], marketId).value;\n\n    SoloMargin.ActionArgs[] memory actions = new SoloMargin.ActionArgs[](1);\n    actions[0] = SoloMargin.ActionArgs(\n      SoloMargin.ActionType.Withdraw,\n      0,\n      SoloMargin.AssetAmount(\n        false,\n        SoloMargin.AssetDenomination.Wei,\n        SoloMargin.AssetReference.Delta,\n        balance\n      ),\n      marketId,\n      0,\n      address(this),\n      0,\n      \"\"\n    );\n    soloMargin.operate(accounts, actions);\n\n    token.transfer(recipient, token.balanceOf(address(this)));\n  }\n\n  function claimTokens(address tokenAddress, address recipient)\n    external\n    onlyOwner\n  {\n    _claimTokens(tokenAddress, recipient);\n  }\n\n  function getSupply(address tokenAddress) external returns (uint256) {\n    return this.getSupplyView(tokenAddress);\n  }\n\n  function getSupplyView(address tokenAddress) external view returns (uint256) {\n    uint256 marketId = tokenToMarketId[tokenAddress].id;\n    SoloMargin.AccountInfo memory account = SoloMargin.AccountInfo(\n      address(this),\n      0\n    );\n\n    return soloMargin.getAccountWei(account, marketId).value;\n  }\n}\n",
  "sourcePath": "/home/fvictorio/repos/sovereign/blockchain/contracts/DYDXAdapter.sol",
  "compiler": {
    "name": "solc",
    "version": "0.5.8+commit.23d335f2.Emscripten.clang"
  },
  "schemaVersion": "3.0.11",
  "updatedAt": "2019-10-21T20:26:44.114Z",
  "devdoc": {
    "methods": {
      "isOwner()": {
        "details": "Returns true if the caller is the current owner."
      },
      "owner()": {
        "details": "Returns the address of the current owner."
      },
      "renounceOwnership()": {
        "details": "Leaves the contract without owner. It will not be possible to call `onlyOwner` functions anymore. Can only be called by the current owner.     * > Note: Renouncing ownership will leave the contract without an owner, thereby removing any functionality that is only available to the owner."
      },
      "transferOwnership(address)": {
        "details": "Transfers ownership of the contract to a new account (`newOwner`). Can only be called by the current owner."
      }
    }
  },
  "userdoc": {
    "methods": {}
  }
}