{
  "contractName": "DYDXAdapter",
  "abi": [
    {
      "constant": false,
      "inputs": [],
      "name": "renounceOwnership",
      "outputs": [],
      "payable": false,
      "stateMutability": "nonpayable",
      "type": "function"
    },
    {
      "constant": true,
      "inputs": [],
      "name": "owner",
      "outputs": [
        {
          "name": "",
          "type": "address"
        }
      ],
      "payable": false,
      "stateMutability": "view",
      "type": "function"
    },
    {
      "constant": true,
      "inputs": [],
      "name": "isOwner",
      "outputs": [
        {
          "name": "",
          "type": "bool"
        }
      ],
      "payable": false,
      "stateMutability": "view",
      "type": "function"
    },
    {
      "constant": true,
      "inputs": [
        {
          "name": "",
          "type": "address"
        }
      ],
      "name": "tokenToMarketId",
      "outputs": [
        {
          "name": "id",
          "type": "uint256"
        },
        {
          "name": "exists",
          "type": "bool"
        }
      ],
      "payable": false,
      "stateMutability": "view",
      "type": "function"
    },
    {
      "constant": false,
      "inputs": [
        {
          "name": "newOwner",
          "type": "address"
        }
      ],
      "name": "transferOwnership",
      "outputs": [],
      "payable": false,
      "stateMutability": "nonpayable",
      "type": "function"
    },
    {
      "inputs": [
        {
          "name": "soloMarginAddress",
          "type": "address"
        }
      ],
      "payable": false,
      "stateMutability": "nonpayable",
      "type": "constructor"
    },
    {
      "anonymous": false,
      "inputs": [
        {
          "indexed": true,
          "name": "previousOwner",
          "type": "address"
        },
        {
          "indexed": true,
          "name": "newOwner",
          "type": "address"
        }
      ],
      "name": "OwnershipTransferred",
      "type": "event"
    },
    {
      "constant": true,
      "inputs": [
        {
          "name": "tokenAddress",
          "type": "address"
        }
      ],
      "name": "supportsToken",
      "outputs": [
        {
          "name": "",
          "type": "bool"
        }
      ],
      "payable": false,
      "stateMutability": "view",
      "type": "function"
    },
    {
      "constant": false,
      "inputs": [
        {
          "name": "tokenAddress",
          "type": "address"
        },
        {
          "name": "marketId",
          "type": "uint256"
        }
      ],
      "name": "mapTokenToMarketId",
      "outputs": [],
      "payable": false,
      "stateMutability": "nonpayable",
      "type": "function"
    },
    {
      "constant": true,
      "inputs": [
        {
          "name": "tokenAddress",
          "type": "address"
        }
      ],
      "name": "getRate",
      "outputs": [
        {
          "name": "",
          "type": "uint256"
        }
      ],
      "payable": false,
      "stateMutability": "view",
      "type": "function"
    },
    {
      "constant": false,
      "inputs": [
        {
          "name": "tokenAddress",
          "type": "address"
        },
        {
          "name": "tokenAmount",
          "type": "uint256"
        }
      ],
      "name": "deposit",
      "outputs": [],
      "payable": false,
      "stateMutability": "nonpayable",
      "type": "function"
    },
    {
      "constant": false,
      "inputs": [
        {
          "name": "tokenAddress",
          "type": "address"
        },
        {
          "name": "recipient",
          "type": "address"
        },
        {
          "name": "tokenAmount",
          "type": "uint256"
        }
      ],
      "name": "withdraw",
      "outputs": [],
      "payable": false,
      "stateMutability": "nonpayable",
      "type": "function"
    },
    {
      "constant": false,
      "inputs": [
        {
          "name": "tokenAddress",
          "type": "address"
        },
        {
          "name": "recipient",
          "type": "address"
        }
      ],
      "name": "withdrawAll",
      "outputs": [],
      "payable": false,
      "stateMutability": "nonpayable",
      "type": "function"
    },
    {
      "constant": false,
      "inputs": [
        {
          "name": "tokenAddress",
          "type": "address"
        },
        {
          "name": "recipient",
          "type": "address"
        }
      ],
      "name": "claimTokens",
      "outputs": [],
      "payable": false,
      "stateMutability": "nonpayable",
      "type": "function"
    },
    {
      "constant": false,
      "inputs": [
        {
          "name": "tokenAddress",
          "type": "address"
        }
      ],
      "name": "getSupply",
      "outputs": [
        {
          "name": "",
          "type": "uint256"
        }
      ],
      "payable": false,
      "stateMutability": "nonpayable",
      "type": "function"
    },
    {
      "constant": true,
      "inputs": [
        {
          "name": "tokenAddress",
          "type": "address"
        }
      ],
      "name": "getSupplyView",
      "outputs": [
        {
          "name": "",
          "type": "uint256"
        }
      ],
      "payable": false,
      "stateMutability": "view",
      "type": "function"
    }
  ],
  "bytecode": "0x60806040523480156200001157600080fd5b506040516020806200288183398101806040526200003391908101906200014e565b336000806101000a81548173ffffffffffffffffffffffffffffffffffffffff021916908373ffffffffffffffffffffffffffffffffffffffff1602179055506000809054906101000a900473ffffffffffffffffffffffffffffffffffffffff1673ffffffffffffffffffffffffffffffffffffffff16600073ffffffffffffffffffffffffffffffffffffffff167f8be0079c531659141344cd1fd0a4f28419497f9722a3daafe3b4186f6b6457e060405160405180910390a380600160006101000a81548173ffffffffffffffffffffffffffffffffffffffff021916908373ffffffffffffffffffffffffffffffffffffffff16021790555050620001c8565b6000815190506200014881620001ae565b92915050565b6000602082840312156200016157600080fd5b6000620001718482850162000137565b91505092915050565b600062000187826200018e565b9050919050565b600073ffffffffffffffffffffffffffffffffffffffff82169050919050565b620001b9816200017a565b8114620001c557600080fd5b50565b6126a980620001d86000396000f3fe608060405234801561001057600080fd5b50600436106100ea5760003560e01c80638da5cb5b1161008c578063d9caed1211610066578063d9caed121461024a578063ed8a1e5414610266578063f2fde38b14610296578063fff41246146102b2576100ea565b80638da5cb5b146101dd5780638f32d59b146101fb578063b826878814610219576100ea565b806337cef791116100c857806337cef7911461016b57806347e7ef241461019b57806369ffa08a146101b7578063715018a6146101d3576100ea565b8063061f7650146100ef57806309cae2c81461011f5780631fd433aa1461013b575b600080fd5b61010960048036036101049190810190611b97565b6102ce565b60405161011691906122db565b60405180910390f35b61013960048036036101349190810190611bc0565b6102e0565b005b61015560048036036101509190810190611b97565b6107b7565b60405161016291906123c8565b60405180910390f35b61018560048036036101809190810190611b97565b610849565b60405161019291906123c8565b60405180910390f35b6101b560048036036101b09190810190611c4b565b61099c565b005b6101d160048036036101cc9190810190611bc0565b610ec2565b005b6101db610f17565b005b6101e561101d565b6040516101f29190612200565b60405180910390f35b610203611046565b60405161021091906122db565b60405180910390f35b610233600480360361022e9190810190611b97565b61109d565b6040516102419291906123e3565b60405180910390f35b610264600480360361025f9190810190611bfc565b6110ce565b005b610280600480360361027b9190810190611b97565b611455565b60405161028d91906123c8565b60405180910390f35b6102b060048036036102ab9190810190611b97565b61158c565b005b6102cc60048036036102c79190810190611c4b565b6115df565b005b60006102d9826116cc565b9050919050565b6102e8611046565b610327576040517f08c379a000000000000000000000000000000000000000000000000000000000815260040161031e90612356565b60405180910390fd5b81610331816116cc565b610370576040517f08c379a000000000000000000000000000000000000000000000000000000000815260040161036790612336565b60405180910390fd5b60008390506000600260008673ffffffffffffffffffffffffffffffffffffffff1673ffffffffffffffffffffffffffffffffffffffff168152602001908152602001600020600001549050606060016040519080825280602002602001820160405280156103f957816020015b6103e66119b3565b8152602001906001900390816103de5790505b50905060405180604001604052803073ffffffffffffffffffffffffffffffffffffffff16815260200160008152508160008151811061043557fe5b60200260200101819052506000600160009054906101000a900473ffffffffffffffffffffffffffffffffffffffff1673ffffffffffffffffffffffffffffffffffffffff1663c190c2ec8360008151811061048d57fe5b6020026020010151856040518363ffffffff1660e01b81526004016104b392919061239f565b604080518083038186803b1580156104ca57600080fd5b505afa1580156104de573d6000803e3d6000fd5b505050506040513d601f19601f820116820180604052506105029190810190611cd9565b6020015190506060600160405190808252806020026020018201604052801561054557816020015b6105326119e3565b81526020019060019003908161052a5790505b50905060405180610100016040528060018081111561056057fe5b81526020016000815260200160405180608001604052806000151581526020016000600181111561058d57fe5b81526020016000600181111561059f57fe5b8152602001858152508152602001858152602001600081526020013073ffffffffffffffffffffffffffffffffffffffff1681526020016000815260200160405180602001604052806000815250815250816000815181106105fd57fe5b6020026020010181905250600160009054906101000a900473ffffffffffffffffffffffffffffffffffffffff1673ffffffffffffffffffffffffffffffffffffffff1663a67a6a4584836040518363ffffffff1660e01b81526004016106659291906122a4565b600060405180830381600087803b15801561067f57600080fd5b505af1158015610693573d6000803e3d6000fd5b505050508473ffffffffffffffffffffffffffffffffffffffff1663a9059cbb888773ffffffffffffffffffffffffffffffffffffffff166370a08231306040518263ffffffff1660e01b81526004016106ed9190612200565b60206040518083038186803b15801561070557600080fd5b505afa158015610719573d6000803e3d6000fd5b505050506040513d601f19601f8201168201806040525061073d9190810190611d02565b6040518363ffffffff1660e01b815260040161075a92919061227b565b602060405180830381600087803b15801561077457600080fd5b505af1158015610788573d6000803e3d6000fd5b505050506040513d601f19601f820116820180604052506107ac9190810190611c87565b505050505050505050565b60003073ffffffffffffffffffffffffffffffffffffffff1663ed8a1e54836040518263ffffffff1660e01b81526004016107f29190612200565b60206040518083038186803b15801561080a57600080fd5b505afa15801561081e573d6000803e3d6000fd5b505050506040513d601f19601f820116820180604052506108429190810190611d02565b9050919050565b600081610855816116cc565b610894576040517f08c379a000000000000000000000000000000000000000000000000000000000815260040161088b90612336565b60405180910390fd5b6000600260008573ffffffffffffffffffffffffffffffffffffffff1673ffffffffffffffffffffffffffffffffffffffff1681526020019081526020016000206000015490506000600160009054906101000a900473ffffffffffffffffffffffffffffffffffffffff1673ffffffffffffffffffffffffffffffffffffffff1663fd47eda6836040518263ffffffff1660e01b815260040161093891906123c8565b60206040518083038186803b15801561095057600080fd5b505afa158015610964573d6000803e3d6000fd5b505050506040513d601f19601f820116820180604052506109889190810190611cb0565b600001519050600f81029350505050919050565b6109a4611046565b6109e3576040517f08c379a00000000000000000000000000000000000000000000000000000000081526004016109da90612356565b60405180910390fd5b816109ed816116cc565b610a2c576040517f08c379a0000000000000000000000000000000000000000000000000000000008152600401610a2390612336565b60405180910390fd5b6000839050828173ffffffffffffffffffffffffffffffffffffffff1663dd62ed3e33306040518363ffffffff1660e01b8152600401610a6d92919061221b565b60206040518083038186803b158015610a8557600080fd5b505afa158015610a99573d6000803e3d6000fd5b505050506040513d601f19601f82011682018060405250610abd9190810190611d02565b1015610afe576040517f08c379a0000000000000000000000000000000000000000000000000000000008152600401610af590612316565b60405180910390fd5b8073ffffffffffffffffffffffffffffffffffffffff166323b872dd3330866040518463ffffffff1660e01b8152600401610b3b93929190612244565b602060405180830381600087803b158015610b5557600080fd5b505af1158015610b69573d6000803e3d6000fd5b505050506040513d601f19601f82011682018060405250610b8d9190810190611c87565b508073ffffffffffffffffffffffffffffffffffffffff1663095ea7b3600160009054906101000a900473ffffffffffffffffffffffffffffffffffffffff167fffffffffffffffffffffffffffffffffffffffffffffffffffffffffffffffff6040518363ffffffff1660e01b8152600401610c0b92919061227b565b602060405180830381600087803b158015610c2557600080fd5b505af1158015610c39573d6000803e3d6000fd5b505050506040513d601f19601f82011682018060405250610c5d9190810190611c87565b506000600260008673ffffffffffffffffffffffffffffffffffffffff1673ffffffffffffffffffffffffffffffffffffffff16815260200190815260200160002060000154905060606001604051908082528060200260200182016040528015610ce257816020015b610ccf6119b3565b815260200190600190039081610cc75790505b50905060405180604001604052803073ffffffffffffffffffffffffffffffffffffffff168152602001600081525081600081518110610d1e57fe5b602002602001018190525060606001604051908082528060200260200182016040528015610d6657816020015b610d536119e3565b815260200190600190039081610d4b5790505b50905060405180610100016040528060006001811115610d8257fe5b815260200160008152602001604051806080016040528060011515815260200160006001811115610daf57fe5b815260200160006001811115610dc157fe5b8152602001898152508152602001848152602001600081526020013073ffffffffffffffffffffffffffffffffffffffff168152602001600081526020016040518060200160405280600081525081525081600081518110610e1f57fe5b6020026020010181905250600160009054906101000a900473ffffffffffffffffffffffffffffffffffffffff1673ffffffffffffffffffffffffffffffffffffffff1663a67a6a4583836040518363ffffffff1660e01b8152600401610e879291906122a4565b600060405180830381600087803b158015610ea157600080fd5b505af1158015610eb5573d6000803e3d6000fd5b5050505050505050505050565b610eca611046565b610f09576040517f08c379a0000000000000000000000000000000000000000000000000000000008152600401610f0090612356565b60405180910390fd5b610f138282611725565b5050565b610f1f611046565b610f5e576040517f08c379a0000000000000000000000000000000000000000000000000000000008152600401610f5590612356565b60405180910390fd5b600073ffffffffffffffffffffffffffffffffffffffff166000809054906101000a900473ffffffffffffffffffffffffffffffffffffffff1673ffffffffffffffffffffffffffffffffffffffff167f8be0079c531659141344cd1fd0a4f28419497f9722a3daafe3b4186f6b6457e060405160405180910390a360008060006101000a81548173ffffffffffffffffffffffffffffffffffffffff021916908373ffffffffffffffffffffffffffffffffffffffff160217905550565b60008060009054906101000a900473ffffffffffffffffffffffffffffffffffffffff16905090565b60008060009054906101000a900473ffffffffffffffffffffffffffffffffffffffff1673ffffffffffffffffffffffffffffffffffffffff163373ffffffffffffffffffffffffffffffffffffffff1614905090565b60026020528060005260406000206000915090508060000154908060010160009054906101000a900460ff16905082565b6110d6611046565b611115576040517f08c379a000000000000000000000000000000000000000000000000000000000815260040161110c90612356565b60405180910390fd5b8261111f816116cc565b61115e576040517f08c379a000000000000000000000000000000000000000000000000000000000815260040161115590612336565b60405180910390fd5b60008490506000600260008773ffffffffffffffffffffffffffffffffffffffff1673ffffffffffffffffffffffffffffffffffffffff168152602001908152602001600020600001549050606060016040519080825280602002602001820160405280156111e757816020015b6111d46119b3565b8152602001906001900390816111cc5790505b50905060405180604001604052803073ffffffffffffffffffffffffffffffffffffffff16815260200160008152508160008151811061122357fe5b60200260200101819052506060600160405190808252806020026020018201604052801561126b57816020015b6112586119e3565b8152602001906001900390816112505790505b50905060405180610100016040528060018081111561128657fe5b8152602001600081526020016040518060800160405280600015158152602001600060018111156112b357fe5b8152602001600060018111156112c557fe5b8152602001898152508152602001848152602001600081526020013073ffffffffffffffffffffffffffffffffffffffff16815260200160008152602001604051806020016040528060008152508152508160008151811061132357fe5b6020026020010181905250600160009054906101000a900473ffffffffffffffffffffffffffffffffffffffff1673ffffffffffffffffffffffffffffffffffffffff1663a67a6a4583836040518363ffffffff1660e01b815260040161138b9291906122a4565b600060405180830381600087803b1580156113a557600080fd5b505af11580156113b9573d6000803e3d6000fd5b505050508373ffffffffffffffffffffffffffffffffffffffff1663a9059cbb88886040518363ffffffff1660e01b81526004016113f892919061227b565b602060405180830381600087803b15801561141257600080fd5b505af1158015611426573d6000803e3d6000fd5b505050506040513d601f19601f8201168201806040525061144a9190810190611c87565b505050505050505050565b600080600260008473ffffffffffffffffffffffffffffffffffffffff1673ffffffffffffffffffffffffffffffffffffffff1681526020019081526020016000206000015490506114a5611a4f565b60405180604001604052803073ffffffffffffffffffffffffffffffffffffffff16815260200160008152509050600160009054906101000a900473ffffffffffffffffffffffffffffffffffffffff1673ffffffffffffffffffffffffffffffffffffffff1663c190c2ec82846040518363ffffffff1660e01b8152600401611530929190612376565b604080518083038186803b15801561154757600080fd5b505afa15801561155b573d6000803e3d6000fd5b505050506040513d601f19601f8201168201806040525061157f9190810190611cd9565b6020015192505050919050565b611594611046565b6115d3576040517f08c379a00000000000000000000000000000000000000000000000000000000081526004016115ca90612356565b60405180910390fd5b6115dc81611885565b50565b6115e7611046565b611626576040517f08c379a000000000000000000000000000000000000000000000000000000000815260040161161d90612356565b60405180910390fd5b80600260008473ffffffffffffffffffffffffffffffffffffffff1673ffffffffffffffffffffffffffffffffffffffff168152602001908152602001600020600001819055506001600260008473ffffffffffffffffffffffffffffffffffffffff1673ffffffffffffffffffffffffffffffffffffffff16815260200190815260200160002060010160006101000a81548160ff0219169083151502179055505050565b6000600260008373ffffffffffffffffffffffffffffffffffffffff1673ffffffffffffffffffffffffffffffffffffffff16815260200190815260200160002060010160009054906101000a900460ff169050919050565b600073ffffffffffffffffffffffffffffffffffffffff168173ffffffffffffffffffffffffffffffffffffffff16141561175f57600080fd5b600082905060008173ffffffffffffffffffffffffffffffffffffffff166370a08231306040518263ffffffff1660e01b815260040161179f9190612200565b60206040518083038186803b1580156117b757600080fd5b505afa1580156117cb573d6000803e3d6000fd5b505050506040513d601f19601f820116820180604052506117ef9190810190611d02565b90508173ffffffffffffffffffffffffffffffffffffffff1663a9059cbb84836040518363ffffffff1660e01b815260040161182c92919061227b565b602060405180830381600087803b15801561184657600080fd5b505af115801561185a573d6000803e3d6000fd5b505050506040513d601f19601f8201168201806040525061187e9190810190611c87565b5050505050565b600073ffffffffffffffffffffffffffffffffffffffff168173ffffffffffffffffffffffffffffffffffffffff1614156118f5576040517f08c379a00000000000000000000000000000000000000000000000000000000081526004016118ec906122f6565b60405180910390fd5b8073ffffffffffffffffffffffffffffffffffffffff166000809054906101000a900473ffffffffffffffffffffffffffffffffffffffff1673ffffffffffffffffffffffffffffffffffffffff167f8be0079c531659141344cd1fd0a4f28419497f9722a3daafe3b4186f6b6457e060405160405180910390a3806000806101000a81548173ffffffffffffffffffffffffffffffffffffffff021916908373ffffffffffffffffffffffffffffffffffffffff16021790555050565b6040518060400160405280600073ffffffffffffffffffffffffffffffffffffffff168152602001600081525090565b604051806101600160405280600060018111156119fc57fe5b815260200160008152602001611a10611a7f565b81526020016000815260200160008152602001600073ffffffffffffffffffffffffffffffffffffffff16815260200160008152602001606081525090565b6040518060400160405280600073ffffffffffffffffffffffffffffffffffffffff168152602001600081525090565b604051806080016040528060001515815260200160006001811115611aa057fe5b815260200160006001811115611ab257fe5b8152602001600081525090565b600081359050611ace8161262a565b92915050565b600081519050611ae381612641565b92915050565b600060208284031215611afb57600080fd5b611b05602061240c565b90506000611b1584828501611b82565b60008301525092915050565b600060408284031215611b3357600080fd5b611b3d604061240c565b90506000611b4d84828501611ad4565b6000830152506020611b6184828501611b82565b60208301525092915050565b600081359050611b7c81612658565b92915050565b600081519050611b9181612658565b92915050565b600060208284031215611ba957600080fd5b6000611bb784828501611abf565b91505092915050565b60008060408385031215611bd357600080fd5b6000611be185828601611abf565b9250506020611bf285828601611abf565b9150509250929050565b600080600060608486031215611c1157600080fd5b6000611c1f86828701611abf565b9350506020611c3086828701611abf565b9250506040611c4186828701611b6d565b9150509250925092565b60008060408385031215611c5e57600080fd5b6000611c6c85828601611abf565b9250506020611c7d85828601611b6d565b9150509250929050565b600060208284031215611c9957600080fd5b6000611ca784828501611ad4565b91505092915050565b600060208284031215611cc257600080fd5b6000611cd084828501611ae9565b91505092915050565b600060408284031215611ceb57600080fd5b6000611cf984828501611b21565b91505092915050565b600060208284031215611d1457600080fd5b6000611d2284828501611b82565b91505092915050565b6000611d37838361207c565b60408301905092915050565b6000611d4f83836120da565b905092915050565b611d6081612553565b82525050565b611d6f816124d2565b82525050565b611d7e816124d2565b82525050565b6000611d8f82612453565b611d99818561248e565b9350611da483612439565b8060005b83811015611dd5578151611dbc8882611d2b565b9750611dc783612474565b925050600181019050611da8565b5085935050505092915050565b6000611ded8261245e565b611df7818561249f565b935083602082028501611e0985612446565b8060005b85811015611e455784840389528151611e268582611d43565b9450611e3183612481565b925060208a01995050600181019050611e0d565b50829750879550505050505092915050565b611e60816124e4565b82525050565b611e6f816124e4565b82525050565b6000611e8082612469565b611e8a81856124b0565b9350611e9a8185602086016125bf565b611ea3816125f2565b840191505092915050565b611eb781612565565b82525050565b611ec681612577565b82525050565b611ed581612589565b82525050565b6000611ee86026836124c1565b91507f4f776e61626c653a206e6577206f776e657220697320746865207a65726f206160008301527f64647265737300000000000000000000000000000000000000000000000000006020830152604082019050919050565b6000611f4e602f836124c1565b91507f436f6d706f756e64416461707465722e6465706f7369743a20496e737566666960008301527f6369656e7420616c6c6f77616e636500000000000000000000000000000000006020830152604082019050919050565b6000611fb4602d836124c1565b91507f556e6b6e6f776e206d61726b657420696420666f722074686520676976656e2060008301527f746f6b656e2061646472657373000000000000000000000000000000000000006020830152604082019050919050565b600061201a6020836124c1565b91507f4f776e61626c653a2063616c6c6572206973206e6f7420746865206f776e65726000830152602082019050919050565b6040820160008201516120636000850182611d66565b50602082015161207660208501826121e2565b50505050565b6040820160008201516120926000850182611d66565b5060208201516120a560208501826121e2565b50505050565b6040820160008201516120c16000850182611d66565b5060208201516120d460208501826121e2565b50505050565b6000610160830160008301516120f36000860182611eae565b50602083015161210660208601826121e2565b506040830151612119604086018261218d565b50606083015161212c60c08601826121e2565b50608083015161213f60e08601826121e2565b5060a0830151612153610100860182611d66565b5060c08301516121676101208601826121e2565b5060e08301518482036101408601526121808282611e75565b9150508091505092915050565b6080820160008201516121a36000850182611e57565b5060208201516121b66020850182611ebd565b5060408201516121c96040850182611ecc565b5060608201516121dc60608501826121e2565b50505050565b6121eb81612549565b82525050565b6121fa81612549565b82525050565b60006020820190506122156000830184611d75565b92915050565b60006040820190506122306000830185611d57565b61223d6020830184611d75565b9392505050565b60006060820190506122596000830186611d57565b6122666020830185611d75565b61227360408301846121f1565b949350505050565b60006040820190506122906000830185611d75565b61229d60208301846121f1565b9392505050565b600060408201905081810360008301526122be8185611d84565b905081810360208301526122d28184611de2565b90509392505050565b60006020820190506122f06000830184611e66565b92915050565b6000602082019050818103600083015261230f81611edb565b9050919050565b6000602082019050818103600083015261232f81611f41565b9050919050565b6000602082019050818103600083015261234f81611fa7565b9050919050565b6000602082019050818103600083015261236f8161200d565b9050919050565b600060608201905061238b600083018561204d565b61239860408301846121f1565b9392505050565b60006060820190506123b460008301856120ab565b6123c160408301846121f1565b9392505050565b60006020820190506123dd60008301846121f1565b92915050565b60006040820190506123f860008301856121f1565b6124056020830184611e66565b9392505050565b6000604051905081810181811067ffffffffffffffff8211171561242f57600080fd5b8060405250919050565b6000602082019050919050565b6000602082019050919050565b600081519050919050565b600081519050919050565b600081519050919050565b6000602082019050919050565b6000602082019050919050565b600082825260208201905092915050565b600082825260208201905092915050565b600082825260208201905092915050565b600082825260208201905092915050565b60006124dd82612529565b9050919050565b60008115159050919050565b60008190506124fe82612603565b919050565b600081905061251182612610565b919050565b60008190506125248261261d565b919050565b600073ffffffffffffffffffffffffffffffffffffffff82169050919050565b6000819050919050565b600061255e8261259b565b9050919050565b6000612570826124f0565b9050919050565b600061258282612503565b9050919050565b600061259482612516565b9050919050565b60006125a6826125ad565b9050919050565b60006125b882612529565b9050919050565b60005b838110156125dd5780820151818401526020810190506125c2565b838111156125ec576000848401525b50505050565b6000601f19601f8301169050919050565b6002811061260d57fe5b50565b6002811061261a57fe5b50565b6002811061262757fe5b50565b612633816124d2565b811461263e57600080fd5b50565b61264a816124e4565b811461265557600080fd5b50565b61266181612549565b811461266c57600080fd5b5056fea265627a7a72305820310068ff38c28c48f797ef14ab0dc208f5446e2a250c9a1f022465585d28935c6c6578706572696d656e74616cf50037",
  "source": "pragma solidity 0.5.8;\npragma experimental ABIEncoderV2;\n\nimport \"openzeppelin-solidity/contracts/ownership/Ownable.sol\";\nimport \"openzeppelin-solidity/contracts/token/ERC20/IERC20.sol\";\n\nimport \"./Claimable.sol\";\nimport \"./IMoneyMarketAdapter.sol\";\n\ncontract SoloMargin {\n  enum ActionType {Deposit, Withdraw}\n  enum AssetDenomination {Wei, Par}\n\n  enum AssetReference {Delta, Target}\n\n  struct AccountInfo {\n    address owner;\n    uint256 number;\n  }\n  struct ActionArgs {\n    ActionType actionType;\n    uint256 accountId;\n    AssetAmount amount;\n    uint256 primaryMarketId;\n    uint256 secondaryMarketId;\n    address otherAddress;\n    uint256 otherAccountId;\n    bytes data;\n  }\n  struct AssetAmount {\n    bool sign; // true if positive\n    AssetDenomination denomination;\n    AssetReference ref;\n    uint256 value;\n  }\n  struct Rate {\n    uint256 value;\n  }\n  struct Wei {\n    bool sign; // true if positive\n    uint256 value;\n  }\n\n  function getMarketInterestRate(uint256 marketId)\n    public\n    view\n    returns (Rate memory);\n\n  function getAccountWei(AccountInfo memory account, uint256 marketId)\n    public\n    view\n    returns (Wei memory);\n\n  function operate(AccountInfo[] memory accounts, ActionArgs[] memory actions)\n    public;\n}\n\ncontract DYDXAdapter is IMoneyMarketAdapter, Ownable, Claimable {\n  // dyDx SoloMargin contract\n  SoloMargin soloMargin;\n\n  // map a token address to a dYdX market id\n  mapping(address => MarketId) public tokenToMarketId;\n\n  // this struct is necessary because 0 is a valid market id, and we want to distinguish it from unknown tokens.\n  struct MarketId {\n    uint256 id;\n    bool exists;\n  }\n\n  modifier checkMarketSupported(address tokenAddress) {\n    require(\n      _supportsToken(tokenAddress),\n      \"Unknown market id for the given token address\"\n    );\n    _;\n  }\n\n  function supportsToken(address tokenAddress) external view returns (bool) {\n    return _supportsToken(tokenAddress);\n  }\n\n  function _supportsToken(address tokenAddress) internal view returns (bool) {\n    return tokenToMarketId[tokenAddress].exists;\n  }\n\n  constructor(address soloMarginAddress) public {\n    soloMargin = SoloMargin(soloMarginAddress);\n  }\n\n  function mapTokenToMarketId(address tokenAddress, uint256 marketId)\n    external\n    onlyOwner\n  {\n    tokenToMarketId[tokenAddress].id = marketId;\n    tokenToMarketId[tokenAddress].exists = true;\n  }\n\n  function getRate(address tokenAddress)\n    external\n    view\n    checkMarketSupported(tokenAddress)\n    returns (uint256)\n  {\n    uint256 marketId = tokenToMarketId[tokenAddress].id;\n\n    uint256 ratePerSecond = soloMargin.getMarketInterestRate(marketId).value;\n\n    return ratePerSecond * 15;\n  }\n\n  function deposit(address tokenAddress, uint256 tokenAmount)\n    external\n    onlyOwner\n    checkMarketSupported(tokenAddress)\n  {\n    IERC20 token = IERC20(tokenAddress);\n    require(\n      token.allowance(msg.sender, address(this)) >= tokenAmount,\n      \"CompoundAdapter.deposit: Insufficient allowance\"\n    );\n    token.transferFrom(msg.sender, address(this), tokenAmount);\n    token.approve(address(soloMargin), uint256(-1));\n\n    uint256 marketId = tokenToMarketId[tokenAddress].id;\n\n    SoloMargin.AccountInfo[] memory accounts = new SoloMargin.AccountInfo[](1);\n    accounts[0] = SoloMargin.AccountInfo(address(this), 0);\n    SoloMargin.ActionArgs[] memory actions = new SoloMargin.ActionArgs[](1);\n    actions[0] = SoloMargin.ActionArgs(\n      SoloMargin.ActionType.Deposit,\n      0,\n      SoloMargin.AssetAmount(\n        true,\n        SoloMargin.AssetDenomination.Wei,\n        SoloMargin.AssetReference.Delta,\n        tokenAmount\n      ),\n      marketId,\n      0,\n      address(this),\n      0,\n      \"\"\n    );\n\n    soloMargin.operate(accounts, actions);\n  }\n\n  function withdraw(\n    address tokenAddress,\n    address recipient,\n    uint256 tokenAmount\n  ) external onlyOwner checkMarketSupported(tokenAddress) {\n    IERC20 token = IERC20(tokenAddress);\n\n    uint256 marketId = tokenToMarketId[tokenAddress].id;\n\n    SoloMargin.AccountInfo[] memory accounts = new SoloMargin.AccountInfo[](1);\n    accounts[0] = SoloMargin.AccountInfo(address(this), 0);\n    SoloMargin.ActionArgs[] memory actions = new SoloMargin.ActionArgs[](1);\n    actions[0] = SoloMargin.ActionArgs(\n      SoloMargin.ActionType.Withdraw,\n      0,\n      SoloMargin.AssetAmount(\n        false,\n        SoloMargin.AssetDenomination.Wei,\n        SoloMargin.AssetReference.Delta,\n        tokenAmount\n      ),\n      marketId,\n      0,\n      address(this),\n      0,\n      \"\"\n    );\n    soloMargin.operate(accounts, actions);\n\n    token.transfer(recipient, tokenAmount);\n  }\n\n  function withdrawAll(address tokenAddress, address recipient)\n    external\n    onlyOwner\n    checkMarketSupported(tokenAddress)\n  {\n    IERC20 token = IERC20(tokenAddress);\n\n    uint256 marketId = tokenToMarketId[tokenAddress].id;\n\n    SoloMargin.AccountInfo[] memory accounts = new SoloMargin.AccountInfo[](1);\n    accounts[0] = SoloMargin.AccountInfo(address(this), 0);\n\n    uint256 balance = soloMargin.getAccountWei(accounts[0], marketId).value;\n\n    SoloMargin.ActionArgs[] memory actions = new SoloMargin.ActionArgs[](1);\n    actions[0] = SoloMargin.ActionArgs(\n      SoloMargin.ActionType.Withdraw,\n      0,\n      SoloMargin.AssetAmount(\n        false,\n        SoloMargin.AssetDenomination.Wei,\n        SoloMargin.AssetReference.Delta,\n        balance\n      ),\n      marketId,\n      0,\n      address(this),\n      0,\n      \"\"\n    );\n    soloMargin.operate(accounts, actions);\n\n    token.transfer(recipient, token.balanceOf(address(this)));\n  }\n\n  function claimTokens(address tokenAddress, address recipient)\n    external\n    onlyOwner\n  {\n    _claimTokens(tokenAddress, recipient);\n  }\n\n  function getSupply(address tokenAddress) external returns (uint256) {\n    return this.getSupplyView(tokenAddress);\n  }\n\n  function getSupplyView(address tokenAddress) external view returns (uint256) {\n    uint256 marketId = tokenToMarketId[tokenAddress].id;\n    SoloMargin.AccountInfo memory account = SoloMargin.AccountInfo(\n      address(this),\n      0\n    );\n\n    return soloMargin.getAccountWei(account, marketId).value;\n  }\n}\n",
  "sourcePath": "/home/fvictorio/repos/sovereign/blockchain/contracts/DYDXAdapter.sol",
  "compiler": {
    "name": "solc",
    "version": "0.5.8+commit.23d335f2.Emscripten.clang"
  },
  "schemaVersion": "3.0.11",
  "updatedAt": "2019-07-26T12:40:46.418Z",
  "devdoc": {
    "methods": {
      "isOwner()": {
        "details": "Returns true if the caller is the current owner."
      },
      "owner()": {
        "details": "Returns the address of the current owner."
      },
      "renounceOwnership()": {
        "details": "Leaves the contract without owner. It will not be possible to call `onlyOwner` functions anymore. Can only be called by the current owner.     * > Note: Renouncing ownership will leave the contract without an owner, thereby removing any functionality that is only available to the owner."
      },
      "transferOwnership(address)": {
        "details": "Transfers ownership of the contract to a new account (`newOwner`). Can only be called by the current owner."
      }
    }
  },
  "userdoc": {
    "methods": {}
  }
}