{
  "contractName": "MetaMoneyMarket",
  "abi": [
    {
      "constant": true,
      "inputs": [
        {
          "name": "",
          "type": "address"
        }
      ],
      "name": "supportedMarkets",
      "outputs": [
        {
          "name": "isSupported",
          "type": "bool"
        },
        {
          "name": "tokenShare",
          "type": "address"
        }
      ],
      "payable": false,
      "stateMutability": "view",
      "type": "function"
    },
    {
      "constant": true,
      "inputs": [
        {
          "name": "",
          "type": "uint256"
        }
      ],
      "name": "supportedMarketsList",
      "outputs": [
        {
          "name": "",
          "type": "address"
        }
      ],
      "payable": false,
      "stateMutability": "view",
      "type": "function"
    },
    {
      "constant": false,
      "inputs": [],
      "name": "renounceOwnership",
      "outputs": [],
      "payable": false,
      "stateMutability": "nonpayable",
      "type": "function"
    },
    {
      "constant": true,
      "inputs": [],
      "name": "owner",
      "outputs": [
        {
          "name": "",
          "type": "address"
        }
      ],
      "payable": false,
      "stateMutability": "view",
      "type": "function"
    },
    {
      "constant": true,
      "inputs": [],
      "name": "isOwner",
      "outputs": [
        {
          "name": "",
          "type": "bool"
        }
      ],
      "payable": false,
      "stateMutability": "view",
      "type": "function"
    },
    {
      "constant": true,
      "inputs": [
        {
          "name": "",
          "type": "uint256"
        }
      ],
      "name": "moneyMarkets",
      "outputs": [
        {
          "name": "",
          "type": "address"
        }
      ],
      "payable": false,
      "stateMutability": "view",
      "type": "function"
    },
    {
      "constant": false,
      "inputs": [
        {
          "name": "newOwner",
          "type": "address"
        }
      ],
      "name": "transferOwnership",
      "outputs": [],
      "payable": false,
      "stateMutability": "nonpayable",
      "type": "function"
    },
    {
      "inputs": [
        {
          "name": "_moneyMarkets",
          "type": "address[]"
        }
      ],
      "payable": false,
      "stateMutability": "nonpayable",
      "type": "constructor"
    },
    {
      "anonymous": false,
      "inputs": [
        {
          "indexed": true,
          "name": "previousOwner",
          "type": "address"
        },
        {
          "indexed": true,
          "name": "newOwner",
          "type": "address"
        }
      ],
      "name": "OwnershipTransferred",
      "type": "event"
    },
    {
      "constant": false,
      "inputs": [
        {
          "name": "tokenAddress",
          "type": "address"
        },
        {
          "name": "tokenAmount",
          "type": "uint256"
        }
      ],
      "name": "deposit",
      "outputs": [],
      "payable": false,
      "stateMutability": "nonpayable",
      "type": "function"
    },
    {
      "constant": false,
      "inputs": [
        {
          "name": "tokenAddress",
          "type": "address"
        },
        {
          "name": "tokenShareAmount",
          "type": "uint256"
        }
      ],
      "name": "withdraw",
      "outputs": [],
      "payable": false,
      "stateMutability": "nonpayable",
      "type": "function"
    },
    {
      "constant": false,
      "inputs": [
        {
          "name": "tokenAddress",
          "type": "address"
        }
      ],
      "name": "addMarket",
      "outputs": [],
      "payable": false,
      "stateMutability": "nonpayable",
      "type": "function"
    },
    {
      "constant": true,
      "inputs": [
        {
          "name": "tokenAddress",
          "type": "address"
        }
      ],
      "name": "getTokenShare",
      "outputs": [
        {
          "name": "",
          "type": "address"
        }
      ],
      "payable": false,
      "stateMutability": "view",
      "type": "function"
    },
    {
      "constant": false,
      "inputs": [
        {
          "name": "tokenAddress",
          "type": "address"
        }
      ],
      "name": "totalSupply",
      "outputs": [
        {
          "name": "",
          "type": "uint256"
        }
      ],
      "payable": false,
      "stateMutability": "nonpayable",
      "type": "function"
    },
    {
      "constant": true,
      "inputs": [
        {
          "name": "tokenAddress",
          "type": "address"
        }
      ],
      "name": "totalSupplyView",
      "outputs": [
        {
          "name": "",
          "type": "uint256"
        }
      ],
      "payable": false,
      "stateMutability": "view",
      "type": "function"
    },
    {
      "constant": true,
      "inputs": [
        {
          "name": "tokenAddress",
          "type": "address"
        }
      ],
      "name": "isMarketSupported",
      "outputs": [
        {
          "name": "",
          "type": "bool"
        }
      ],
      "payable": false,
      "stateMutability": "view",
      "type": "function"
    },
    {
      "constant": true,
      "inputs": [
        {
          "name": "tokenAddress",
          "type": "address"
        }
      ],
      "name": "getMarketSymbol",
      "outputs": [
        {
          "name": "",
          "type": "string"
        }
      ],
      "payable": false,
      "stateMutability": "view",
      "type": "function"
    },
    {
      "constant": true,
      "inputs": [],
      "name": "moneyMarketsCount",
      "outputs": [
        {
          "name": "",
          "type": "uint256"
        }
      ],
      "payable": false,
      "stateMutability": "view",
      "type": "function"
    },
    {
      "constant": true,
      "inputs": [],
      "name": "supportedMarketsCount",
      "outputs": [
        {
          "name": "",
          "type": "uint256"
        }
      ],
      "payable": false,
      "stateMutability": "view",
      "type": "function"
    },
    {
      "constant": true,
      "inputs": [
        {
          "name": "tokenAddress",
          "type": "address"
        },
        {
          "name": "account",
          "type": "address"
        }
      ],
      "name": "getDepositedAmount",
      "outputs": [
        {
          "name": "",
          "type": "uint256"
        }
      ],
      "payable": false,
      "stateMutability": "view",
      "type": "function"
    },
    {
      "constant": true,
      "inputs": [
        {
          "name": "tokenAddress",
          "type": "address"
        }
      ],
      "name": "getExchangeRate",
      "outputs": [
        {
          "name": "tokenSupply",
          "type": "uint256"
        },
        {
          "name": "tokenShareSupply",
          "type": "uint256"
        }
      ],
      "payable": false,
      "stateMutability": "view",
      "type": "function"
    },
    {
      "constant": true,
      "inputs": [
        {
          "name": "tokenAddress",
          "type": "address"
        }
      ],
      "name": "getBestMoneyMarket",
      "outputs": [
        {
          "name": "bestMoneyMarket",
          "type": "address"
        },
        {
          "name": "bestRate",
          "type": "uint256"
        }
      ],
      "payable": false,
      "stateMutability": "view",
      "type": "function"
    },
    {
      "constant": true,
      "inputs": [
        {
          "name": "tokenAddress",
          "type": "address"
        }
      ],
      "name": "getBestInterestRate",
      "outputs": [
        {
          "name": "",
          "type": "uint256"
        }
      ],
      "payable": false,
      "stateMutability": "view",
      "type": "function"
    }
  ],
  "bytecode": "0x60806040523480156200001157600080fd5b5060405162004c0338038062004c03833981018060405260208110156200003757600080fd5b8101908080516401000000008111156200005057600080fd5b828101905060208101848111156200006757600080fd5b81518560208202830111640100000000821117156200008557600080fd5b5050929190505050336000806101000a81548173ffffffffffffffffffffffffffffffffffffffff021916908373ffffffffffffffffffffffffffffffffffffffff1602179055506000809054906101000a900473ffffffffffffffffffffffffffffffffffffffff1673ffffffffffffffffffffffffffffffffffffffff16600073ffffffffffffffffffffffffffffffffffffffff167f8be0079c531659141344cd1fd0a4f28419497f9722a3daafe3b4186f6b6457e060405160405180910390a36000815111620001a5576040517f08c379a000000000000000000000000000000000000000000000000000000000815260040180806020018281038252602d81526020018062004bd6602d913960400191505060405180910390fd5b60008090505b81518110156200023d576001828281518110620001c457fe5b602002602001015190806001815401808255809150509060018203906000526020600020016000909192909190916101000a81548173ffffffffffffffffffffffffffffffffffffffff021916908373ffffffffffffffffffffffffffffffffffffffff160217905550508080600101915050620001ab565b5050614987806200024f6000396000f3fe60806040523480156200001157600080fd5b5060043610620001545760003560e01c806393e3063311620000c9578063e6d545f21162000087578063e6d545f2146200060c578063ed5cc2a414620006cf578063efb7601d146200075d578063efcf952314620007bf578063f2fde38b1462000846578063f3fef3a3146200088d5762000154565b806393e30633146200047a578063b19c897314620004c1578063cbfe49af1462000532578063e031e4601462000591578063e4dc2aa414620005b15762000154565b80635f493abc11620001175780635f493abc1462000332578063715018a614620003a35780638da5cb5b14620003af5780638f32d59b14620003fb57806393737049146200041f5762000154565b80630fa9121614620001595780630fefc25114620001b457806320761fc4146200022f57806347e7ef2414620002c15780635af9f1391462000312575b600080fd5b6200019e600480360360208110156200017157600080fd5b81019080803573ffffffffffffffffffffffffffffffffffffffff169060200190929190505050620008de565b6040518082815260200191505060405180910390f35b6200021960048036036040811015620001cc57600080fd5b81019080803573ffffffffffffffffffffffffffffffffffffffff169060200190929190803573ffffffffffffffffffffffffffffffffffffffff16906020019092919050505062000979565b6040518082815260200191505060405180910390f35b62000274600480360360208110156200024757600080fd5b81019080803573ffffffffffffffffffffffffffffffffffffffff16906020019092919050505062000b5e565b60405180831515151581526020018273ffffffffffffffffffffffffffffffffffffffff1673ffffffffffffffffffffffffffffffffffffffff1681526020019250505060405180910390f35b6200031060048036036040811015620002d957600080fd5b81019080803573ffffffffffffffffffffffffffffffffffffffff1690602001909291908035906020019092919050505062000baf565b005b6200031c6200122c565b6040518082815260200191505060405180910390f35b62000361600480360360208110156200034a57600080fd5b810190808035906020019092919050505062001239565b604051808273ffffffffffffffffffffffffffffffffffffffff1673ffffffffffffffffffffffffffffffffffffffff16815260200191505060405180910390f35b620003ad62001276565b005b620003b9620013b2565b604051808273ffffffffffffffffffffffffffffffffffffffff1673ffffffffffffffffffffffffffffffffffffffff16815260200191505060405180910390f35b62000405620013db565b604051808215151515815260200191505060405180910390f35b62000464600480360360208110156200043757600080fd5b81019080803573ffffffffffffffffffffffffffffffffffffffff16906020019092919050505062001432565b6040518082815260200191505060405180910390f35b620004bf600480360360208110156200049257600080fd5b81019080803573ffffffffffffffffffffffffffffffffffffffff169060200190929190505050620015dc565b005b620004f060048036036020811015620004d957600080fd5b810190808035906020019092919050505062001af8565b604051808273ffffffffffffffffffffffffffffffffffffffff1673ffffffffffffffffffffffffffffffffffffffff16815260200191505060405180910390f35b62000577600480360360208110156200054a57600080fd5b81019080803573ffffffffffffffffffffffffffffffffffffffff16906020019092919050505062001b35565b604051808215151515815260200191505060405180910390f35b6200059b62001b8e565b6040518082815260200191505060405180910390f35b620005f660048036036020811015620005c957600080fd5b81019080803573ffffffffffffffffffffffffffffffffffffffff16906020019092919050505062001b9b565b6040518082815260200191505060405180910390f35b62000651600480360360208110156200062457600080fd5b81019080803573ffffffffffffffffffffffffffffffffffffffff16906020019092919050505062001d47565b6040518080602001828103825283818151815260200191508051906020019080838360005b838110156200069357808201518184015260208101905062000676565b50505050905090810190601f168015620006c15780820380516001836020036101000a031916815260200191505b509250505060405180910390f35b6200071460048036036020811015620006e757600080fd5b81019080803573ffffffffffffffffffffffffffffffffffffffff16906020019092919050505062001eb3565b604051808373ffffffffffffffffffffffffffffffffffffffff1673ffffffffffffffffffffffffffffffffffffffff1681526020018281526020019250505060405180910390f35b620007a2600480360360208110156200077557600080fd5b81019080803573ffffffffffffffffffffffffffffffffffffffff169060200190929190505050620021d1565b604051808381526020018281526020019250505060405180910390f35b6200080460048036036020811015620007d757600080fd5b81019080803573ffffffffffffffffffffffffffffffffffffffff16906020019092919050505062002354565b604051808273ffffffffffffffffffffffffffffffffffffffff1673ffffffffffffffffffffffffffffffffffffffff16815260200191505060405180910390f35b6200088b600480360360208110156200085e57600080fd5b81019080803573ffffffffffffffffffffffffffffffffffffffff16906020019092919050505062002440565b005b620008dc60048036036040811015620008a557600080fd5b81019080803573ffffffffffffffffffffffffffffffffffffffff16906020019092919080359060200190929190505050620024cb565b005b600081620008ec8162001b35565b6200095f576040517f08c379a00000000000000000000000000000000000000000000000000000000081526004018080602001828103825260178152602001807f4d61726b6574206973206e6f7420737570706f7274656400000000000000000081525060200191505060405180910390fd5b60006200096c8462001eb3565b9150508092505050919050565b600082620009878162001b35565b620009fa576040517f08c379a00000000000000000000000000000000000000000000000000000000081526004018080602001828103825260178152602001807f4d61726b6574206973206e6f7420737570706f7274656400000000000000000081525060200191505060405180910390fd5b6000600260008673ffffffffffffffffffffffffffffffffffffffff1673ffffffffffffffffffffffffffffffffffffffff16815260200190815260200160002060000160019054906101000a900473ffffffffffffffffffffffffffffffffffffffff16905060008062000a6f87620021d1565b9150915060008373ffffffffffffffffffffffffffffffffffffffff166370a08231886040518263ffffffff1660e01b8152600401808273ffffffffffffffffffffffffffffffffffffffff1673ffffffffffffffffffffffffffffffffffffffff16815260200191505060206040518083038186803b15801562000af357600080fd5b505afa15801562000b08573d6000803e3d6000fd5b505050506040513d602081101562000b1f57600080fd5b810190808051906020019092919050505090506000821162000b4357600062000b51565b818382028162000b4f57fe5b045b9550505050505092915050565b60026020528060005260406000206000915090508060000160009054906101000a900460ff16908060000160019054906101000a900473ffffffffffffffffffffffffffffffffffffffff16905082565b8162000bbb8162001b35565b62000c2e576040517f08c379a00000000000000000000000000000000000000000000000000000000081526004018080602001828103825260178152602001807f4d61726b6574206973206e6f7420737570706f7274656400000000000000000081525060200191505060405180910390fd5b60008390506000600260008673ffffffffffffffffffffffffffffffffffffffff1673ffffffffffffffffffffffffffffffffffffffff16815260200190815260200160002060000160019054906101000a900473ffffffffffffffffffffffffffffffffffffffff16905060008173ffffffffffffffffffffffffffffffffffffffff166318160ddd6040518163ffffffff1660e01b815260040160206040518083038186803b15801562000ce357600080fd5b505afa15801562000cf8573d6000803e3d6000fd5b505050506040513d602081101562000d0f57600080fd5b81019080805190602001909291905050509050600062000d2f8762001b9b565b9050600080821162000d42578662000d50565b818784028162000d4e57fe5b045b90508373ffffffffffffffffffffffffffffffffffffffff166340c10f1933836040518363ffffffff1660e01b8152600401808373ffffffffffffffffffffffffffffffffffffffff1673ffffffffffffffffffffffffffffffffffffffff16815260200182815260200192505050602060405180830381600087803b15801562000dda57600080fd5b505af115801562000def573d6000803e3d6000fd5b505050506040513d602081101562000e0657600080fd5b810190808051906020019092919050505050600062000e258962001eb3565b509050878673ffffffffffffffffffffffffffffffffffffffff166370a08231336040518263ffffffff1660e01b8152600401808273ffffffffffffffffffffffffffffffffffffffff1673ffffffffffffffffffffffffffffffffffffffff16815260200191505060206040518083038186803b15801562000ea757600080fd5b505afa15801562000ebc573d6000803e3d6000fd5b505050506040513d602081101562000ed357600080fd5b8101908080519060200190929190505050101562000f3d576040517f08c379a000000000000000000000000000000000000000000000000000000000815260040180806020018281038252603a815260200180620048f1603a913960400191505060405180910390fd5b878673ffffffffffffffffffffffffffffffffffffffff1663dd62ed3e33306040518363ffffffff1660e01b8152600401808373ffffffffffffffffffffffffffffffffffffffff1673ffffffffffffffffffffffffffffffffffffffff1681526020018273ffffffffffffffffffffffffffffffffffffffff1673ffffffffffffffffffffffffffffffffffffffff1681526020019250505060206040518083038186803b15801562000ff057600080fd5b505afa15801562001005573d6000803e3d6000fd5b505050506040513d60208110156200101c57600080fd5b8101908080519060200190929190505050101562001086576040517f08c379a000000000000000000000000000000000000000000000000000000000815260040180806020018281038252603d815260200180620048b4603d913960400191505060405180910390fd5b8573ffffffffffffffffffffffffffffffffffffffff166323b872dd33308b6040518463ffffffff1660e01b8152600401808473ffffffffffffffffffffffffffffffffffffffff1673ffffffffffffffffffffffffffffffffffffffff1681526020018373ffffffffffffffffffffffffffffffffffffffff1673ffffffffffffffffffffffffffffffffffffffff1681526020018281526020019350505050602060405180830381600087803b1580156200114257600080fd5b505af115801562001157573d6000803e3d6000fd5b505050506040513d60208110156200116e57600080fd5b8101908080519060200190929190505050508073ffffffffffffffffffffffffffffffffffffffff166347e7ef248a8a6040518363ffffffff1660e01b8152600401808373ffffffffffffffffffffffffffffffffffffffff1673ffffffffffffffffffffffffffffffffffffffff16815260200182815260200192505050600060405180830381600087803b1580156200120857600080fd5b505af11580156200121d573d6000803e3d6000fd5b50505050505050505050505050565b6000600180549050905090565b600381815481106200124757fe5b906000526020600020016000915054906101000a900473ffffffffffffffffffffffffffffffffffffffff1681565b62001280620013db565b620012f3576040517f08c379a00000000000000000000000000000000000000000000000000000000081526004018080602001828103825260208152602001807f4f776e61626c653a2063616c6c6572206973206e6f7420746865206f776e657281525060200191505060405180910390fd5b600073ffffffffffffffffffffffffffffffffffffffff166000809054906101000a900473ffffffffffffffffffffffffffffffffffffffff1673ffffffffffffffffffffffffffffffffffffffff167f8be0079c531659141344cd1fd0a4f28419497f9722a3daafe3b4186f6b6457e060405160405180910390a360008060006101000a81548173ffffffffffffffffffffffffffffffffffffffff021916908373ffffffffffffffffffffffffffffffffffffffff160217905550565b60008060009054906101000a900473ffffffffffffffffffffffffffffffffffffffff16905090565b60008060009054906101000a900473ffffffffffffffffffffffffffffffffffffffff1673ffffffffffffffffffffffffffffffffffffffff163373ffffffffffffffffffffffffffffffffffffffff1614905090565b600081620014408162001b35565b620014b3576040517f08c379a00000000000000000000000000000000000000000000000000000000081526004018080602001828103825260178152602001807f4d61726b6574206973206e6f7420737570706f7274656400000000000000000081525060200191505060405180910390fd5b600080905060008090505b600180549050811015620015d15760018181548110620014da57fe5b9060005260206000200160009054906101000a900473ffffffffffffffffffffffffffffffffffffffff1673ffffffffffffffffffffffffffffffffffffffff1663ed8a1e54866040518263ffffffff1660e01b8152600401808273ffffffffffffffffffffffffffffffffffffffff1673ffffffffffffffffffffffffffffffffffffffff16815260200191505060206040518083038186803b1580156200158257600080fd5b505afa15801562001597573d6000803e3d6000fd5b505050506040513d6020811015620015ae57600080fd5b8101908080519060200190929190505050820191508080600101915050620014be565b508092505050919050565b620015e6620013db565b62001659576040517f08c379a00000000000000000000000000000000000000000000000000000000081526004018080602001828103825260208152602001807f4f776e61626c653a2063616c6c6572206973206e6f7420746865206f776e657281525060200191505060405180910390fd5b6000819050600260008373ffffffffffffffffffffffffffffffffffffffff1673ffffffffffffffffffffffffffffffffffffffff16815260200190815260200160002060000160009054906101000a900460ff161562001722576040517f08c379a000000000000000000000000000000000000000000000000000000000815260040180806020018281038252601b8152602001807f4d61726b657420697320616c726561647920737570706f72746564000000000081525060200191505060405180910390fd5b6000604051620017329062002e15565b604051809103906000f0801580156200174f573d6000803e3d6000fd5b50905060038390806001815401808255809150509060018203906000526020600020016000909192909190916101000a81548173ffffffffffffffffffffffffffffffffffffffff021916908373ffffffffffffffffffffffffffffffffffffffff160217905550506001600260008573ffffffffffffffffffffffffffffffffffffffff1673ffffffffffffffffffffffffffffffffffffffff16815260200190815260200160002060000160006101000a81548160ff02191690831515021790555080600260008573ffffffffffffffffffffffffffffffffffffffff1673ffffffffffffffffffffffffffffffffffffffff16815260200190815260200160002060000160016101000a81548173ffffffffffffffffffffffffffffffffffffffff021916908373ffffffffffffffffffffffffffffffffffffffff16021790555060008090505b60018054905081101562001af2578273ffffffffffffffffffffffffffffffffffffffff1663095ea7b360018381548110620018d257fe5b9060005260206000200160009054906101000a900473ffffffffffffffffffffffffffffffffffffffff167fffffffffffffffffffffffffffffffffffffffffffffffffffffffffffffffff6040518363ffffffff1660e01b8152600401808373ffffffffffffffffffffffffffffffffffffffff1673ffffffffffffffffffffffffffffffffffffffff16815260200182815260200192505050602060405180830381600087803b1580156200198857600080fd5b505af11580156200199d573d6000803e3d6000fd5b505050506040513d6020811015620019b457600080fd5b8101908080519060200190929190505050508173ffffffffffffffffffffffffffffffffffffffff1663095ea7b360018381548110620019f057fe5b9060005260206000200160009054906101000a900473ffffffffffffffffffffffffffffffffffffffff167fffffffffffffffffffffffffffffffffffffffffffffffffffffffffffffffff6040518363ffffffff1660e01b8152600401808373ffffffffffffffffffffffffffffffffffffffff1673ffffffffffffffffffffffffffffffffffffffff16815260200182815260200192505050602060405180830381600087803b15801562001aa657600080fd5b505af115801562001abb573d6000803e3d6000fd5b505050506040513d602081101562001ad257600080fd5b81019080805190602001909291905050505080806001019150506200189a565b50505050565b6001818154811062001b0657fe5b906000526020600020016000915054906101000a900473ffffffffffffffffffffffffffffffffffffffff1681565b6000600260008373ffffffffffffffffffffffffffffffffffffffff1673ffffffffffffffffffffffffffffffffffffffff16815260200190815260200160002060000160009054906101000a900460ff169050919050565b6000600380549050905090565b60008162001ba98162001b35565b62001c1c576040517f08c379a00000000000000000000000000000000000000000000000000000000081526004018080602001828103825260178152602001807f4d61726b6574206973206e6f7420737570706f7274656400000000000000000081525060200191505060405180910390fd5b600080905060008090505b60018054905081101562001d3c576001818154811062001c4357fe5b9060005260206000200160009054906101000a900473ffffffffffffffffffffffffffffffffffffffff1673ffffffffffffffffffffffffffffffffffffffff16631fd433aa866040518263ffffffff1660e01b8152600401808273ffffffffffffffffffffffffffffffffffffffff1673ffffffffffffffffffffffffffffffffffffffff168152602001915050602060405180830381600087803b15801562001ced57600080fd5b505af115801562001d02573d6000803e3d6000fd5b505050506040513d602081101562001d1957600080fd5b810190808051906020019092919050505082019150808060010191505062001c27565b508092505050919050565b60608162001d558162001b35565b62001dc8576040517f08c379a00000000000000000000000000000000000000000000000000000000081526004018080602001828103825260178152602001807f4d61726b6574206973206e6f7420737570706f7274656400000000000000000081525060200191505060405180910390fd5b60008390508073ffffffffffffffffffffffffffffffffffffffff166395d89b416040518163ffffffff1660e01b815260040160006040518083038186803b15801562001e1457600080fd5b505afa15801562001e29573d6000803e3d6000fd5b505050506040513d6000823e3d601f19601f82011682018060405250602081101562001e5457600080fd5b81019080805164010000000081111562001e6d57600080fd5b8281019050602081018481111562001e8457600080fd5b815185600182028301116401000000008211171562001ea257600080fd5b505092919050505092505050919050565b6000808262001ec28162001b35565b62001f35576040517f08c379a00000000000000000000000000000000000000000000000000000000081526004018080602001828103825260178152602001807f4d61726b6574206973206e6f7420737570706f7274656400000000000000000081525060200191505060405180910390fd5b600160008154811062001f4457fe5b9060005260206000200160009054906101000a900473ffffffffffffffffffffffffffffffffffffffff169250600160008154811062001f8057fe5b9060005260206000200160009054906101000a900473ffffffffffffffffffffffffffffffffffffffff1673ffffffffffffffffffffffffffffffffffffffff166337cef791856040518263ffffffff1660e01b8152600401808273ffffffffffffffffffffffffffffffffffffffff1673ffffffffffffffffffffffffffffffffffffffff16815260200191505060206040518083038186803b1580156200202857600080fd5b505afa1580156200203d573d6000803e3d6000fd5b505050506040513d60208110156200205457600080fd5b810190808051906020019092919050505091506000600190505b600180549050811015620021ca576000600182815481106200208c57fe5b9060005260206000200160009054906101000a900473ffffffffffffffffffffffffffffffffffffffff1673ffffffffffffffffffffffffffffffffffffffff166337cef791876040518263ffffffff1660e01b8152600401808273ffffffffffffffffffffffffffffffffffffffff1673ffffffffffffffffffffffffffffffffffffffff16815260200191505060206040518083038186803b1580156200213457600080fd5b505afa15801562002149573d6000803e3d6000fd5b505050506040513d60208110156200216057600080fd5b8101908080519060200190929190505050905083811115620021bb57809350600182815481106200218d57fe5b9060005260206000200160009054906101000a900473ffffffffffffffffffffffffffffffffffffffff1694505b5080806001019150506200206e565b5050915091565b60008082620021e08162001b35565b62002253576040517f08c379a00000000000000000000000000000000000000000000000000000000081526004018080602001828103825260178152602001807f4d61726b6574206973206e6f7420737570706f7274656400000000000000000081525060200191505060405180910390fd5b6000600260008673ffffffffffffffffffffffffffffffffffffffff1673ffffffffffffffffffffffffffffffffffffffff16815260200190815260200160002060000160019054906101000a900473ffffffffffffffffffffffffffffffffffffffff169050620022c58562001432565b93508073ffffffffffffffffffffffffffffffffffffffff166318160ddd6040518163ffffffff1660e01b815260040160206040518083038186803b1580156200230e57600080fd5b505afa15801562002323573d6000803e3d6000fd5b505050506040513d60208110156200233a57600080fd5b810190808051906020019092919050505092505050915091565b600081620023628162001b35565b620023d5576040517f08c379a00000000000000000000000000000000000000000000000000000000081526004018080602001828103825260178152602001807f4d61726b6574206973206e6f7420737570706f7274656400000000000000000081525060200191505060405180910390fd5b600260008473ffffffffffffffffffffffffffffffffffffffff1673ffffffffffffffffffffffffffffffffffffffff16815260200190815260200160002060000160019054906101000a900473ffffffffffffffffffffffffffffffffffffffff16915050919050565b6200244a620013db565b620024bd576040517f08c379a00000000000000000000000000000000000000000000000000000000081526004018080602001828103825260208152602001807f4f776e61626c653a2063616c6c6572206973206e6f7420746865206f776e657281525060200191505060405180910390fd5b620024c88162002ccf565b50565b81620024d78162001b35565b6200254a576040517f08c379a00000000000000000000000000000000000000000000000000000000081526004018080602001828103825260178152602001807f4d61726b6574206973206e6f7420737570706f7274656400000000000000000081525060200191505060405180910390fd5b6000600260008573ffffffffffffffffffffffffffffffffffffffff1673ffffffffffffffffffffffffffffffffffffffff16815260200190815260200160002060000160019054906101000a900473ffffffffffffffffffffffffffffffffffffffff16905060008173ffffffffffffffffffffffffffffffffffffffff166318160ddd6040518163ffffffff1660e01b815260040160206040518083038186803b158015620025fa57600080fd5b505afa1580156200260f573d6000803e3d6000fd5b505050506040513d60208110156200262657600080fd5b810190808051906020019092919050505090506000620026468662001b9b565b9050600082868302816200265657fe5b049050858473ffffffffffffffffffffffffffffffffffffffff166370a08231336040518263ffffffff1660e01b8152600401808273ffffffffffffffffffffffffffffffffffffffff1673ffffffffffffffffffffffffffffffffffffffff16815260200191505060206040518083038186803b158015620026d857600080fd5b505afa158015620026ed573d6000803e3d6000fd5b505050506040513d60208110156200270457600080fd5b810190808051906020019092919050505010156200276e576040517f08c379a00000000000000000000000000000000000000000000000000000000081526004018080602001828103825260318152602001806200492b6031913960400191505060405180910390fd5b858473ffffffffffffffffffffffffffffffffffffffff1663dd62ed3e33306040518363ffffffff1660e01b8152600401808373ffffffffffffffffffffffffffffffffffffffff1673ffffffffffffffffffffffffffffffffffffffff1681526020018273ffffffffffffffffffffffffffffffffffffffff1673ffffffffffffffffffffffffffffffffffffffff1681526020019250505060206040518083038186803b1580156200282157600080fd5b505afa15801562002836573d6000803e3d6000fd5b505050506040513d60208110156200284d57600080fd5b81019080805190602001909291905050501015620028b7576040517f08c379a00000000000000000000000000000000000000000000000000000000081526004018080602001828103825260328152602001806200485c6032913960400191505060405180910390fd5b8373ffffffffffffffffffffffffffffffffffffffff166379cc679033886040518363ffffffff1660e01b8152600401808373ffffffffffffffffffffffffffffffffffffffff1673ffffffffffffffffffffffffffffffffffffffff16815260200182815260200192505050600060405180830381600087803b1580156200293f57600080fd5b505af115801562002954573d6000803e3d6000fd5b5050505060008090505b60018054905081108015620029735750600082115b1562002cc5576000600182815481106200298957fe5b9060005260206000200160009054906101000a900473ffffffffffffffffffffffffffffffffffffffff1673ffffffffffffffffffffffffffffffffffffffff16631fd433aa8a6040518263ffffffff1660e01b8152600401808273ffffffffffffffffffffffffffffffffffffffff1673ffffffffffffffffffffffffffffffffffffffff168152602001915050602060405180830381600087803b15801562002a3357600080fd5b505af115801562002a48573d6000803e3d6000fd5b505050506040513d602081101562002a5f57600080fd5b81019080805190602001909291905050509050600081141562002a83575062002cb7565b82811062002ba2576001828154811062002a9957fe5b9060005260206000200160009054906101000a900473ffffffffffffffffffffffffffffffffffffffff1673ffffffffffffffffffffffffffffffffffffffff1663d9caed128a33866040518463ffffffff1660e01b8152600401808473ffffffffffffffffffffffffffffffffffffffff1673ffffffffffffffffffffffffffffffffffffffff1681526020018373ffffffffffffffffffffffffffffffffffffffff1673ffffffffffffffffffffffffffffffffffffffff1681526020018281526020019350505050600060405180830381600087803b15801562002b7f57600080fd5b505af115801562002b94573d6000803e3d6000fd5b505050506000925062002cb5565b6001828154811062002bb057fe5b9060005260206000200160009054906101000a900473ffffffffffffffffffffffffffffffffffffffff1673ffffffffffffffffffffffffffffffffffffffff1663d9caed128a33846040518463ffffffff1660e01b8152600401808473ffffffffffffffffffffffffffffffffffffffff1673ffffffffffffffffffffffffffffffffffffffff1681526020018373ffffffffffffffffffffffffffffffffffffffff1673ffffffffffffffffffffffffffffffffffffffff1681526020018281526020019350505050600060405180830381600087803b15801562002c9657600080fd5b505af115801562002cab573d6000803e3d6000fd5b5050505080830392505b505b80806001019150506200295e565b5050505050505050565b600073ffffffffffffffffffffffffffffffffffffffff168173ffffffffffffffffffffffffffffffffffffffff16141562002d57576040517f08c379a00000000000000000000000000000000000000000000000000000000081526004018080602001828103825260268152602001806200488e6026913960400191505060405180910390fd5b8073ffffffffffffffffffffffffffffffffffffffff166000809054906101000a900473ffffffffffffffffffffffffffffffffffffffff1673ffffffffffffffffffffffffffffffffffffffff167f8be0079c531659141344cd1fd0a4f28419497f9722a3daafe3b4186f6b6457e060405160405180910390a3806000806101000a81548173ffffffffffffffffffffffffffffffffffffffff021916908373ffffffffffffffffffffffffffffffffffffffff16021790555050565b611a388062002e248339019056fe608060405262000015336200001b60201b60201c565b62000240565b620000368160036200007c60201b620014e01790919060201c565b8073ffffffffffffffffffffffffffffffffffffffff167f6ae172837ea30b801fbfcdd4108aa1d5bf8ff775444fd70256b44e6bf3dfc3f660405160405180910390a250565b6200008e82826200016060201b60201c565b1562000102576040517f08c379a000000000000000000000000000000000000000000000000000000000815260040180806020018281038252601f8152602001807f526f6c65733a206163636f756e7420616c72656164792068617320726f6c650081525060200191505060405180910390fd5b60018260000160008373ffffffffffffffffffffffffffffffffffffffff1673ffffffffffffffffffffffffffffffffffffffff16815260200190815260200160002060006101000a81548160ff0219169083151502179055505050565b60008073ffffffffffffffffffffffffffffffffffffffff168273ffffffffffffffffffffffffffffffffffffffff161415620001e9576040517f08c379a000000000000000000000000000000000000000000000000000000000815260040180806020018281038252602281526020018062001a166022913960400191505060405180910390fd5b8260000160008373ffffffffffffffffffffffffffffffffffffffff1673ffffffffffffffffffffffffffffffffffffffff16815260200190815260200160002060009054906101000a900460ff16905092915050565b6117c680620002506000396000f3fe608060405234801561001057600080fd5b50600436106100ea5760003560e01c806379cc67901161008c578063a457c2d711610066578063a457c2d7146103e7578063a9059cbb1461044d578063aa271e1a146104b3578063dd62ed3e1461050f576100ea565b806379cc67901461034b578063983b2d561461039957806398650275146103dd576100ea565b806339509351116100c857806339509351146101f957806340c10f191461025f57806342966c68146102c557806370a08231146102f3576100ea565b8063095ea7b3146100ef57806318160ddd1461015557806323b872dd14610173575b600080fd5b61013b6004803603604081101561010557600080fd5b81019080803573ffffffffffffffffffffffffffffffffffffffff16906020019092919080359060200190929190505050610587565b604051808215151515815260200191505060405180910390f35b61015d61059e565b6040518082815260200191505060405180910390f35b6101df6004803603606081101561018957600080fd5b81019080803573ffffffffffffffffffffffffffffffffffffffff169060200190929190803573ffffffffffffffffffffffffffffffffffffffff169060200190929190803590602001909291905050506105a8565b604051808215151515815260200191505060405180910390f35b6102456004803603604081101561020f57600080fd5b81019080803573ffffffffffffffffffffffffffffffffffffffff16906020019092919080359060200190929190505050610659565b604051808215151515815260200191505060405180910390f35b6102ab6004803603604081101561027557600080fd5b81019080803573ffffffffffffffffffffffffffffffffffffffff169060200190929190803590602001909291905050506106fe565b604051808215151515815260200191505060405180910390f35b6102f1600480360360208110156102db57600080fd5b8101908080359060200190929190505050610772565b005b6103356004803603602081101561030957600080fd5b81019080803573ffffffffffffffffffffffffffffffffffffffff16906020019092919050505061077f565b6040518082815260200191505060405180910390f35b6103976004803603604081101561036157600080fd5b81019080803573ffffffffffffffffffffffffffffffffffffffff169060200190929190803590602001909291905050506107c7565b005b6103db600480360360208110156103af57600080fd5b81019080803573ffffffffffffffffffffffffffffffffffffffff1690602001909291905050506107d5565b005b6103e561083f565b005b610433600480360360408110156103fd57600080fd5b81019080803573ffffffffffffffffffffffffffffffffffffffff1690602001909291908035906020019092919050505061084a565b604051808215151515815260200191505060405180910390f35b6104996004803603604081101561046357600080fd5b81019080803573ffffffffffffffffffffffffffffffffffffffff169060200190929190803590602001909291905050506108ef565b604051808215151515815260200191505060405180910390f35b6104f5600480360360208110156104c957600080fd5b81019080803573ffffffffffffffffffffffffffffffffffffffff169060200190929190505050610906565b604051808215151515815260200191505060405180910390f35b6105716004803603604081101561052557600080fd5b81019080803573ffffffffffffffffffffffffffffffffffffffff169060200190929190803573ffffffffffffffffffffffffffffffffffffffff169060200190929190505050610923565b6040518082815260200191505060405180910390f35b60006105943384846109aa565b6001905092915050565b6000600254905090565b60006105b5848484610ba1565b61064e843361064985600160008a73ffffffffffffffffffffffffffffffffffffffff1673ffffffffffffffffffffffffffffffffffffffff16815260200190815260200160002060003373ffffffffffffffffffffffffffffffffffffffff1673ffffffffffffffffffffffffffffffffffffffff16815260200190815260200160002054610e3d90919063ffffffff16565b6109aa565b600190509392505050565b60006106f433846106ef85600160003373ffffffffffffffffffffffffffffffffffffffff1673ffffffffffffffffffffffffffffffffffffffff16815260200190815260200160002060008973ffffffffffffffffffffffffffffffffffffffff1673ffffffffffffffffffffffffffffffffffffffff16815260200190815260200160002054610ec690919063ffffffff16565b6109aa565b6001905092915050565b600061070933610906565b61075e576040517f08c379a00000000000000000000000000000000000000000000000000000000081526004018080602001828103825260308152602001806116be6030913960400191505060405180910390fd5b6107688383610f4e565b6001905092915050565b61077c3382611109565b50565b60008060008373ffffffffffffffffffffffffffffffffffffffff1673ffffffffffffffffffffffffffffffffffffffff168152602001908152602001600020549050919050565b6107d182826112a7565b5050565b6107de33610906565b610833576040517f08c379a00000000000000000000000000000000000000000000000000000000081526004018080602001828103825260308152602001806116be6030913960400191505060405180910390fd5b61083c8161134e565b50565b610848336113a8565b565b60006108e533846108e085600160003373ffffffffffffffffffffffffffffffffffffffff1673ffffffffffffffffffffffffffffffffffffffff16815260200190815260200160002060008973ffffffffffffffffffffffffffffffffffffffff1673ffffffffffffffffffffffffffffffffffffffff16815260200190815260200160002054610e3d90919063ffffffff16565b6109aa565b6001905092915050565b60006108fc338484610ba1565b6001905092915050565b600061091c82600361140290919063ffffffff16565b9050919050565b6000600160008473ffffffffffffffffffffffffffffffffffffffff1673ffffffffffffffffffffffffffffffffffffffff16815260200190815260200160002060008373ffffffffffffffffffffffffffffffffffffffff1673ffffffffffffffffffffffffffffffffffffffff16815260200190815260200160002054905092915050565b600073ffffffffffffffffffffffffffffffffffffffff168373ffffffffffffffffffffffffffffffffffffffff161415610a30576040517f08c379a00000000000000000000000000000000000000000000000000000000081526004018080602001828103825260248152602001806117776024913960400191505060405180910390fd5b600073ffffffffffffffffffffffffffffffffffffffff168273ffffffffffffffffffffffffffffffffffffffff161415610ab6576040517f08c379a000000000000000000000000000000000000000000000000000000000815260040180806020018281038252602281526020018061169c6022913960400191505060405180910390fd5b80600160008573ffffffffffffffffffffffffffffffffffffffff1673ffffffffffffffffffffffffffffffffffffffff16815260200190815260200160002060008473ffffffffffffffffffffffffffffffffffffffff1673ffffffffffffffffffffffffffffffffffffffff168152602001908152602001600020819055508173ffffffffffffffffffffffffffffffffffffffff168373ffffffffffffffffffffffffffffffffffffffff167f8c5be1e5ebec7d5bd14f71427d1e84f3dd0314c0f7b2291e5b200ac8c7c3b925836040518082815260200191505060405180910390a3505050565b600073ffffffffffffffffffffffffffffffffffffffff168373ffffffffffffffffffffffffffffffffffffffff161415610c27576040517f08c379a00000000000000000000000000000000000000000000000000000000081526004018080602001828103825260258152602001806117526025913960400191505060405180910390fd5b600073ffffffffffffffffffffffffffffffffffffffff168273ffffffffffffffffffffffffffffffffffffffff161415610cad576040517f08c379a00000000000000000000000000000000000000000000000000000000081526004018080602001828103825260238152602001806116796023913960400191505060405180910390fd5b610cfe816000808673ffffffffffffffffffffffffffffffffffffffff1673ffffffffffffffffffffffffffffffffffffffff16815260200190815260200160002054610e3d90919063ffffffff16565b6000808573ffffffffffffffffffffffffffffffffffffffff1673ffffffffffffffffffffffffffffffffffffffff16815260200190815260200160002081905550610d91816000808573ffffffffffffffffffffffffffffffffffffffff1673ffffffffffffffffffffffffffffffffffffffff16815260200190815260200160002054610ec690919063ffffffff16565b6000808473ffffffffffffffffffffffffffffffffffffffff1673ffffffffffffffffffffffffffffffffffffffff168152602001908152602001600020819055508173ffffffffffffffffffffffffffffffffffffffff168373ffffffffffffffffffffffffffffffffffffffff167fddf252ad1be2c89b69c2b068fc378daa952ba7f163c4a11628f55a4df523b3ef836040518082815260200191505060405180910390a3505050565b600082821115610eb5576040517f08c379a000000000000000000000000000000000000000000000000000000000815260040180806020018281038252601e8152602001807f536166654d6174683a207375627472616374696f6e206f766572666c6f77000081525060200191505060405180910390fd5b600082840390508091505092915050565b600080828401905083811015610f44576040517f08c379a000000000000000000000000000000000000000000000000000000000815260040180806020018281038252601b8152602001807f536166654d6174683a206164646974696f6e206f766572666c6f77000000000081525060200191505060405180910390fd5b8091505092915050565b600073ffffffffffffffffffffffffffffffffffffffff168273ffffffffffffffffffffffffffffffffffffffff161415610ff1576040517f08c379a000000000000000000000000000000000000000000000000000000000815260040180806020018281038252601f8152602001807f45524332303a206d696e7420746f20746865207a65726f20616464726573730081525060200191505060405180910390fd5b61100681600254610ec690919063ffffffff16565b60028190555061105d816000808573ffffffffffffffffffffffffffffffffffffffff1673ffffffffffffffffffffffffffffffffffffffff16815260200190815260200160002054610ec690919063ffffffff16565b6000808473ffffffffffffffffffffffffffffffffffffffff1673ffffffffffffffffffffffffffffffffffffffff168152602001908152602001600020819055508173ffffffffffffffffffffffffffffffffffffffff16600073ffffffffffffffffffffffffffffffffffffffff167fddf252ad1be2c89b69c2b068fc378daa952ba7f163c4a11628f55a4df523b3ef836040518082815260200191505060405180910390a35050565b600073ffffffffffffffffffffffffffffffffffffffff168273ffffffffffffffffffffffffffffffffffffffff16141561118f576040517f08c379a00000000000000000000000000000000000000000000000000000000081526004018080602001828103825260218152602001806117316021913960400191505060405180910390fd5b6111a481600254610e3d90919063ffffffff16565b6002819055506111fb816000808573ffffffffffffffffffffffffffffffffffffffff1673ffffffffffffffffffffffffffffffffffffffff16815260200190815260200160002054610e3d90919063ffffffff16565b6000808473ffffffffffffffffffffffffffffffffffffffff1673ffffffffffffffffffffffffffffffffffffffff16815260200190815260200160002081905550600073ffffffffffffffffffffffffffffffffffffffff168273ffffffffffffffffffffffffffffffffffffffff167fddf252ad1be2c89b69c2b068fc378daa952ba7f163c4a11628f55a4df523b3ef836040518082815260200191505060405180910390a35050565b6112b18282611109565b61134a823361134584600160008873ffffffffffffffffffffffffffffffffffffffff1673ffffffffffffffffffffffffffffffffffffffff16815260200190815260200160002060003373ffffffffffffffffffffffffffffffffffffffff1673ffffffffffffffffffffffffffffffffffffffff16815260200190815260200160002054610e3d90919063ffffffff16565b6109aa565b5050565b6113628160036114e090919063ffffffff16565b8073ffffffffffffffffffffffffffffffffffffffff167f6ae172837ea30b801fbfcdd4108aa1d5bf8ff775444fd70256b44e6bf3dfc3f660405160405180910390a250565b6113bc8160036115bb90919063ffffffff16565b8073ffffffffffffffffffffffffffffffffffffffff167fe94479a9f7e1952cc78f2d6baab678adc1b772d936c6583def489e524cb6669260405160405180910390a250565b60008073ffffffffffffffffffffffffffffffffffffffff168273ffffffffffffffffffffffffffffffffffffffff161415611489576040517f08c379a000000000000000000000000000000000000000000000000000000000815260040180806020018281038252602281526020018061170f6022913960400191505060405180910390fd5b8260000160008373ffffffffffffffffffffffffffffffffffffffff1673ffffffffffffffffffffffffffffffffffffffff16815260200190815260200160002060009054906101000a900460ff16905092915050565b6114ea8282611402565b1561155d576040517f08c379a000000000000000000000000000000000000000000000000000000000815260040180806020018281038252601f8152602001807f526f6c65733a206163636f756e7420616c72656164792068617320726f6c650081525060200191505060405180910390fd5b60018260000160008373ffffffffffffffffffffffffffffffffffffffff1673ffffffffffffffffffffffffffffffffffffffff16815260200190815260200160002060006101000a81548160ff0219169083151502179055505050565b6115c58282611402565b61161a576040517f08c379a00000000000000000000000000000000000000000000000000000000081526004018080602001828103825260218152602001806116ee6021913960400191505060405180910390fd5b60008260000160008373ffffffffffffffffffffffffffffffffffffffff1673ffffffffffffffffffffffffffffffffffffffff16815260200190815260200160002060006101000a81548160ff021916908315150217905550505056fe45524332303a207472616e7366657220746f20746865207a65726f206164647265737345524332303a20617070726f766520746f20746865207a65726f20616464726573734d696e746572526f6c653a2063616c6c657220646f6573206e6f74206861766520746865204d696e74657220726f6c65526f6c65733a206163636f756e7420646f6573206e6f74206861766520726f6c65526f6c65733a206163636f756e7420697320746865207a65726f206164647265737345524332303a206275726e2066726f6d20746865207a65726f206164647265737345524332303a207472616e736665722066726f6d20746865207a65726f206164647265737345524332303a20617070726f76652066726f6d20746865207a65726f2061646472657373a165627a7a723058206f4ee326b31dd1b254fabfc3f76a6fa361b4b702a37d045956c4336930310e7a0029526f6c65733a206163636f756e7420697320746865207a65726f20616464726573734d6574614d6f6e65794d61726b65742e77697468647261773a2043616e6e6f74206275726e20746f6b656e207368617265734f776e61626c653a206e6577206f776e657220697320746865207a65726f20616464726573734d6574614d6f6e65794d61726b65742e6465706f7369743a2043616e6e6f74207472616e7366657220746f6b656e732066726f6d2074686520757365724d6574614d6f6e65794d61726b65742e6465706f7369743a205573657220646f6573206e6f74206861766520656e6f7567682062616c616e63654d6574614d6f6e65794d61726b65742e77697468647261773a204e6f7420656e6f75676820746f6b656e20736861726573a165627a7a723058209af9ebecae53ac82b169ad53802615683e0eca8e92fa9a570e584d413988865900294174206c65617374206f6e65206d6f6e6579206d61726b65742068617320746f20626520737065636966696564",
  "source": "pragma solidity 0.5.8;\n\nimport \"openzeppelin-solidity/contracts/token/ERC20/IERC20.sol\";\nimport \"openzeppelin-solidity/contracts/token/ERC20/ERC20Detailed.sol\";\nimport \"openzeppelin-solidity/contracts/ownership/Ownable.sol\";\n\nimport \"./IMoneyMarketAdapter.sol\";\nimport \"./TokenShare.sol\";\n\n/**\n * @title MetaMoneyMarket\n * @dev MetaMoneyMarket is a contract for managing deposits. It chooses between a number of underlying\n * contracts and selects the one with the highest rate.\n * The addresses of the money markets are specified on deployment.\n */\ncontract MetaMoneyMarket is Ownable {\n  // list of adapters for the underlying money markets\n  IMoneyMarketAdapter[] public moneyMarkets;\n\n  // maps token addresses to a struct indicating if the token is supported and to the address of the token share\n  mapping(address => Market) public supportedMarkets;\n  address[] public supportedMarketsList;\n\n  struct Market {\n    bool isSupported;\n    TokenShare tokenShare;\n  }\n\n  /**\n    * @param _moneyMarkets Addresses of adapter contracts for supported money markets\n    * @dev The adapters are contracts that implement a given interface, used by this contract to interact with the\n    * underlying money markets. See `IMoneyMarketAdapter`.\n    */\n  constructor(address[] memory _moneyMarkets) public {\n    require(\n      _moneyMarkets.length > 0,\n      \"At least one money market has to be specified\"\n    );\n    for (uint256 i = 0; i < _moneyMarkets.length; i++) {\n      moneyMarkets.push(IMoneyMarketAdapter(_moneyMarkets[i]));\n    }\n  }\n\n  modifier checkMarketSupported(address token) {\n    require(isMarketSupported(token), \"Market is not supported\");\n    _;\n  }\n\n  /**\n    * @dev Deposit the given amount of tokens in the best available money market.\n    * Before calling this function, the callee must give permission to this contract to move at least the specified\n    * amount of tokens.\n    *\n    * Rejects if the token is not supported.\n    *\n    * @param tokenAddress Address of the token that is going to be deposited\n    * @param tokenAmount Amount of token units to deposit\n    */\n  function deposit(address tokenAddress, uint256 tokenAmount)\n    external\n    checkMarketSupported(tokenAddress)\n  {\n    IERC20 token = IERC20(tokenAddress);\n\n    TokenShare tokenShare = supportedMarkets[tokenAddress].tokenShare;\n    uint256 tokenShareSupply = tokenShare.totalSupply();\n    uint256 tokenSupply = totalSupply(tokenAddress);\n\n    uint256 tokenSharesToMint = tokenSupply > 0\n      ? tokenShareSupply * tokenAmount / tokenSupply\n      : tokenAmount;\n\n    tokenShare.mint(msg.sender, tokenSharesToMint);\n\n    (IMoneyMarketAdapter bestMoneyMarket,) = getBestMoneyMarket(tokenAddress);\n\n    require(\n      token.balanceOf(msg.sender) >= tokenAmount,\n      \"MetaMoneyMarket.deposit: User does not have enough balance\"\n    );\n    require(\n      token.allowance(msg.sender, address(this)) >= tokenAmount,\n      \"MetaMoneyMarket.deposit: Cannot transfer tokens from the user\"\n    );\n    token.transferFrom(msg.sender, address(this), tokenAmount);\n\n    bestMoneyMarket.deposit(tokenAddress, tokenAmount);\n  }\n\n  /**\n    * @dev Burn the given amount of token shares and transfer the equivalent amount of tokens to the callee.\n    * Before calling this function, the callee must give permission to this contract to move at least the specified\n    * amount of token shares.\n    *\n    * Rejects if the token is not supported.\n    *\n    * @param tokenAddress Address of the token that is going to be deposited\n    * @param tokenShareAmount Amount of token share units to burn\n    */\n  function withdraw(address tokenAddress, uint256 tokenShareAmount)\n    external\n    checkMarketSupported(tokenAddress)\n  {\n    TokenShare tokenShare = supportedMarkets[tokenAddress].tokenShare;\n    uint256 tokenShareSupply = tokenShare.totalSupply();\n    uint256 tokenSupply = totalSupply(tokenAddress);\n\n    uint256 tokensToTransfer = tokenSupply * tokenShareAmount / tokenShareSupply;\n\n    require(\n      tokenShare.balanceOf(msg.sender) >= tokenShareAmount,\n      \"MetaMoneyMarket.withdraw: Not enough token shares\"\n    );\n    require(\n      tokenShare.allowance(msg.sender, address(this)) >= tokenShareAmount,\n      \"MetaMoneyMarket.withdraw: Cannot burn token shares\"\n    );\n    tokenShare.burnFrom(msg.sender, tokenShareAmount);\n\n    for (uint256 i = 0; i < moneyMarkets.length && tokensToTransfer > 0; i++) {\n      uint256 supply = moneyMarkets[i].getSupply(tokenAddress);\n      if (supply == 0) {\n        continue;\n      }\n      if (supply >= tokensToTransfer) {\n        moneyMarkets[i].withdraw(tokenAddress, msg.sender, tokensToTransfer);\n        tokensToTransfer = 0;\n      } else {\n        moneyMarkets[i].withdraw(tokenAddress, msg.sender, supply);\n        tokensToTransfer -= supply;\n      }\n    }\n  }\n\n  /**\n    * @dev Add the given token to the list of supported markets.\n    * This method deploys a new token that represents shares on the deposits of the given market. This is a `Mintable`\n    * and `Burnable` token. Only this contract can mint new shares.\n    *\n    * Rejects if the token is already supported.\n    *\n    * @param tokenAddress Address of the token that is going to be supported\n    */\n  function addMarket(address tokenAddress) external onlyOwner {\n    IERC20 token = IERC20(tokenAddress);\n    require(\n      !supportedMarkets[tokenAddress].isSupported,\n      \"Market is already supported\"\n    );\n\n    TokenShare tokenShare = new TokenShare();\n\n    supportedMarketsList.push(tokenAddress);\n    supportedMarkets[tokenAddress].isSupported = true;\n    supportedMarkets[tokenAddress].tokenShare = tokenShare;\n\n    for (uint256 i = 0; i < moneyMarkets.length; i++) {\n      token.approve(address(moneyMarkets[i]), uint256(-1));\n      tokenShare.approve(address(moneyMarkets[i]), uint256(-1));\n    }\n  }\n\n  /**\n    * @dev Return the address of the `TokenShare` for the given `tokenAddress`.\n    *\n    * Rejects if the token is not supported.\n    */\n  function getTokenShare(address tokenAddress)\n    external\n    view\n    checkMarketSupported(tokenAddress)\n    returns (address)\n  {\n    return address(supportedMarkets[tokenAddress].tokenShare);\n  }\n\n  /**\n    * @dev Returns the amount of tokens for the given `tokenAddress`, including accrued interest.\n    *\n    * This function can cause side effects.\n    *\n    * Rejects if the token is not supported.\n    */\n  function totalSupply(address tokenAddress)\n    public\n    checkMarketSupported(tokenAddress)\n    returns (uint256)\n  {\n    uint256 tokenSupply = 0;\n    for (uint256 i = 0; i < moneyMarkets.length; i++) {\n      tokenSupply += moneyMarkets[i].getSupply(tokenAddress);\n    }\n\n    return tokenSupply;\n  }\n\n  /**\n    * @dev Returns the amount of tokens for the given `tokenAddress`; it might not include accrued interest.\n    *\n    * This function cannot cause side effects.\n    *\n    * Rejects if the token is not supported.\n    */\n  function totalSupplyView(address tokenAddress)\n    public\n    view\n    checkMarketSupported(tokenAddress)\n    returns (uint256)\n  {\n    uint256 tokenSupply = 0;\n    for (uint256 i = 0; i < moneyMarkets.length; i++) {\n      tokenSupply += moneyMarkets[i].getSupplyView(tokenAddress);\n    }\n\n    return tokenSupply;\n  }\n\n  /**\n    * @dev Indicates if the given token is supported.\n    */\n  function isMarketSupported(address tokenAddress) public view returns (bool) {\n    return supportedMarkets[tokenAddress].isSupported;\n  }\n\n  function getMarketSymbol(address tokenAddress)\n    public\n    view\n    checkMarketSupported(tokenAddress)\n    returns (string memory)\n  {\n    ERC20Detailed token = ERC20Detailed(tokenAddress);\n\n    return token.symbol();\n  }\n\n  /**\n    * @dev Returns the number of underlying money markets.\n    */\n  function moneyMarketsCount() public view returns (uint256) {\n    return moneyMarkets.length;\n  }\n\n  function supportedMarketsCount() public view returns (uint256) {\n    return supportedMarketsList.length;\n  }\n\n  function getDepositedAmount(address tokenAddress, address account)\n    public\n    view\n    checkMarketSupported(tokenAddress)\n    returns (uint256)\n  {\n    TokenShare tokenShare = supportedMarkets[address(tokenAddress)].tokenShare;\n\n    (uint256 tokenSupply, uint256 tokenShareSupply) = getExchangeRate(\n      tokenAddress\n    );\n    uint256 tokenShareBalance = tokenShare.balanceOf(account);\n\n    return tokenShareSupply > 0\n      ? tokenShareBalance * tokenSupply / tokenShareSupply\n      : 0;\n  }\n\n  function getExchangeRate(address tokenAddress)\n    public\n    view\n    checkMarketSupported(tokenAddress)\n    returns (uint256 tokenSupply, uint256 tokenShareSupply)\n  {\n    TokenShare tokenShare = supportedMarkets[address(tokenAddress)].tokenShare;\n\n    tokenSupply = totalSupplyView(tokenAddress);\n    tokenShareSupply = tokenShare.totalSupply();\n  }\n\n  function getBestMoneyMarket(address tokenAddress)\n    public\n    view\n    checkMarketSupported(tokenAddress)\n    returns (IMoneyMarketAdapter bestMoneyMarket, uint256 bestRate)\n  {\n    bestMoneyMarket = moneyMarkets[0];\n    bestRate = moneyMarkets[0].getRate(tokenAddress);\n    for (uint256 i = 1; i < moneyMarkets.length; i++) {\n      uint256 rate = moneyMarkets[i].getRate(tokenAddress);\n      if (rate > bestRate) {\n        bestRate = rate;\n        bestMoneyMarket = moneyMarkets[i];\n      }\n    }\n  }\n\n  function getBestInterestRate(address tokenAddress)\n    public\n    view\n    checkMarketSupported(tokenAddress)\n    returns (uint256)\n  {\n    (, uint256 bestRate) = getBestMoneyMarket(tokenAddress);\n\n    return bestRate;\n  }\n}\n",
  "sourcePath": "/home/fvictorio/repos/sovereign/blockchain/contracts/MetaMoneyMarket.sol",
  "compiler": {
    "name": "solc",
    "version": "0.5.8+commit.23d335f2.Emscripten.clang"
  },
  "schemaVersion": "3.0.11",
  "updatedAt": "2019-07-05T19:59:35.317Z",
  "devdoc": {
    "details": "MetaMoneyMarket is a contract for managing deposits. It chooses between a number of underlying contracts and selects the one with the highest rate. The addresses of the money markets are specified on deployment.",
    "methods": {
      "addMarket(address)": {
        "details": "Add the given token to the list of supported markets. This method deploys a new token that represents shares on the deposits of the given market. This is a `Mintable` and `Burnable` token. Only this contract can mint new shares.    * Rejects if the token is already supported.",
        "params": {
          "tokenAddress": "Address of the token that is going to be supported"
        }
      },
      "constructor": {
        "details": "The adapters are contracts that implement a given interface, used by this contract to interact with the underlying money markets. See `IMoneyMarketAdapter`.",
        "params": {
          "_moneyMarkets": "Addresses of adapter contracts for supported money markets"
        }
      },
      "deposit(address,uint256)": {
        "details": "Deposit the given amount of tokens in the best available money market. Before calling this function, the callee must give permission to this contract to move at least the specified amount of tokens.    * Rejects if the token is not supported.",
        "params": {
          "tokenAddress": "Address of the token that is going to be deposited",
          "tokenAmount": "Amount of token units to deposit"
        }
      },
      "getTokenShare(address)": {
        "details": "Return the address of the `TokenShare` for the given `tokenAddress`.    * Rejects if the token is not supported."
      },
      "isMarketSupported(address)": {
        "details": "Indicates if the given token is supported."
      },
      "isOwner()": {
        "details": "Returns true if the caller is the current owner."
      },
      "moneyMarketsCount()": {
        "details": "Returns the number of underlying money markets."
      },
      "owner()": {
        "details": "Returns the address of the current owner."
      },
      "renounceOwnership()": {
        "details": "Leaves the contract without owner. It will not be possible to call `onlyOwner` functions anymore. Can only be called by the current owner.     * > Note: Renouncing ownership will leave the contract without an owner, thereby removing any functionality that is only available to the owner."
      },
      "totalSupply(address)": {
        "details": "Returns the amount of tokens for the given `tokenAddress`, including accrued interest.    * This function can cause side effects.    * Rejects if the token is not supported."
      },
      "totalSupplyView(address)": {
        "details": "Returns the amount of tokens for the given `tokenAddress`; it might not include accrued interest.    * This function cannot cause side effects.    * Rejects if the token is not supported."
      },
      "transferOwnership(address)": {
        "details": "Transfers ownership of the contract to a new account (`newOwner`). Can only be called by the current owner."
      },
      "withdraw(address,uint256)": {
        "details": "Burn the given amount of token shares and transfer the equivalent amount of tokens to the callee. Before calling this function, the callee must give permission to this contract to move at least the specified amount of token shares.    * Rejects if the token is not supported.",
        "params": {
          "tokenAddress": "Address of the token that is going to be deposited",
          "tokenShareAmount": "Amount of token share units to burn"
        }
      }
    },
    "title": "MetaMoneyMarket"
  },
  "userdoc": {
    "methods": {}
  }
}