{
  "contractName": "MoneyMarketMock",
  "abi": [
    {
      "constant": true,
      "inputs": [
        {
          "name": "",
          "type": "address"
        }
      ],
      "name": "supportedMarkets",
      "outputs": [
        {
          "name": "isSupported",
          "type": "bool"
        },
        {
          "name": "tokenShare",
          "type": "address"
        }
      ],
      "payable": false,
      "stateMutability": "view",
      "type": "function"
    },
    {
      "constant": true,
      "inputs": [],
      "name": "rate",
      "outputs": [
        {
          "name": "",
          "type": "uint256"
        }
      ],
      "payable": false,
      "stateMutability": "view",
      "type": "function"
    },
    {
      "constant": false,
      "inputs": [],
      "name": "renounceOwnership",
      "outputs": [],
      "payable": false,
      "stateMutability": "nonpayable",
      "type": "function"
    },
    {
      "constant": true,
      "inputs": [],
      "name": "owner",
      "outputs": [
        {
          "name": "",
          "type": "address"
        }
      ],
      "payable": false,
      "stateMutability": "view",
      "type": "function"
    },
    {
      "constant": true,
      "inputs": [],
      "name": "isOwner",
      "outputs": [
        {
          "name": "",
          "type": "bool"
        }
      ],
      "payable": false,
      "stateMutability": "view",
      "type": "function"
    },
    {
      "constant": false,
      "inputs": [
        {
          "name": "newOwner",
          "type": "address"
        }
      ],
      "name": "transferOwnership",
      "outputs": [],
      "payable": false,
      "stateMutability": "nonpayable",
      "type": "function"
    },
    {
      "inputs": [
        {
          "name": "_rate",
          "type": "uint256"
        }
      ],
      "payable": false,
      "stateMutability": "nonpayable",
      "type": "constructor"
    },
    {
      "anonymous": false,
      "inputs": [
        {
          "indexed": true,
          "name": "previousOwner",
          "type": "address"
        },
        {
          "indexed": true,
          "name": "newOwner",
          "type": "address"
        }
      ],
      "name": "OwnershipTransferred",
      "type": "event"
    },
    {
      "constant": false,
      "inputs": [
        {
          "name": "newRate",
          "type": "uint256"
        }
      ],
      "name": "setRate",
      "outputs": [],
      "payable": false,
      "stateMutability": "nonpayable",
      "type": "function"
    },
    {
      "constant": false,
      "inputs": [
        {
          "name": "tokenAddress",
          "type": "address"
        },
        {
          "name": "amount",
          "type": "uint256"
        }
      ],
      "name": "deposit",
      "outputs": [],
      "payable": false,
      "stateMutability": "nonpayable",
      "type": "function"
    },
    {
      "constant": false,
      "inputs": [
        {
          "name": "tokenAddress",
          "type": "address"
        },
        {
          "name": "amount",
          "type": "uint256"
        }
      ],
      "name": "withdraw",
      "outputs": [],
      "payable": false,
      "stateMutability": "nonpayable",
      "type": "function"
    },
    {
      "constant": false,
      "inputs": [
        {
          "name": "tokenAddress",
          "type": "address"
        }
      ],
      "name": "withdrawAll",
      "outputs": [],
      "payable": false,
      "stateMutability": "nonpayable",
      "type": "function"
    },
    {
      "constant": false,
      "inputs": [
        {
          "name": "tokenAddress",
          "type": "address"
        }
      ],
      "name": "addMarket",
      "outputs": [],
      "payable": false,
      "stateMutability": "nonpayable",
      "type": "function"
    },
    {
      "constant": true,
      "inputs": [
        {
          "name": "tokenAddress",
          "type": "address"
        }
      ],
      "name": "getTokenShare",
      "outputs": [
        {
          "name": "",
          "type": "address"
        }
      ],
      "payable": false,
      "stateMutability": "view",
      "type": "function"
    },
    {
      "constant": true,
      "inputs": [
        {
          "name": "tokenAddress",
          "type": "address"
        }
      ],
      "name": "getSupply",
      "outputs": [
        {
          "name": "",
          "type": "uint256"
        }
      ],
      "payable": false,
      "stateMutability": "view",
      "type": "function"
    },
    {
      "constant": true,
      "inputs": [],
      "name": "getAddress",
      "outputs": [
        {
          "name": "",
          "type": "address"
        }
      ],
      "payable": false,
      "stateMutability": "view",
      "type": "function"
    },
    {
      "constant": true,
      "inputs": [
        {
          "name": "tokenAddress",
          "type": "address"
        }
      ],
      "name": "getExchangeRate",
      "outputs": [
        {
          "name": "",
          "type": "uint256"
        },
        {
          "name": "",
          "type": "uint256"
        }
      ],
      "payable": false,
      "stateMutability": "view",
      "type": "function"
    },
    {
      "constant": true,
      "inputs": [
        {
          "name": "token",
          "type": "address"
        }
      ],
      "name": "getRate",
      "outputs": [
        {
          "name": "",
          "type": "uint256"
        }
      ],
      "payable": false,
      "stateMutability": "view",
      "type": "function"
    },
    {
      "constant": true,
      "inputs": [
        {
          "name": "token",
          "type": "address"
        }
      ],
      "name": "isMarketSupported",
      "outputs": [
        {
          "name": "",
          "type": "bool"
        }
      ],
      "payable": false,
      "stateMutability": "view",
      "type": "function"
    }
  ],
  "bytecode": "0x608060405234801561001057600080fd5b506040516020806141298339810180604052602081101561003057600080fd5b8101908080519060200190929190505050336000806101000a81548173ffffffffffffffffffffffffffffffffffffffff021916908373ffffffffffffffffffffffffffffffffffffffff1602179055506000809054906101000a900473ffffffffffffffffffffffffffffffffffffffff1673ffffffffffffffffffffffffffffffffffffffff16600073ffffffffffffffffffffffffffffffffffffffff167f8be0079c531659141344cd1fd0a4f28419497f9722a3daafe3b4186f6b6457e060405160405180910390a38060018190555050614015806101146000396000f3fe60806040523480156200001157600080fd5b5060043610620001245760003560e01c80638da5cb5b11620000b1578063efb7601d116200007b578063efb7601d1462000481578063efcf952314620004e3578063f2fde38b146200056a578063f3fef3a314620005b1578063fa09e63014620006025762000124565b80638da5cb5b146200036b5780638f32d59b14620003b757806393e3063314620003db578063cbfe49af14620004225762000124565b806337cef79111620000f357806337cef791146200026757806338cc483114620002c257806347e7ef24146200030e578063715018a6146200035f5762000124565b80631fd433aa146200012957806320761fc414620001845780632c4e722e146200021657806334fcf4371462000236575b600080fd5b6200016e600480360360208110156200014157600080fd5b81019080803573ffffffffffffffffffffffffffffffffffffffff16906020019092919050505062000649565b6040518082815260200191505060405180910390f35b620001c9600480360360208110156200019c57600080fd5b81019080803573ffffffffffffffffffffffffffffffffffffffff16906020019092919050505062000793565b60405180831515151581526020018273ffffffffffffffffffffffffffffffffffffffff1673ffffffffffffffffffffffffffffffffffffffff1681526020019250505060405180910390f35b62000220620007e4565b6040518082815260200191505060405180910390f35b62000265600480360360208110156200024e57600080fd5b8101908080359060200190929190505050620007ea565b005b620002ac600480360360208110156200027f57600080fd5b81019080803573ffffffffffffffffffffffffffffffffffffffff16906020019092919050505062000871565b6040518082815260200191505060405180910390f35b620002cc620008fd565b604051808273ffffffffffffffffffffffffffffffffffffffff1673ffffffffffffffffffffffffffffffffffffffff16815260200191505060405180910390f35b6200035d600480360360408110156200032657600080fd5b81019080803573ffffffffffffffffffffffffffffffffffffffff1690602001909291908035906020019092919050505062000905565b005b6200036962000f80565b005b62000375620010bc565b604051808273ffffffffffffffffffffffffffffffffffffffff1673ffffffffffffffffffffffffffffffffffffffff16815260200191505060405180910390f35b620003c1620010e5565b604051808215151515815260200191505060405180910390f35b6200042060048036036020811015620003f357600080fd5b81019080803573ffffffffffffffffffffffffffffffffffffffff1690602001909291905050506200113c565b005b62000467600480360360208110156200043a57600080fd5b81019080803573ffffffffffffffffffffffffffffffffffffffff1690602001909291905050506200139c565b604051808215151515815260200191505060405180910390f35b620004c6600480360360208110156200049957600080fd5b81019080803573ffffffffffffffffffffffffffffffffffffffff169060200190929190505050620013f5565b604051808381526020018281526020019250505060405180910390f35b6200052860048036036020811015620004fb57600080fd5b81019080803573ffffffffffffffffffffffffffffffffffffffff1690602001909291905050506200162e565b604051808273ffffffffffffffffffffffffffffffffffffffff1673ffffffffffffffffffffffffffffffffffffffff16815260200191505060405180910390f35b620005af600480360360208110156200058257600080fd5b81019080803573ffffffffffffffffffffffffffffffffffffffff1690602001909291905050506200171a565b005b6200060060048036036040811015620005c957600080fd5b81019080803573ffffffffffffffffffffffffffffffffffffffff16906020019092919080359060200190929190505050620017a5565b005b62000647600480360360208110156200061a57600080fd5b81019080803573ffffffffffffffffffffffffffffffffffffffff16906020019092919050505062001ecc565b005b60008162000657816200139c565b620006ca576040517f08c379a00000000000000000000000000000000000000000000000000000000081526004018080602001828103825260178152602001807f4d61726b6574206973206e6f7420737570706f7274656400000000000000000081525060200191505060405180910390fd5b60008390508073ffffffffffffffffffffffffffffffffffffffff166370a08231306040518263ffffffff1660e01b8152600401808273ffffffffffffffffffffffffffffffffffffffff1673ffffffffffffffffffffffffffffffffffffffff16815260200191505060206040518083038186803b1580156200074d57600080fd5b505afa15801562000762573d6000803e3d6000fd5b505050506040513d60208110156200077957600080fd5b810190808051906020019092919050505092505050919050565b60026020528060005260406000206000915090508060000160009054906101000a900460ff16908060000160019054906101000a900473ffffffffffffffffffffffffffffffffffffffff16905082565b60015481565b620007f4620010e5565b62000867576040517f08c379a00000000000000000000000000000000000000000000000000000000081526004018080602001828103825260208152602001807f4f776e61626c653a2063616c6c6572206973206e6f7420746865206f776e657281525060200191505060405180910390fd5b8060018190555050565b6000816200087f816200139c565b620008f2576040517f08c379a00000000000000000000000000000000000000000000000000000000081526004018080602001828103825260178152602001807f4d61726b6574206973206e6f7420737570706f7274656400000000000000000081525060200191505060405180910390fd5b600154915050919050565b600030905090565b8162000911816200139c565b62000984576040517f08c379a00000000000000000000000000000000000000000000000000000000081526004018080602001828103825260178152602001807f4d61726b6574206973206e6f7420737570706f7274656400000000000000000081525060200191505060405180910390fd5b60008390506000600260008673ffffffffffffffffffffffffffffffffffffffff1673ffffffffffffffffffffffffffffffffffffffff16815260200190815260200160002060000160019054906101000a900473ffffffffffffffffffffffffffffffffffffffff16905060008173ffffffffffffffffffffffffffffffffffffffff166318160ddd6040518163ffffffff1660e01b815260040160206040518083038186803b15801562000a3957600080fd5b505afa15801562000a4e573d6000803e3d6000fd5b505050506040513d602081101562000a6557600080fd5b8101908080519060200190929190505050905060008373ffffffffffffffffffffffffffffffffffffffff166370a08231306040518263ffffffff1660e01b8152600401808273ffffffffffffffffffffffffffffffffffffffff1673ffffffffffffffffffffffffffffffffffffffff16815260200191505060206040518083038186803b15801562000af857600080fd5b505afa15801562000b0d573d6000803e3d6000fd5b505050506040513d602081101562000b2457600080fd5b81019080805190602001909291905050509050600080821162000b48578662000b56565b818784028162000b5457fe5b045b90508373ffffffffffffffffffffffffffffffffffffffff166340c10f1933836040518363ffffffff1660e01b8152600401808373ffffffffffffffffffffffffffffffffffffffff1673ffffffffffffffffffffffffffffffffffffffff16815260200182815260200192505050602060405180830381600087803b15801562000be057600080fd5b505af115801562000bf5573d6000803e3d6000fd5b505050506040513d602081101562000c0c57600080fd5b810190808051906020019092919050505050868573ffffffffffffffffffffffffffffffffffffffff166370a08231336040518263ffffffff1660e01b8152600401808273ffffffffffffffffffffffffffffffffffffffff1673ffffffffffffffffffffffffffffffffffffffff16815260200191505060206040518083038186803b15801562000c9d57600080fd5b505afa15801562000cb2573d6000803e3d6000fd5b505050506040513d602081101562000cc957600080fd5b8101908080519060200190929190505050101562000d33576040517f08c379a000000000000000000000000000000000000000000000000000000000815260040180806020018281038252603181526020018062003f826031913960400191505060405180910390fd5b868573ffffffffffffffffffffffffffffffffffffffff1663dd62ed3e33306040518363ffffffff1660e01b8152600401808373ffffffffffffffffffffffffffffffffffffffff1673ffffffffffffffffffffffffffffffffffffffff1681526020018273ffffffffffffffffffffffffffffffffffffffff1673ffffffffffffffffffffffffffffffffffffffff1681526020019250505060206040518083038186803b15801562000de657600080fd5b505afa15801562000dfb573d6000803e3d6000fd5b505050506040513d602081101562000e1257600080fd5b8101908080519060200190929190505050101562000e7c576040517f08c379a000000000000000000000000000000000000000000000000000000000815260040180806020018281038252602f81526020018062003f22602f913960400191505060405180910390fd5b8473ffffffffffffffffffffffffffffffffffffffff166323b872dd33308a6040518463ffffffff1660e01b8152600401808473ffffffffffffffffffffffffffffffffffffffff1673ffffffffffffffffffffffffffffffffffffffff1681526020018373ffffffffffffffffffffffffffffffffffffffff1673ffffffffffffffffffffffffffffffffffffffff1681526020018281526020019350505050602060405180830381600087803b15801562000f3857600080fd5b505af115801562000f4d573d6000803e3d6000fd5b505050506040513d602081101562000f6457600080fd5b8101908080519060200190929190505050505050505050505050565b62000f8a620010e5565b62000ffd576040517f08c379a00000000000000000000000000000000000000000000000000000000081526004018080602001828103825260208152602001807f4f776e61626c653a2063616c6c6572206973206e6f7420746865206f776e657281525060200191505060405180910390fd5b600073ffffffffffffffffffffffffffffffffffffffff166000809054906101000a900473ffffffffffffffffffffffffffffffffffffffff1673ffffffffffffffffffffffffffffffffffffffff167f8be0079c531659141344cd1fd0a4f28419497f9722a3daafe3b4186f6b6457e060405160405180910390a360008060006101000a81548173ffffffffffffffffffffffffffffffffffffffff021916908373ffffffffffffffffffffffffffffffffffffffff160217905550565b60008060009054906101000a900473ffffffffffffffffffffffffffffffffffffffff16905090565b60008060009054906101000a900473ffffffffffffffffffffffffffffffffffffffff1673ffffffffffffffffffffffffffffffffffffffff163373ffffffffffffffffffffffffffffffffffffffff1614905090565b62001146620010e5565b620011b9576040517f08c379a00000000000000000000000000000000000000000000000000000000081526004018080602001828103825260208152602001807f4f776e61626c653a2063616c6c6572206973206e6f7420746865206f776e657281525060200191505060405180910390fd5b600260008273ffffffffffffffffffffffffffffffffffffffff1673ffffffffffffffffffffffffffffffffffffffff16815260200190815260200160002060000160009054906101000a900460ff16156200127d576040517f08c379a000000000000000000000000000000000000000000000000000000000815260040180806020018281038252601b8152602001807f4d61726b657420697320616c726561647920737570706f72746564000000000081525060200191505060405180910390fd5b600060126040516200128f90620023de565b808260ff168152602001915050604051809103906000f080158015620012b9573d6000803e3d6000fd5b5090506001600260008473ffffffffffffffffffffffffffffffffffffffff1673ffffffffffffffffffffffffffffffffffffffff16815260200190815260200160002060000160006101000a81548160ff02191690831515021790555080600260008473ffffffffffffffffffffffffffffffffffffffff1673ffffffffffffffffffffffffffffffffffffffff16815260200190815260200160002060000160016101000a81548173ffffffffffffffffffffffffffffffffffffffff021916908373ffffffffffffffffffffffffffffffffffffffff1602179055505050565b6000600260008373ffffffffffffffffffffffffffffffffffffffff1673ffffffffffffffffffffffffffffffffffffffff16815260200190815260200160002060000160009054906101000a900460ff169050919050565b6000808262001404816200139c565b62001477576040517f08c379a00000000000000000000000000000000000000000000000000000000081526004018080602001828103825260178152602001807f4d61726b6574206973206e6f7420737570706f7274656400000000000000000081525060200191505060405180910390fd5b60008490506000600260008773ffffffffffffffffffffffffffffffffffffffff1673ffffffffffffffffffffffffffffffffffffffff16815260200190815260200160002060000160019054906101000a900473ffffffffffffffffffffffffffffffffffffffff1690508073ffffffffffffffffffffffffffffffffffffffff166318160ddd6040518163ffffffff1660e01b815260040160206040518083038186803b1580156200152a57600080fd5b505afa1580156200153f573d6000803e3d6000fd5b505050506040513d60208110156200155657600080fd5b81019080805190602001909291905050508273ffffffffffffffffffffffffffffffffffffffff166370a08231306040518263ffffffff1660e01b8152600401808273ffffffffffffffffffffffffffffffffffffffff1673ffffffffffffffffffffffffffffffffffffffff16815260200191505060206040518083038186803b158015620015e557600080fd5b505afa158015620015fa573d6000803e3d6000fd5b505050506040513d60208110156200161157600080fd5b810190808051906020019092919050505094509450505050915091565b6000816200163c816200139c565b620016af576040517f08c379a00000000000000000000000000000000000000000000000000000000081526004018080602001828103825260178152602001807f4d61726b6574206973206e6f7420737570706f7274656400000000000000000081525060200191505060405180910390fd5b600260008473ffffffffffffffffffffffffffffffffffffffff1673ffffffffffffffffffffffffffffffffffffffff16815260200190815260200160002060000160019054906101000a900473ffffffffffffffffffffffffffffffffffffffff16915050919050565b62001724620010e5565b62001797576040517f08c379a00000000000000000000000000000000000000000000000000000000081526004018080602001828103825260208152602001807f4f776e61626c653a2063616c6c6572206973206e6f7420746865206f776e657281525060200191505060405180910390fd5b620017a28162002298565b50565b81620017b1816200139c565b62001824576040517f08c379a00000000000000000000000000000000000000000000000000000000081526004018080602001828103825260178152602001807f4d61726b6574206973206e6f7420737570706f7274656400000000000000000081525060200191505060405180910390fd5b60008390506000600260008673ffffffffffffffffffffffffffffffffffffffff1673ffffffffffffffffffffffffffffffffffffffff16815260200190815260200160002060000160019054906101000a900473ffffffffffffffffffffffffffffffffffffffff16905060008173ffffffffffffffffffffffffffffffffffffffff166318160ddd6040518163ffffffff1660e01b815260040160206040518083038186803b158015620018d957600080fd5b505afa158015620018ee573d6000803e3d6000fd5b505050506040513d60208110156200190557600080fd5b8101908080519060200190929190505050905060008373ffffffffffffffffffffffffffffffffffffffff166370a08231306040518263ffffffff1660e01b8152600401808273ffffffffffffffffffffffffffffffffffffffff1673ffffffffffffffffffffffffffffffffffffffff16815260200191505060206040518083038186803b1580156200199857600080fd5b505afa158015620019ad573d6000803e3d6000fd5b505050506040513d6020811015620019c457600080fd5b8101908080519060200190929190505050905060008287830281620019e557fe5b049050868473ffffffffffffffffffffffffffffffffffffffff1663dd62ed3e33306040518363ffffffff1660e01b8152600401808373ffffffffffffffffffffffffffffffffffffffff1673ffffffffffffffffffffffffffffffffffffffff1681526020018273ffffffffffffffffffffffffffffffffffffffff1673ffffffffffffffffffffffffffffffffffffffff1681526020019250505060206040518083038186803b15801562001a9b57600080fd5b505afa15801562001ab0573d6000803e3d6000fd5b505050506040513d602081101562001ac757600080fd5b8101908080519060200190929190505050101562001b31576040517f08c379a000000000000000000000000000000000000000000000000000000000815260040180806020018281038252603181526020018062003f516031913960400191505060405180910390fd5b868473ffffffffffffffffffffffffffffffffffffffff166370a08231336040518263ffffffff1660e01b8152600401808273ffffffffffffffffffffffffffffffffffffffff1673ffffffffffffffffffffffffffffffffffffffff16815260200191505060206040518083038186803b15801562001bb057600080fd5b505afa15801562001bc5573d6000803e3d6000fd5b505050506040513d602081101562001bdc57600080fd5b8101908080519060200190929190505050101562001c46576040517f08c379a000000000000000000000000000000000000000000000000000000000815260040180806020018281038252603981526020018062003ee96039913960400191505060405180910390fd5b8373ffffffffffffffffffffffffffffffffffffffff166379cc679033896040518363ffffffff1660e01b8152600401808373ffffffffffffffffffffffffffffffffffffffff1673ffffffffffffffffffffffffffffffffffffffff16815260200182815260200192505050600060405180830381600087803b15801562001cce57600080fd5b505af115801562001ce3573d6000803e3d6000fd5b50505050808573ffffffffffffffffffffffffffffffffffffffff166370a08231306040518263ffffffff1660e01b8152600401808273ffffffffffffffffffffffffffffffffffffffff1673ffffffffffffffffffffffffffffffffffffffff16815260200191505060206040518083038186803b15801562001d6657600080fd5b505afa15801562001d7b573d6000803e3d6000fd5b505050506040513d602081101562001d9257600080fd5b8101908080519060200190929190505050101562001dfc576040517f08c379a000000000000000000000000000000000000000000000000000000000815260040180806020018281038252603781526020018062003fb36037913960400191505060405180910390fd5b8473ffffffffffffffffffffffffffffffffffffffff1663a9059cbb33836040518363ffffffff1660e01b8152600401808373ffffffffffffffffffffffffffffffffffffffff1673ffffffffffffffffffffffffffffffffffffffff16815260200182815260200192505050602060405180830381600087803b15801562001e8457600080fd5b505af115801562001e99573d6000803e3d6000fd5b505050506040513d602081101562001eb057600080fd5b8101908080519060200190929190505050505050505050505050565b8062001ed8816200139c565b62001f4b576040517f08c379a00000000000000000000000000000000000000000000000000000000081526004018080602001828103825260178152602001807f4d61726b6574206973206e6f7420737570706f7274656400000000000000000081525060200191505060405180910390fd5b60008290506000600260008573ffffffffffffffffffffffffffffffffffffffff1673ffffffffffffffffffffffffffffffffffffffff16815260200190815260200160002060000160019054906101000a900473ffffffffffffffffffffffffffffffffffffffff1690508073ffffffffffffffffffffffffffffffffffffffff166379cc6790338373ffffffffffffffffffffffffffffffffffffffff166370a08231336040518263ffffffff1660e01b8152600401808273ffffffffffffffffffffffffffffffffffffffff1673ffffffffffffffffffffffffffffffffffffffff16815260200191505060206040518083038186803b1580156200205257600080fd5b505afa15801562002067573d6000803e3d6000fd5b505050506040513d60208110156200207e57600080fd5b81019080805190602001909291905050506040518363ffffffff1660e01b8152600401808373ffffffffffffffffffffffffffffffffffffffff1673ffffffffffffffffffffffffffffffffffffffff16815260200182815260200192505050600060405180830381600087803b158015620020f957600080fd5b505af11580156200210e573d6000803e3d6000fd5b505050508173ffffffffffffffffffffffffffffffffffffffff1663a9059cbb338473ffffffffffffffffffffffffffffffffffffffff166370a08231306040518263ffffffff1660e01b8152600401808273ffffffffffffffffffffffffffffffffffffffff1673ffffffffffffffffffffffffffffffffffffffff16815260200191505060206040518083038186803b158015620021ad57600080fd5b505afa158015620021c2573d6000803e3d6000fd5b505050506040513d6020811015620021d957600080fd5b81019080805190602001909291905050506040518363ffffffff1660e01b8152600401808373ffffffffffffffffffffffffffffffffffffffff1673ffffffffffffffffffffffffffffffffffffffff16815260200182815260200192505050602060405180830381600087803b1580156200225457600080fd5b505af115801562002269573d6000803e3d6000fd5b505050506040513d60208110156200228057600080fd5b81019080805190602001909291905050505050505050565b600073ffffffffffffffffffffffffffffffffffffffff168173ffffffffffffffffffffffffffffffffffffffff16141562002320576040517f08c379a000000000000000000000000000000000000000000000000000000000815260040180806020018281038252602681526020018062003ec36026913960400191505060405180910390fd5b8073ffffffffffffffffffffffffffffffffffffffff166000809054906101000a900473ffffffffffffffffffffffffffffffffffffffff1673ffffffffffffffffffffffffffffffffffffffff167f8be0079c531659141344cd1fd0a4f28419497f9722a3daafe3b4186f6b6457e060405160405180910390a3806000806101000a81548173ffffffffffffffffffffffffffffffffffffffff021916908373ffffffffffffffffffffffffffffffffffffffff16021790555050565b611ad680620023ed8339019056fe60806040523480156200001157600080fd5b5060405160208062001ad6833981018060405260208110156200003357600080fd5b810190808051906020019092919050505062000055336200007760201b60201c565b80600460006101000a81548160ff021916908360ff160217905550506200029c565b62000092816003620000d860201b620015221790919060201c565b8073ffffffffffffffffffffffffffffffffffffffff167f6ae172837ea30b801fbfcdd4108aa1d5bf8ff775444fd70256b44e6bf3dfc3f660405160405180910390a250565b620000ea8282620001bc60201b60201c565b156200015e576040517f08c379a000000000000000000000000000000000000000000000000000000000815260040180806020018281038252601f8152602001807f526f6c65733a206163636f756e7420616c72656164792068617320726f6c650081525060200191505060405180910390fd5b60018260000160008373ffffffffffffffffffffffffffffffffffffffff1673ffffffffffffffffffffffffffffffffffffffff16815260200190815260200160002060006101000a81548160ff0219169083151502179055505050565b60008073ffffffffffffffffffffffffffffffffffffffff168273ffffffffffffffffffffffffffffffffffffffff16141562000245576040517f08c379a000000000000000000000000000000000000000000000000000000000815260040180806020018281038252602281526020018062001ab46022913960400191505060405180910390fd5b8260000160008373ffffffffffffffffffffffffffffffffffffffff1673ffffffffffffffffffffffffffffffffffffffff16815260200190815260200160002060009054906101000a900460ff16905092915050565b61180880620002ac6000396000f3fe608060405234801561001057600080fd5b50600436106100f55760003560e01c806370a0823111610097578063a457c2d711610066578063a457c2d714610416578063a9059cbb1461047c578063aa271e1a146104e2578063dd62ed3e1461053e576100f5565b806370a082311461032257806379cc67901461037a578063983b2d56146103c8578063986502751461040c576100f5565b8063313ce567116100d3578063313ce56714610204578063395093511461022857806340c10f191461028e57806342966c68146102f4576100f5565b8063095ea7b3146100fa57806318160ddd1461016057806323b872dd1461017e575b600080fd5b6101466004803603604081101561011057600080fd5b81019080803573ffffffffffffffffffffffffffffffffffffffff169060200190929190803590602001909291905050506105b6565b604051808215151515815260200191505060405180910390f35b6101686105cd565b6040518082815260200191505060405180910390f35b6101ea6004803603606081101561019457600080fd5b81019080803573ffffffffffffffffffffffffffffffffffffffff169060200190929190803573ffffffffffffffffffffffffffffffffffffffff169060200190929190803590602001909291905050506105d7565b604051808215151515815260200191505060405180910390f35b61020c610688565b604051808260ff1660ff16815260200191505060405180910390f35b6102746004803603604081101561023e57600080fd5b81019080803573ffffffffffffffffffffffffffffffffffffffff1690602001909291908035906020019092919050505061069b565b604051808215151515815260200191505060405180910390f35b6102da600480360360408110156102a457600080fd5b81019080803573ffffffffffffffffffffffffffffffffffffffff16906020019092919080359060200190929190505050610740565b604051808215151515815260200191505060405180910390f35b6103206004803603602081101561030a57600080fd5b81019080803590602001909291905050506107b4565b005b6103646004803603602081101561033857600080fd5b81019080803573ffffffffffffffffffffffffffffffffffffffff1690602001909291905050506107c1565b6040518082815260200191505060405180910390f35b6103c66004803603604081101561039057600080fd5b81019080803573ffffffffffffffffffffffffffffffffffffffff16906020019092919080359060200190929190505050610809565b005b61040a600480360360208110156103de57600080fd5b81019080803573ffffffffffffffffffffffffffffffffffffffff169060200190929190505050610817565b005b610414610881565b005b6104626004803603604081101561042c57600080fd5b81019080803573ffffffffffffffffffffffffffffffffffffffff1690602001909291908035906020019092919050505061088c565b604051808215151515815260200191505060405180910390f35b6104c86004803603604081101561049257600080fd5b81019080803573ffffffffffffffffffffffffffffffffffffffff16906020019092919080359060200190929190505050610931565b604051808215151515815260200191505060405180910390f35b610524600480360360208110156104f857600080fd5b81019080803573ffffffffffffffffffffffffffffffffffffffff169060200190929190505050610948565b604051808215151515815260200191505060405180910390f35b6105a06004803603604081101561055457600080fd5b81019080803573ffffffffffffffffffffffffffffffffffffffff169060200190929190803573ffffffffffffffffffffffffffffffffffffffff169060200190929190505050610965565b6040518082815260200191505060405180910390f35b60006105c33384846109ec565b6001905092915050565b6000600254905090565b60006105e4848484610be3565b61067d843361067885600160008a73ffffffffffffffffffffffffffffffffffffffff1673ffffffffffffffffffffffffffffffffffffffff16815260200190815260200160002060003373ffffffffffffffffffffffffffffffffffffffff1673ffffffffffffffffffffffffffffffffffffffff16815260200190815260200160002054610e7f90919063ffffffff16565b6109ec565b600190509392505050565b600460009054906101000a900460ff1681565b6000610736338461073185600160003373ffffffffffffffffffffffffffffffffffffffff1673ffffffffffffffffffffffffffffffffffffffff16815260200190815260200160002060008973ffffffffffffffffffffffffffffffffffffffff1673ffffffffffffffffffffffffffffffffffffffff16815260200190815260200160002054610f0890919063ffffffff16565b6109ec565b6001905092915050565b600061074b33610948565b6107a0576040517f08c379a00000000000000000000000000000000000000000000000000000000081526004018080602001828103825260308152602001806117006030913960400191505060405180910390fd5b6107aa8383610f90565b6001905092915050565b6107be338261114b565b50565b60008060008373ffffffffffffffffffffffffffffffffffffffff1673ffffffffffffffffffffffffffffffffffffffff168152602001908152602001600020549050919050565b61081382826112e9565b5050565b61082033610948565b610875576040517f08c379a00000000000000000000000000000000000000000000000000000000081526004018080602001828103825260308152602001806117006030913960400191505060405180910390fd5b61087e81611390565b50565b61088a336113ea565b565b6000610927338461092285600160003373ffffffffffffffffffffffffffffffffffffffff1673ffffffffffffffffffffffffffffffffffffffff16815260200190815260200160002060008973ffffffffffffffffffffffffffffffffffffffff1673ffffffffffffffffffffffffffffffffffffffff16815260200190815260200160002054610e7f90919063ffffffff16565b6109ec565b6001905092915050565b600061093e338484610be3565b6001905092915050565b600061095e82600361144490919063ffffffff16565b9050919050565b6000600160008473ffffffffffffffffffffffffffffffffffffffff1673ffffffffffffffffffffffffffffffffffffffff16815260200190815260200160002060008373ffffffffffffffffffffffffffffffffffffffff1673ffffffffffffffffffffffffffffffffffffffff16815260200190815260200160002054905092915050565b600073ffffffffffffffffffffffffffffffffffffffff168373ffffffffffffffffffffffffffffffffffffffff161415610a72576040517f08c379a00000000000000000000000000000000000000000000000000000000081526004018080602001828103825260248152602001806117b96024913960400191505060405180910390fd5b600073ffffffffffffffffffffffffffffffffffffffff168273ffffffffffffffffffffffffffffffffffffffff161415610af8576040517f08c379a00000000000000000000000000000000000000000000000000000000081526004018080602001828103825260228152602001806116de6022913960400191505060405180910390fd5b80600160008573ffffffffffffffffffffffffffffffffffffffff1673ffffffffffffffffffffffffffffffffffffffff16815260200190815260200160002060008473ffffffffffffffffffffffffffffffffffffffff1673ffffffffffffffffffffffffffffffffffffffff168152602001908152602001600020819055508173ffffffffffffffffffffffffffffffffffffffff168373ffffffffffffffffffffffffffffffffffffffff167f8c5be1e5ebec7d5bd14f71427d1e84f3dd0314c0f7b2291e5b200ac8c7c3b925836040518082815260200191505060405180910390a3505050565b600073ffffffffffffffffffffffffffffffffffffffff168373ffffffffffffffffffffffffffffffffffffffff161415610c69576040517f08c379a00000000000000000000000000000000000000000000000000000000081526004018080602001828103825260258152602001806117946025913960400191505060405180910390fd5b600073ffffffffffffffffffffffffffffffffffffffff168273ffffffffffffffffffffffffffffffffffffffff161415610cef576040517f08c379a00000000000000000000000000000000000000000000000000000000081526004018080602001828103825260238152602001806116bb6023913960400191505060405180910390fd5b610d40816000808673ffffffffffffffffffffffffffffffffffffffff1673ffffffffffffffffffffffffffffffffffffffff16815260200190815260200160002054610e7f90919063ffffffff16565b6000808573ffffffffffffffffffffffffffffffffffffffff1673ffffffffffffffffffffffffffffffffffffffff16815260200190815260200160002081905550610dd3816000808573ffffffffffffffffffffffffffffffffffffffff1673ffffffffffffffffffffffffffffffffffffffff16815260200190815260200160002054610f0890919063ffffffff16565b6000808473ffffffffffffffffffffffffffffffffffffffff1673ffffffffffffffffffffffffffffffffffffffff168152602001908152602001600020819055508173ffffffffffffffffffffffffffffffffffffffff168373ffffffffffffffffffffffffffffffffffffffff167fddf252ad1be2c89b69c2b068fc378daa952ba7f163c4a11628f55a4df523b3ef836040518082815260200191505060405180910390a3505050565b600082821115610ef7576040517f08c379a000000000000000000000000000000000000000000000000000000000815260040180806020018281038252601e8152602001807f536166654d6174683a207375627472616374696f6e206f766572666c6f77000081525060200191505060405180910390fd5b600082840390508091505092915050565b600080828401905083811015610f86576040517f08c379a000000000000000000000000000000000000000000000000000000000815260040180806020018281038252601b8152602001807f536166654d6174683a206164646974696f6e206f766572666c6f77000000000081525060200191505060405180910390fd5b8091505092915050565b600073ffffffffffffffffffffffffffffffffffffffff168273ffffffffffffffffffffffffffffffffffffffff161415611033576040517f08c379a000000000000000000000000000000000000000000000000000000000815260040180806020018281038252601f8152602001807f45524332303a206d696e7420746f20746865207a65726f20616464726573730081525060200191505060405180910390fd5b61104881600254610f0890919063ffffffff16565b60028190555061109f816000808573ffffffffffffffffffffffffffffffffffffffff1673ffffffffffffffffffffffffffffffffffffffff16815260200190815260200160002054610f0890919063ffffffff16565b6000808473ffffffffffffffffffffffffffffffffffffffff1673ffffffffffffffffffffffffffffffffffffffff168152602001908152602001600020819055508173ffffffffffffffffffffffffffffffffffffffff16600073ffffffffffffffffffffffffffffffffffffffff167fddf252ad1be2c89b69c2b068fc378daa952ba7f163c4a11628f55a4df523b3ef836040518082815260200191505060405180910390a35050565b600073ffffffffffffffffffffffffffffffffffffffff168273ffffffffffffffffffffffffffffffffffffffff1614156111d1576040517f08c379a00000000000000000000000000000000000000000000000000000000081526004018080602001828103825260218152602001806117736021913960400191505060405180910390fd5b6111e681600254610e7f90919063ffffffff16565b60028190555061123d816000808573ffffffffffffffffffffffffffffffffffffffff1673ffffffffffffffffffffffffffffffffffffffff16815260200190815260200160002054610e7f90919063ffffffff16565b6000808473ffffffffffffffffffffffffffffffffffffffff1673ffffffffffffffffffffffffffffffffffffffff16815260200190815260200160002081905550600073ffffffffffffffffffffffffffffffffffffffff168273ffffffffffffffffffffffffffffffffffffffff167fddf252ad1be2c89b69c2b068fc378daa952ba7f163c4a11628f55a4df523b3ef836040518082815260200191505060405180910390a35050565b6112f3828261114b565b61138c823361138784600160008873ffffffffffffffffffffffffffffffffffffffff1673ffffffffffffffffffffffffffffffffffffffff16815260200190815260200160002060003373ffffffffffffffffffffffffffffffffffffffff1673ffffffffffffffffffffffffffffffffffffffff16815260200190815260200160002054610e7f90919063ffffffff16565b6109ec565b5050565b6113a481600361152290919063ffffffff16565b8073ffffffffffffffffffffffffffffffffffffffff167f6ae172837ea30b801fbfcdd4108aa1d5bf8ff775444fd70256b44e6bf3dfc3f660405160405180910390a250565b6113fe8160036115fd90919063ffffffff16565b8073ffffffffffffffffffffffffffffffffffffffff167fe94479a9f7e1952cc78f2d6baab678adc1b772d936c6583def489e524cb6669260405160405180910390a250565b60008073ffffffffffffffffffffffffffffffffffffffff168273ffffffffffffffffffffffffffffffffffffffff1614156114cb576040517f08c379a00000000000000000000000000000000000000000000000000000000081526004018080602001828103825260228152602001806117516022913960400191505060405180910390fd5b8260000160008373ffffffffffffffffffffffffffffffffffffffff1673ffffffffffffffffffffffffffffffffffffffff16815260200190815260200160002060009054906101000a900460ff16905092915050565b61152c8282611444565b1561159f576040517f08c379a000000000000000000000000000000000000000000000000000000000815260040180806020018281038252601f8152602001807f526f6c65733a206163636f756e7420616c72656164792068617320726f6c650081525060200191505060405180910390fd5b60018260000160008373ffffffffffffffffffffffffffffffffffffffff1673ffffffffffffffffffffffffffffffffffffffff16815260200190815260200160002060006101000a81548160ff0219169083151502179055505050565b6116078282611444565b61165c576040517f08c379a00000000000000000000000000000000000000000000000000000000081526004018080602001828103825260218152602001806117306021913960400191505060405180910390fd5b60008260000160008373ffffffffffffffffffffffffffffffffffffffff1673ffffffffffffffffffffffffffffffffffffffff16815260200190815260200160002060006101000a81548160ff021916908315150217905550505056fe45524332303a207472616e7366657220746f20746865207a65726f206164647265737345524332303a20617070726f766520746f20746865207a65726f20616464726573734d696e746572526f6c653a2063616c6c657220646f6573206e6f74206861766520746865204d696e74657220726f6c65526f6c65733a206163636f756e7420646f6573206e6f74206861766520726f6c65526f6c65733a206163636f756e7420697320746865207a65726f206164647265737345524332303a206275726e2066726f6d20746865207a65726f206164647265737345524332303a207472616e736665722066726f6d20746865207a65726f206164647265737345524332303a20617070726f76652066726f6d20746865207a65726f2061646472657373a165627a7a723058204a15a5214660e024a7ad7697d9e5f574409e173dac26ca758360a3d2cca8fb840029526f6c65733a206163636f756e7420697320746865207a65726f20616464726573734f776e61626c653a206e6577206f776e657220697320746865207a65726f20616464726573734d6f6e65794d61726b65744d6f636b2e77697468647261773a204e6f7420656e6f75676820746f6b656e2073686172657320746f206275726e4d6f6e65794d61726b65744d6f636b2e6465706f7369743a2043616e6e6f74207472616e7366657220746f6b656e734d6f6e65794d61726b65744d6f636b2e77697468647261773a2043616e6e6f74206275726e20746f6b656e2073686172654d6f6e65794d61726b65744d6f636b2e6465706f7369743a206e6f7420656e6f75676820746f6b656e2062616c616e63654d6f6e65794d61726b65744d6f636b2e77697468647261773a204e6f7420656e6f75676820746f6b656e7320746f207472616e73666572a165627a7a72305820faa320af3c908090935626c20e5e9a87990c196daddfb7ae843854073a343b300029",
  "source": "pragma solidity 0.5.8;\n\nimport \"openzeppelin-solidity/contracts/ownership/Ownable.sol\";\nimport \"../TokenShare.sol\";\n\ncontract MoneyMarketMock is Ownable {\n  uint256 public rate;\n  mapping(address => Market) public supportedMarkets;\n\n  struct Market {\n    bool isSupported;\n    TokenShare tokenShare;\n  }\n\n  modifier checkMarketSupported(address token) {\n    require(isMarketSupported(token), \"Market is not supported\");\n    _;\n  }\n\n  constructor(uint256 _rate) public {\n    rate = _rate;\n  }\n\n  function setRate(uint256 newRate) external onlyOwner {\n    rate = newRate;\n  }\n\n  function deposit(address tokenAddress, uint256 amount)\n    external\n    checkMarketSupported(tokenAddress)\n  {\n    IERC20 token = IERC20(tokenAddress);\n\n    TokenShare tokenShare = supportedMarkets[tokenAddress].tokenShare;\n    uint256 mintedTokens = tokenShare.totalSupply();\n    uint256 ownedTokens = token.balanceOf(address(this));\n\n    uint256 tokensToMint = ownedTokens > 0\n      ? mintedTokens * amount / ownedTokens\n      : amount;\n\n    tokenShare.mint(msg.sender, tokensToMint);\n\n    require(\n      token.balanceOf(msg.sender) >= amount,\n      \"MoneyMarketMock.deposit: not enough token balance\"\n    );\n    require(\n      token.allowance(msg.sender, address(this)) >= amount,\n      \"MoneyMarketMock.deposit: Cannot transfer tokens\"\n    );\n    token.transferFrom(msg.sender, address(this), amount);\n  }\n\n  function withdraw(address tokenAddress, uint256 amount)\n    external\n    checkMarketSupported(tokenAddress)\n  {\n    IERC20 token = IERC20(tokenAddress);\n\n    TokenShare tokenShare = supportedMarkets[tokenAddress].tokenShare;\n    uint256 mintedTokens = tokenShare.totalSupply();\n    uint256 ownedTokens = token.balanceOf(address(this));\n\n    uint256 tokensToTransfer = ownedTokens * amount / mintedTokens;\n\n    require(\n      tokenShare.allowance(msg.sender, address(this)) >= amount,\n      \"MoneyMarketMock.withdraw: Cannot burn token share\"\n    );\n    require(\n      tokenShare.balanceOf(msg.sender) >= amount,\n      \"MoneyMarketMock.withdraw: Not enough token shares to burn\"\n    );\n    tokenShare.burnFrom(msg.sender, amount);\n\n    require(\n      token.balanceOf(address(this)) >= tokensToTransfer,\n      \"MoneyMarketMock.withdraw: Not enough tokens to transfer\"\n    );\n    token.transfer(msg.sender, tokensToTransfer);\n  }\n\n  function withdrawAll(address tokenAddress)\n    external\n    checkMarketSupported(tokenAddress)\n  {\n    IERC20 token = IERC20(tokenAddress);\n\n    TokenShare tokenShare = supportedMarkets[tokenAddress].tokenShare;\n    tokenShare.burnFrom(msg.sender, tokenShare.balanceOf(msg.sender));\n\n    token.transfer(msg.sender, token.balanceOf(address(this)));\n  }\n\n  function addMarket(address tokenAddress) external onlyOwner {\n    require(\n      !supportedMarkets[tokenAddress].isSupported,\n      \"Market is already supported\"\n    );\n\n    TokenShare tokenShare = new TokenShare(18);\n\n    supportedMarkets[tokenAddress].isSupported = true;\n    supportedMarkets[tokenAddress].tokenShare = tokenShare;\n  }\n\n  function getTokenShare(address tokenAddress)\n    external\n    view\n    checkMarketSupported(tokenAddress)\n    returns (address)\n  {\n    return address(supportedMarkets[tokenAddress].tokenShare);\n  }\n\n  function getSupply(address tokenAddress)\n    external\n    view\n    checkMarketSupported(tokenAddress)\n    returns (uint256)\n  {\n    IERC20 token = IERC20(tokenAddress);\n    return token.balanceOf(address(this));\n  }\n\n  function getAddress() external view returns (address) {\n    return address(this);\n  }\n\n  function getExchangeRate(address tokenAddress)\n    external\n    view\n    checkMarketSupported(tokenAddress)\n    returns (uint256, uint256)\n  {\n    IERC20 token = IERC20(tokenAddress);\n    TokenShare tokenShare = supportedMarkets[tokenAddress].tokenShare;\n\n    return (tokenShare.totalSupply(), token.balanceOf(address(this)));\n  }\n\n  function getRate(address token)\n    external\n    view\n    checkMarketSupported(token)\n    returns (uint256)\n  {\n    return rate;\n  }\n\n  function isMarketSupported(address token) public view returns (bool) {\n    return supportedMarkets[token].isSupported;\n  }\n}\n",
  "sourcePath": "/Users/max/Projects/dfos/MetaMoneyMarket/blockchain/contracts/test/MoneyMarketMock.sol",
  "compiler": {
    "name": "solc",
    "version": "0.5.8+commit.23d335f2.Emscripten.clang"
  },
  "schemaVersion": "3.0.11",
  "updatedAt": "2019-11-08T20:33:08.987Z",
  "devdoc": {
    "methods": {
      "isOwner()": {
        "details": "Returns true if the caller is the current owner."
      },
      "owner()": {
        "details": "Returns the address of the current owner."
      },
      "renounceOwnership()": {
        "details": "Leaves the contract without owner. It will not be possible to call `onlyOwner` functions anymore. Can only be called by the current owner.     * > Note: Renouncing ownership will leave the contract without an owner, thereby removing any functionality that is only available to the owner."
      },
      "transferOwnership(address)": {
        "details": "Transfers ownership of the contract to a new account (`newOwner`). Can only be called by the current owner."
      }
    }
  },
  "userdoc": {
    "methods": {}
  }
}