{
  "contractName": "MoneyMarketMockAdapter",
  "abi": [
    {
      "constant": false,
      "inputs": [],
      "name": "renounceOwnership",
      "outputs": [],
      "payable": false,
      "stateMutability": "nonpayable",
      "type": "function"
    },
    {
      "constant": true,
      "inputs": [],
      "name": "owner",
      "outputs": [
        {
          "name": "",
          "type": "address"
        }
      ],
      "payable": false,
      "stateMutability": "view",
      "type": "function"
    },
    {
      "constant": true,
      "inputs": [],
      "name": "isOwner",
      "outputs": [
        {
          "name": "",
          "type": "bool"
        }
      ],
      "payable": false,
      "stateMutability": "view",
      "type": "function"
    },
    {
      "constant": true,
      "inputs": [],
      "name": "moneyMarket",
      "outputs": [
        {
          "name": "",
          "type": "address"
        }
      ],
      "payable": false,
      "stateMutability": "view",
      "type": "function"
    },
    {
      "constant": false,
      "inputs": [
        {
          "name": "newOwner",
          "type": "address"
        }
      ],
      "name": "transferOwnership",
      "outputs": [],
      "payable": false,
      "stateMutability": "nonpayable",
      "type": "function"
    },
    {
      "inputs": [
        {
          "name": "_moneyMarket",
          "type": "address"
        }
      ],
      "payable": false,
      "stateMutability": "nonpayable",
      "type": "constructor"
    },
    {
      "anonymous": false,
      "inputs": [
        {
          "indexed": true,
          "name": "previousOwner",
          "type": "address"
        },
        {
          "indexed": true,
          "name": "newOwner",
          "type": "address"
        }
      ],
      "name": "OwnershipTransferred",
      "type": "event"
    },
    {
      "constant": false,
      "inputs": [
        {
          "name": "tokenAddress",
          "type": "address"
        },
        {
          "name": "amount",
          "type": "uint256"
        }
      ],
      "name": "deposit",
      "outputs": [],
      "payable": false,
      "stateMutability": "nonpayable",
      "type": "function"
    },
    {
      "constant": false,
      "inputs": [
        {
          "name": "tokenAddress",
          "type": "address"
        },
        {
          "name": "recipient",
          "type": "address"
        },
        {
          "name": "amount",
          "type": "uint256"
        }
      ],
      "name": "withdraw",
      "outputs": [],
      "payable": false,
      "stateMutability": "nonpayable",
      "type": "function"
    },
    {
      "constant": false,
      "inputs": [
        {
          "name": "tokenAddress",
          "type": "address"
        },
        {
          "name": "recipient",
          "type": "address"
        }
      ],
      "name": "withdrawAll",
      "outputs": [],
      "payable": false,
      "stateMutability": "nonpayable",
      "type": "function"
    },
    {
      "constant": false,
      "inputs": [
        {
          "name": "tokenAddress",
          "type": "address"
        },
        {
          "name": "recipient",
          "type": "address"
        }
      ],
      "name": "claimTokens",
      "outputs": [],
      "payable": false,
      "stateMutability": "nonpayable",
      "type": "function"
    },
    {
      "constant": false,
      "inputs": [
        {
          "name": "tokenAddress",
          "type": "address"
        }
      ],
      "name": "getSupply",
      "outputs": [
        {
          "name": "",
          "type": "uint256"
        }
      ],
      "payable": false,
      "stateMutability": "nonpayable",
      "type": "function"
    },
    {
      "constant": true,
      "inputs": [
        {
          "name": "tokenAddress",
          "type": "address"
        }
      ],
      "name": "getRate",
      "outputs": [
        {
          "name": "",
          "type": "uint256"
        }
      ],
      "payable": false,
      "stateMutability": "view",
      "type": "function"
    },
    {
      "constant": true,
      "inputs": [
        {
          "name": "tokenAddress",
          "type": "address"
        }
      ],
      "name": "getSupplyView",
      "outputs": [
        {
          "name": "",
          "type": "uint256"
        }
      ],
      "payable": false,
      "stateMutability": "view",
      "type": "function"
    },
    {
      "constant": true,
      "inputs": [
        {
          "name": "tokenAddress",
          "type": "address"
        }
      ],
      "name": "supportsToken",
      "outputs": [
        {
          "name": "",
          "type": "bool"
        }
      ],
      "payable": false,
      "stateMutability": "view",
      "type": "function"
    }
  ],
  "bytecode": "0x608060405234801561001057600080fd5b506040516020806120208339810180604052602081101561003057600080fd5b8101908080519060200190929190505050336000806101000a81548173ffffffffffffffffffffffffffffffffffffffff021916908373ffffffffffffffffffffffffffffffffffffffff1602179055506000809054906101000a900473ffffffffffffffffffffffffffffffffffffffff1673ffffffffffffffffffffffffffffffffffffffff16600073ffffffffffffffffffffffffffffffffffffffff167f8be0079c531659141344cd1fd0a4f28419497f9722a3daafe3b4186f6b6457e060405160405180910390a380600160006101000a81548173ffffffffffffffffffffffffffffffffffffffff021916908373ffffffffffffffffffffffffffffffffffffffff16021790555050611ed28061014e6000396000f3fe608060405234801561001057600080fd5b50600436106100cf5760003560e01c8063715018a61161008c578063d6d75f5111610066578063d6d75f511461036c578063d9caed12146103b6578063ed8a1e5414610424578063f2fde38b1461047c576100cf565b8063715018a6146102f65780638da5cb5b146103005780638f32d59b1461034a576100cf565b8063061f7650146100d457806309cae2c8146101305780631fd433aa1461019457806337cef791146101ec57806347e7ef241461024457806369ffa08a14610292575b600080fd5b610116600480360360208110156100ea57600080fd5b81019080803573ffffffffffffffffffffffffffffffffffffffff1690602001909291905050506104c0565b604051808215151515815260200191505060405180910390f35b6101926004803603604081101561014657600080fd5b81019080803573ffffffffffffffffffffffffffffffffffffffff169060200190929190803573ffffffffffffffffffffffffffffffffffffffff1690602001909291905050506105a3565b005b6101d6600480360360208110156101aa57600080fd5b81019080803573ffffffffffffffffffffffffffffffffffffffff169060200190929190505050610a3e565b6040518082815260200191505060405180910390f35b61022e6004803603602081101561020257600080fd5b81019080803573ffffffffffffffffffffffffffffffffffffffff169060200190929190505050610b21565b6040518082815260200191505060405180910390f35b6102906004803603604081101561025a57600080fd5b81019080803573ffffffffffffffffffffffffffffffffffffffff16906020019092919080359060200190929190505050610c04565b005b6102f4600480360360408110156102a857600080fd5b81019080803573ffffffffffffffffffffffffffffffffffffffff169060200190929190803573ffffffffffffffffffffffffffffffffffffffff169060200190929190505050611199565b005b6102fe611221565b005b61030861135a565b604051808273ffffffffffffffffffffffffffffffffffffffff1673ffffffffffffffffffffffffffffffffffffffff16815260200191505060405180910390f35b610352611383565b604051808215151515815260200191505060405180910390f35b6103746113da565b604051808273ffffffffffffffffffffffffffffffffffffffff1673ffffffffffffffffffffffffffffffffffffffff16815260200191505060405180910390f35b610422600480360360608110156103cc57600080fd5b81019080803573ffffffffffffffffffffffffffffffffffffffff169060200190929190803573ffffffffffffffffffffffffffffffffffffffff16906020019092919080359060200190929190505050611400565b005b6104666004803603602081101561043a57600080fd5b81019080803573ffffffffffffffffffffffffffffffffffffffff1690602001909291905050506119a1565b6040518082815260200191505060405180910390f35b6104be6004803603602081101561049257600080fd5b81019080803573ffffffffffffffffffffffffffffffffffffffff169060200190929190505050611a84565b005b6000600160009054906101000a900473ffffffffffffffffffffffffffffffffffffffff1673ffffffffffffffffffffffffffffffffffffffff1663cbfe49af836040518263ffffffff1660e01b8152600401808273ffffffffffffffffffffffffffffffffffffffff1673ffffffffffffffffffffffffffffffffffffffff16815260200191505060206040518083038186803b15801561056157600080fd5b505afa158015610575573d6000803e3d6000fd5b505050506040513d602081101561058b57600080fd5b81019080805190602001909291905050509050919050565b6105ab611383565b61061d576040517f08c379a00000000000000000000000000000000000000000000000000000000081526004018080602001828103825260208152602001807f4f776e61626c653a2063616c6c6572206973206e6f7420746865206f776e657281525060200191505060405180910390fd5b60008290506000600160009054906101000a900473ffffffffffffffffffffffffffffffffffffffff1673ffffffffffffffffffffffffffffffffffffffff1663efcf9523856040518263ffffffff1660e01b8152600401808273ffffffffffffffffffffffffffffffffffffffff1673ffffffffffffffffffffffffffffffffffffffff16815260200191505060206040518083038186803b1580156106c357600080fd5b505afa1580156106d7573d6000803e3d6000fd5b505050506040513d60208110156106ed57600080fd5b810190808051906020019092919050505090508073ffffffffffffffffffffffffffffffffffffffff1663095ea7b3600160009054906101000a900473ffffffffffffffffffffffffffffffffffffffff167fffffffffffffffffffffffffffffffffffffffffffffffffffffffffffffffff6040518363ffffffff1660e01b8152600401808373ffffffffffffffffffffffffffffffffffffffff1673ffffffffffffffffffffffffffffffffffffffff16815260200182815260200192505050602060405180830381600087803b1580156107c957600080fd5b505af11580156107dd573d6000803e3d6000fd5b505050506040513d60208110156107f357600080fd5b810190808051906020019092919050505050600160009054906101000a900473ffffffffffffffffffffffffffffffffffffffff1673ffffffffffffffffffffffffffffffffffffffff1663fa09e630856040518263ffffffff1660e01b8152600401808273ffffffffffffffffffffffffffffffffffffffff1673ffffffffffffffffffffffffffffffffffffffff168152602001915050600060405180830381600087803b1580156108a657600080fd5b505af11580156108ba573d6000803e3d6000fd5b505050508173ffffffffffffffffffffffffffffffffffffffff1663a9059cbb848473ffffffffffffffffffffffffffffffffffffffff166370a08231306040518263ffffffff1660e01b8152600401808273ffffffffffffffffffffffffffffffffffffffff1673ffffffffffffffffffffffffffffffffffffffff16815260200191505060206040518083038186803b15801561095857600080fd5b505afa15801561096c573d6000803e3d6000fd5b505050506040513d602081101561098257600080fd5b81019080805190602001909291905050506040518363ffffffff1660e01b8152600401808373ffffffffffffffffffffffffffffffffffffffff1673ffffffffffffffffffffffffffffffffffffffff16815260200182815260200192505050602060405180830381600087803b1580156109fc57600080fd5b505af1158015610a10573d6000803e3d6000fd5b505050506040513d6020811015610a2657600080fd5b81019080805190602001909291905050505050505050565b6000600160009054906101000a900473ffffffffffffffffffffffffffffffffffffffff1673ffffffffffffffffffffffffffffffffffffffff16631fd433aa836040518263ffffffff1660e01b8152600401808273ffffffffffffffffffffffffffffffffffffffff1673ffffffffffffffffffffffffffffffffffffffff16815260200191505060206040518083038186803b158015610adf57600080fd5b505afa158015610af3573d6000803e3d6000fd5b505050506040513d6020811015610b0957600080fd5b81019080805190602001909291905050509050919050565b6000600160009054906101000a900473ffffffffffffffffffffffffffffffffffffffff1673ffffffffffffffffffffffffffffffffffffffff166337cef791836040518263ffffffff1660e01b8152600401808273ffffffffffffffffffffffffffffffffffffffff1673ffffffffffffffffffffffffffffffffffffffff16815260200191505060206040518083038186803b158015610bc257600080fd5b505afa158015610bd6573d6000803e3d6000fd5b505050506040513d6020811015610bec57600080fd5b81019080805190602001909291905050509050919050565b610c0c611383565b610c7e576040517f08c379a00000000000000000000000000000000000000000000000000000000081526004018080602001828103825260208152602001807f4f776e61626c653a2063616c6c6572206973206e6f7420746865206f776e657281525060200191505060405180910390fd5b60008290508073ffffffffffffffffffffffffffffffffffffffff1663095ea7b3600160009054906101000a900473ffffffffffffffffffffffffffffffffffffffff167fffffffffffffffffffffffffffffffffffffffffffffffffffffffffffffffff6040518363ffffffff1660e01b8152600401808373ffffffffffffffffffffffffffffffffffffffff1673ffffffffffffffffffffffffffffffffffffffff16815260200182815260200192505050602060405180830381600087803b158015610d4c57600080fd5b505af1158015610d60573d6000803e3d6000fd5b505050506040513d6020811015610d7657600080fd5b810190808051906020019092919050505050818173ffffffffffffffffffffffffffffffffffffffff166370a08231336040518263ffffffff1660e01b8152600401808273ffffffffffffffffffffffffffffffffffffffff1673ffffffffffffffffffffffffffffffffffffffff16815260200191505060206040518083038186803b158015610e0657600080fd5b505afa158015610e1a573d6000803e3d6000fd5b505050506040513d6020811015610e3057600080fd5b81019080805190602001909291905050501015610e98576040517f08c379a0000000000000000000000000000000000000000000000000000000008152600401808060200182810382526038815260200180611e396038913960400191505060405180910390fd5b818173ffffffffffffffffffffffffffffffffffffffff1663dd62ed3e33306040518363ffffffff1660e01b8152600401808373ffffffffffffffffffffffffffffffffffffffff1673ffffffffffffffffffffffffffffffffffffffff1681526020018273ffffffffffffffffffffffffffffffffffffffff1673ffffffffffffffffffffffffffffffffffffffff1681526020019250505060206040518083038186803b158015610f4a57600080fd5b505afa158015610f5e573d6000803e3d6000fd5b505050506040513d6020811015610f7457600080fd5b81019080805190602001909291905050501015610fdc576040517f08c379a0000000000000000000000000000000000000000000000000000000008152600401808060200182810382526036815260200180611e716036913960400191505060405180910390fd5b8073ffffffffffffffffffffffffffffffffffffffff166323b872dd3330856040518463ffffffff1660e01b8152600401808473ffffffffffffffffffffffffffffffffffffffff1673ffffffffffffffffffffffffffffffffffffffff1681526020018373ffffffffffffffffffffffffffffffffffffffff1673ffffffffffffffffffffffffffffffffffffffff1681526020018281526020019350505050602060405180830381600087803b15801561109757600080fd5b505af11580156110ab573d6000803e3d6000fd5b505050506040513d60208110156110c157600080fd5b810190808051906020019092919050505050600160009054906101000a900473ffffffffffffffffffffffffffffffffffffffff1673ffffffffffffffffffffffffffffffffffffffff166347e7ef2484846040518363ffffffff1660e01b8152600401808373ffffffffffffffffffffffffffffffffffffffff1673ffffffffffffffffffffffffffffffffffffffff16815260200182815260200192505050600060405180830381600087803b15801561117c57600080fd5b505af1158015611190573d6000803e3d6000fd5b50505050505050565b6111a1611383565b611213576040517f08c379a00000000000000000000000000000000000000000000000000000000081526004018080602001828103825260208152602001807f4f776e61626c653a2063616c6c6572206973206e6f7420746865206f776e657281525060200191505060405180910390fd5b61121d8282611b0a565b5050565b611229611383565b61129b576040517f08c379a00000000000000000000000000000000000000000000000000000000081526004018080602001828103825260208152602001807f4f776e61626c653a2063616c6c6572206973206e6f7420746865206f776e657281525060200191505060405180910390fd5b600073ffffffffffffffffffffffffffffffffffffffff166000809054906101000a900473ffffffffffffffffffffffffffffffffffffffff1673ffffffffffffffffffffffffffffffffffffffff167f8be0079c531659141344cd1fd0a4f28419497f9722a3daafe3b4186f6b6457e060405160405180910390a360008060006101000a81548173ffffffffffffffffffffffffffffffffffffffff021916908373ffffffffffffffffffffffffffffffffffffffff160217905550565b60008060009054906101000a900473ffffffffffffffffffffffffffffffffffffffff16905090565b60008060009054906101000a900473ffffffffffffffffffffffffffffffffffffffff1673ffffffffffffffffffffffffffffffffffffffff163373ffffffffffffffffffffffffffffffffffffffff1614905090565b600160009054906101000a900473ffffffffffffffffffffffffffffffffffffffff1681565b611408611383565b61147a576040517f08c379a00000000000000000000000000000000000000000000000000000000081526004018080602001828103825260208152602001807f4f776e61626c653a2063616c6c6572206973206e6f7420746865206f776e657281525060200191505060405180910390fd5b60008390506000600160009054906101000a900473ffffffffffffffffffffffffffffffffffffffff1673ffffffffffffffffffffffffffffffffffffffff1663efcf9523866040518263ffffffff1660e01b8152600401808273ffffffffffffffffffffffffffffffffffffffff1673ffffffffffffffffffffffffffffffffffffffff16815260200191505060206040518083038186803b15801561152057600080fd5b505afa158015611534573d6000803e3d6000fd5b505050506040513d602081101561154a57600080fd5b810190808051906020019092919050505090508073ffffffffffffffffffffffffffffffffffffffff1663095ea7b3600160009054906101000a900473ffffffffffffffffffffffffffffffffffffffff167fffffffffffffffffffffffffffffffffffffffffffffffffffffffffffffffff6040518363ffffffff1660e01b8152600401808373ffffffffffffffffffffffffffffffffffffffff1673ffffffffffffffffffffffffffffffffffffffff16815260200182815260200192505050602060405180830381600087803b15801561162657600080fd5b505af115801561163a573d6000803e3d6000fd5b505050506040513d602081101561165057600080fd5b810190808051906020019092919050505050600080600160009054906101000a900473ffffffffffffffffffffffffffffffffffffffff1673ffffffffffffffffffffffffffffffffffffffff1663efb7601d886040518263ffffffff1660e01b8152600401808273ffffffffffffffffffffffffffffffffffffffff1673ffffffffffffffffffffffffffffffffffffffff168152602001915050604080518083038186803b15801561170357600080fd5b505afa158015611717573d6000803e3d6000fd5b505050506040513d604081101561172d57600080fd5b810190808051906020019092919080519060200190929190505050915091506000818387028161175957fe5b049050600160009054906101000a900473ffffffffffffffffffffffffffffffffffffffff1673ffffffffffffffffffffffffffffffffffffffff1663f3fef3a389836040518363ffffffff1660e01b8152600401808373ffffffffffffffffffffffffffffffffffffffff1673ffffffffffffffffffffffffffffffffffffffff16815260200182815260200192505050600060405180830381600087803b15801561180557600080fd5b505af1158015611819573d6000803e3d6000fd5b505050508473ffffffffffffffffffffffffffffffffffffffff1663a9059cbb888773ffffffffffffffffffffffffffffffffffffffff166370a08231306040518263ffffffff1660e01b8152600401808273ffffffffffffffffffffffffffffffffffffffff1673ffffffffffffffffffffffffffffffffffffffff16815260200191505060206040518083038186803b1580156118b757600080fd5b505afa1580156118cb573d6000803e3d6000fd5b505050506040513d60208110156118e157600080fd5b81019080805190602001909291905050506040518363ffffffff1660e01b8152600401808373ffffffffffffffffffffffffffffffffffffffff1673ffffffffffffffffffffffffffffffffffffffff16815260200182815260200192505050602060405180830381600087803b15801561195b57600080fd5b505af115801561196f573d6000803e3d6000fd5b505050506040513d602081101561198557600080fd5b8101908080519060200190929190505050505050505050505050565b6000600160009054906101000a900473ffffffffffffffffffffffffffffffffffffffff1673ffffffffffffffffffffffffffffffffffffffff16631fd433aa836040518263ffffffff1660e01b8152600401808273ffffffffffffffffffffffffffffffffffffffff1673ffffffffffffffffffffffffffffffffffffffff16815260200191505060206040518083038186803b158015611a4257600080fd5b505afa158015611a56573d6000803e3d6000fd5b505050506040513d6020811015611a6c57600080fd5b81019080805190602001909291905050509050919050565b611a8c611383565b611afe576040517f08c379a00000000000000000000000000000000000000000000000000000000081526004018080602001828103825260208152602001807f4f776e61626c653a2063616c6c6572206973206e6f7420746865206f776e657281525060200191505060405180910390fd5b611b0781611cce565b50565b600073ffffffffffffffffffffffffffffffffffffffff168173ffffffffffffffffffffffffffffffffffffffff161415611b4457600080fd5b600082905060008173ffffffffffffffffffffffffffffffffffffffff166370a08231306040518263ffffffff1660e01b8152600401808273ffffffffffffffffffffffffffffffffffffffff1673ffffffffffffffffffffffffffffffffffffffff16815260200191505060206040518083038186803b158015611bc857600080fd5b505afa158015611bdc573d6000803e3d6000fd5b505050506040513d6020811015611bf257600080fd5b810190808051906020019092919050505090508173ffffffffffffffffffffffffffffffffffffffff1663a9059cbb84836040518363ffffffff1660e01b8152600401808373ffffffffffffffffffffffffffffffffffffffff1673ffffffffffffffffffffffffffffffffffffffff16815260200182815260200192505050602060405180830381600087803b158015611c8c57600080fd5b505af1158015611ca0573d6000803e3d6000fd5b505050506040513d6020811015611cb657600080fd5b81019080805190602001909291905050505050505050565b600073ffffffffffffffffffffffffffffffffffffffff168173ffffffffffffffffffffffffffffffffffffffff161415611d54576040517f08c379a0000000000000000000000000000000000000000000000000000000008152600401808060200182810382526026815260200180611e136026913960400191505060405180910390fd5b8073ffffffffffffffffffffffffffffffffffffffff166000809054906101000a900473ffffffffffffffffffffffffffffffffffffffff1673ffffffffffffffffffffffffffffffffffffffff167f8be0079c531659141344cd1fd0a4f28419497f9722a3daafe3b4186f6b6457e060405160405180910390a3806000806101000a81548173ffffffffffffffffffffffffffffffffffffffff021916908373ffffffffffffffffffffffffffffffffffffffff1602179055505056fe4f776e61626c653a206e6577206f776e657220697320746865207a65726f20616464726573734d6f6e65794d61726b65744d6f636b416461707465722e6465706f7369743a206e6f7420656e6f75676820746f6b656e2062616c616e63654d6f6e65794d61726b65744d6f636b416461707465722e6465706f7369743a2043616e6e6f74207472616e7366657220746f6b656e73a165627a7a723058208a4ea2cefebcad7d0c3a73edeca316d042bd0f1131c3c5076f6d15cb042414090029",
  "source": "pragma solidity 0.5.8;\n\nimport \"openzeppelin-solidity/contracts/ownership/Ownable.sol\";\nimport \"openzeppelin-solidity/contracts/token/ERC20/IERC20.sol\";\n\nimport \"../Claimable.sol\";\nimport \"../IMoneyMarketAdapter.sol\";\nimport \"./MoneyMarketMock.sol\";\n\ncontract MoneyMarketMockAdapter is Ownable, IMoneyMarketAdapter, Claimable {\n  MoneyMarketMock public moneyMarket;\n\n  constructor(MoneyMarketMock _moneyMarket) public {\n    moneyMarket = _moneyMarket;\n  }\n\n  function deposit(address tokenAddress, uint256 amount) external onlyOwner {\n    IERC20 token = IERC20(tokenAddress);\n    token.approve(address(moneyMarket), uint256(-1));\n\n    require(\n      token.balanceOf(msg.sender) >= amount,\n      \"MoneyMarketMockAdapter.deposit: not enough token balance\"\n    );\n    require(\n      token.allowance(msg.sender, address(this)) >= amount,\n      \"MoneyMarketMockAdapter.deposit: Cannot transfer tokens\"\n    );\n    token.transferFrom(msg.sender, address(this), amount);\n    moneyMarket.deposit(tokenAddress, amount);\n  }\n\n  function withdraw(address tokenAddress, address recipient, uint256 amount)\n    external\n    onlyOwner\n  {\n    IERC20 token = IERC20(tokenAddress);\n    IERC20 tokenShare = IERC20(moneyMarket.getTokenShare(tokenAddress));\n    tokenShare.approve(address(moneyMarket), uint256(-1));\n\n    (uint256 tokenShares, uint256 baseTokens) = moneyMarket.getExchangeRate(\n      tokenAddress\n    );\n\n    uint256 amountToWithdraw = amount * tokenShares / baseTokens;\n\n    moneyMarket.withdraw(tokenAddress, amountToWithdraw);\n    token.transfer(recipient, token.balanceOf(address(this)));\n  }\n\n  function withdrawAll(address tokenAddress, address recipient)\n    external\n    onlyOwner\n  {\n    IERC20 token = IERC20(tokenAddress);\n    IERC20 tokenShare = IERC20(moneyMarket.getTokenShare(tokenAddress));\n    tokenShare.approve(address(moneyMarket), uint256(-1));\n\n    moneyMarket.withdrawAll(tokenAddress);\n    token.transfer(recipient, token.balanceOf(address(this)));\n  }\n\n  function claimTokens(address tokenAddress, address recipient)\n    external\n    onlyOwner\n  {\n    _claimTokens(tokenAddress, recipient);\n  }\n\n  function getSupply(address tokenAddress) external returns (uint256) {\n    return moneyMarket.getSupply(tokenAddress);\n  }\n\n  function getRate(address tokenAddress) external view returns (uint256) {\n    return moneyMarket.getRate(tokenAddress);\n  }\n\n  function getSupplyView(address tokenAddress) external view returns (uint256) {\n    return moneyMarket.getSupply(tokenAddress);\n  }\n\n  function supportsToken(address tokenAddress) external view returns (bool) {\n    return moneyMarket.isMarketSupported(tokenAddress);\n  }\n}\n",
  "sourcePath": "/home/fvictorio/repos/sovereign/blockchain/contracts/test/MoneyMarketMockAdapter.sol",
  "compiler": {
    "name": "solc",
    "version": "0.5.8+commit.23d335f2.Emscripten.clang"
  },
  "schemaVersion": "3.0.16",
  "updatedAt": "2019-10-26T00:28:40.953Z",
  "devdoc": {
    "methods": {
      "isOwner()": {
        "details": "Returns true if the caller is the current owner."
      },
      "owner()": {
        "details": "Returns the address of the current owner."
      },
      "renounceOwnership()": {
        "details": "Leaves the contract without owner. It will not be possible to call `onlyOwner` functions anymore. Can only be called by the current owner.     * > Note: Renouncing ownership will leave the contract without an owner, thereby removing any functionality that is only available to the owner."
      },
      "transferOwnership(address)": {
        "details": "Transfers ownership of the contract to a new account (`newOwner`). Can only be called by the current owner."
      }
    }
  },
  "userdoc": {
    "methods": {}
  }
}